{
	"data": {
		"bytecode": {
			"linkReferences": {},
			"object": "60806040526003805460ff60a01b19169055603c6009553480156200002357600080fd5b5060405162003e3638038062003e36833981810160405260a08110156200004957600080fd5b5080516020820151604083015160608401516080909401519293919290919060006200007462000162565b600380546001600160a01b0319166001600160a01b038316908117909155604051919250906000907f8be0079c531659141344cd1fd0a4f28419497f9722a3daafe3b4186f6b6457e0908290a35060008511620001035760405162461bcd60e51b815260040180806020018281038252602a81526020018062003de0602a913960400191505060405180910390fd5b848411620001435760405162461bcd60e51b815260040180806020018281038252602c81526020018062003e0a602c913960400191505060405180910390fd5b600794909455600692909255600a5543600855600f5560105562000166565b3390565b613c6a80620001766000396000f3fe6080604052600436106102cd5760003560e01c80638da5cb5b11610175578063c3289eab116100dc578063d2890a0111610095578063e1da8f581161006f578063e1da8f5814610bd9578063e270c9b214610bee578063f2fde38b14610c03578063f690a3a314610c3657610336565b8063d2890a0114610b70578063d431b1ac14610b85578063e18c81f114610b9a57610336565b8063c3289eab14610a8b578063c3cee9f314610aa0578063c600e1dc14610ab5578063cb7b2ecb14610ae8578063d0e30db014610b12578063d216ce6f14610b1a57610336565b8063a9f8d1811161012e578063a9f8d181146108e1578063ad3cf89b146108f6578063add99be814610985578063b230d6981461099a578063c13309c7146109c4578063c204642c146109d957610336565b80638da5cb5b1461081b5780638e840cc91461083057806394896c5c1461084557806396a37aee14610878578063993c3dd4146108a2578063a1b19eda146108b757610336565b806352ca75e7116102345780636bde0f1c116101ed5780637399a8a1116101c75780637399a8a11461075957806378e2dba6146107b857806379599f96146107cd5780637fd22e39146107e257610336565b80636bde0f1c146106de5780636ff1c9bc14610711578063715018a61461074457610336565b806352ca75e7146105825780635c975abb146105d057806360f62506146105f957806361a9ab351461062957806362479be71461065c5780636386c1c71461067157610336565b806332c270521161028657806332c270521461045e5780633755c71d1461048857806346a0da8e1461049d57806347c85634146104e957806348c3a2d81461051c578063522a07441461054f57610336565b80630f6fe11d1461033b5780631a39d8ef1461036e578063256da24f146103955780632e1a7d4d146103aa5780632ee72e18146103d45780632f4c3f621461040557610336565b36610336576102da610c69565b6001600160a01b03166102eb610c6d565b6001600160a01b031614610334576040805162461bcd60e51b81526020600482018190526024820152600080516020613bcd833981519152604482015290519081900360640190fd5b005b600080fd5b34801561034757600080fd5b506103346004803603602081101561035e57600080fd5b50356001600160a01b0316610c7c565b34801561037a57600080fd5b50610383610d4a565b60408051918252519081900360200190f35b3480156103a157600080fd5b50610383610d50565b3480156103b657600080fd5b50610334600480360360208110156103cd57600080fd5b5035610d56565b3480156103e057600080fd5b506103e96110bf565b604080516001600160a01b039092168252519081900360200190f35b34801561041157600080fd5b5061042f6004803603602081101561042857600080fd5b50356110ce565b60405180836001600160a01b03168152602001826001600160a01b031681526020019250505060405180910390f35b34801561046a57600080fd5b506103346004803603602081101561048157600080fd5b50356110e6565b34801561049457600080fd5b5061038361114d565b3480156104a957600080fd5b506104d0600480360360208110156104c057600080fd5b50356001600160a01b0316611153565b6040805192835260208301919091528051918290030190f35b3480156104f557600080fd5b506103346004803603602081101561050c57600080fd5b50356001600160a01b03166111b7565b34801561052857600080fd5b506103836004803603602081101561053f57600080fd5b50356001600160a01b0316611285565b34801561055b57600080fd5b506103836004803603602081101561057257600080fd5b50356001600160a01b0316611297565b34801561058e57600080fd5b506105b5600480360360208110156105a557600080fd5b50356001600160a01b03166112a9565b60408051921515835260208301919091528051918290030190f35b3480156105dc57600080fd5b506105e5611372565b604080519115158252519081900360200190f35b34801561060557600080fd5b506103346004803603604081101561061c57600080fd5b5080359060200135611382565b34801561063557600080fd5b506103346004803603602081101561064c57600080fd5b50356001600160a01b031661146c565b34801561066857600080fd5b506103836117a1565b34801561067d57600080fd5b506106a46004803603602081101561069457600080fd5b50356001600160a01b031661180a565b6040805197151588529515156020880152868601949094526060860192909252608085015260a084015260c0830152519081900360e00190f35b3480156106ea57600080fd5b506105e56004803603602081101561070157600080fd5b50356001600160a01b03166118fd565b34801561071d57600080fd5b506103346004803603602081101561073457600080fd5b50356001600160a01b03166119b6565b34801561075057600080fd5b50610334611c01565b34801561076557600080fd5b506107836004803603602081101561077c57600080fd5b5035611cad565b6040805196151587526020870195909552858501939093526060850191909152608084015260a0830152519081900360c00190f35b3480156107c457600080fd5b50610383611cf7565b3480156107d957600080fd5b50610383611cfd565b3480156107ee57600080fd5b506103e96004803603604081101561080557600080fd5b506001600160a01b038135169060200135611d03565b34801561082757600080fd5b506103e9610c6d565b34801561083c57600080fd5b506103e9611d8b565b34801561085157600080fd5b506103836004803603602081101561086857600080fd5b50356001600160a01b0316611d9a565b34801561088457600080fd5b506103346004803603602081101561089b57600080fd5b5035611dbb565b3480156108ae57600080fd5b50610383611ea3565b3480156108c357600080fd5b50610334600480360360208110156108da57600080fd5b5035611ea9565b3480156108ed57600080fd5b50610383611f10565b34801561090257600080fd5b506109356004803603606081101561091957600080fd5b50803590602081013590604001356001600160a01b0316611f16565b60408051602080825283518183015283519192839290830191858101910280838360005b83811015610971578181015183820152602001610959565b505050509050019250505060405180910390f35b34801561099157600080fd5b5061038361211d565b3480156109a657600080fd5b50610334600480360360208110156109bd57600080fd5b5035612123565b3480156109d057600080fd5b50610383612192565b3480156109e557600080fd5b50610334600480360360408110156109fc57600080fd5b810190602081018135640100000000811115610a1757600080fd5b820183602082011115610a2957600080fd5b80359060200191846020830284011164010000000083111715610a4b57600080fd5b9190808060200260200160405190810160405280939291908181526020018383602002808284376000920191909152509295505091359250612198915050565b348015610a9757600080fd5b50610383612353565b348015610aac57600080fd5b50610383612364565b348015610ac157600080fd5b5061038360048036036020811015610ad857600080fd5b50356001600160a01b031661236a565b348015610af457600080fd5b5061033460048036036020811015610b0b57600080fd5b50356124c3565b61033461252a565b348015610b2657600080fd5b50610b4d60048036036020811015610b3d57600080fd5b50356001600160a01b0316612650565b6040805192151583526001600160a01b0390911660208301528051918290030190f35b348015610b7c57600080fd5b5061038361265e565b348015610b9157600080fd5b50610334612664565b348015610ba657600080fd5b5061093560048036036060811015610bbd57600080fd5b50803590602081013590604001356001600160a01b03166126e7565b348015610be557600080fd5b50610383612861565b348015610bfa57600080fd5b5061038361286d565b348015610c0f57600080fd5b5061033460048036036020811015610c2657600080fd5b50356001600160a01b0316612873565b348015610c4257600080fd5b506105e560048036036020811015610c5957600080fd5b50356001600160a01b0316612976565b3390565b6003546001600160a01b031690565b610c84610c69565b6001600160a01b0316610c95610c6d565b6001600160a01b031614610cde576040805162461bcd60e51b81526020600482018190526024820152600080516020613bcd833981519152604482015290519081900360640190fd5b6001600160a01b038116610d28576040805162461bcd60e51b815260206004820152600c60248201526b5a65726f206164647265737360a01b604482015290519081900360640190fd5b600480546001600160a01b0319166001600160a01b0392909216919091179055565b600c5481565b60125490565b600354600160a01b900460ff1615610db0576040805162461bcd60e51b815260206004820152601860248201527714dd185ad9481a185cc81899595b881cdd5cdc195b99195960421b604482015290519081900360640190fd5b610db8612a2e565b3360009081526011602052604090205480610dd357506110bc565b600060126001830381548110610de557fe5b9060005260206000209060060201905060008160010154118015610e0d575082816001015410155b610e5e576040805162461bcd60e51b815260206004820152601960248201527f54686572652773206e6f7420656e6f756768207374616b656400000000000000604482015290519081900360640190fd5b6000610e998260050154610e93670de0b6b3a7640000610e8d600b548760010154612a8990919063ffffffff16565b90612ae2565b90612b49565b905060105460001415610eae57506000610ebd565b601054811115610ebd57506010545b610ec681612ba6565b8315611035578160040154431015610f25576040805162461bcd60e51b815260206004820152601860248201527f49742773207374696c6c20756e646572207374616b696e670000000000000000604482015290519081900360640190fd5b6001820154610f349085612b49565b6001830155600c54610f469085612b49565b600c55604051339085156108fc029086906000818181858888f19350505050158015610f76573d6000803e3d6000fd5b5060408051858152905133917f884edad9ce6fa2440d8a54cc123490eb96d2768479d49ff9c7366125a9424364919081900360200190a2801561103057604051339082156108fc029083906000818181858888f19350505050158015610fe0573d6000803e3d6000fd5b50611006670de0b6b3a7640000610e8d600b548560010154612a8990919063ffffffff16565b60058301556040805182815290513391600080516020613c15833981519152919081900360200190a25b6110b8565b80156110b857604051339082156108fc029083906000818181858888f19350505050158015611068573d6000803e3d6000fd5b5061108e670de0b6b3a7640000610e8d600b548560010154612a8990919063ffffffff16565b60058301556040805182815290513391600080516020613c15833981519152919081900360200190a25b5050505b50565b6005546001600160a01b031681565b6000806110dc600184612bc9565b915091505b915091565b6110ee610c69565b6001600160a01b03166110ff610c6d565b6001600160a01b031614611148576040805162461bcd60e51b81526020600482018190526024820152600080516020613bcd833981519152604482015290519081900360640190fd5b600955565b600f5481565b6001600160a01b0381166000908152601160205260408120548190806111805760008092509250506110e1565b60006012600183038154811061119257fe5b9060005260206000209060060201905080600101548160020154935093505050915091565b6111bf610c69565b6001600160a01b03166111d0610c6d565b6001600160a01b031614611219576040805162461bcd60e51b81526020600482018190526024820152600080516020613bcd833981519152604482015290519081900360640190fd5b6001600160a01b038116611263576040805162461bcd60e51b815260206004820152600c60248201526b5a65726f206164647265737360a01b604482015290519081900360640190fd5b600580546001600160a01b0319166001600160a01b0392909216919091179055565b60116020526000908152604090205481565b60136020526000908152604090205481565b6000806001600160a01b0383166112f6576040805162461bcd60e51b815260206004820152600c60248201526b5a65726f206164647265737360a01b604482015290519081900360640190fd5b6001600160a01b038316600090815260116020526040902054806113215760008092509250506110e1565b60006012600183038154811061133357fe5b906000526020600020906006020190504381600401541115611363576001438260040154039350935050506110e1565b600160009350935050506110e1565b600354600160a01b900460ff1681565b61138a610c69565b6001600160a01b031661139b610c6d565b6001600160a01b0316146113e4576040805162461bcd60e51b81526020600482018190526024820152600080516020613bcd833981519152604482015290519081900360640190fd5b600082116114235760405162461bcd60e51b815260040180806020018281038252602a815260200180613b0e602a913960400191505060405180910390fd5b8181116114615760405162461bcd60e51b815260040180806020018281038252602c815260200180613b80602c913960400191505060405180910390fd5b600791909155600655565b600354600160a01b900460ff16156114c6576040805162461bcd60e51b815260206004820152601860248201527714dd185ad9481a185cc81899595b881cdd5cdc195b99195960421b604482015290519081900360640190fd5b6114cf81612be7565b60405133906001600160a01b038316907f8a2147350b859703c1a5e651e6b18e1873870808c8b7e1ed450d352b3f1fbd8690600090a36001600160a01b0381166000908152601160205260409020548061152957506110bc565b60006012600183038154811061153b57fe5b9060005260206000209060060201905080600301546000141561155f5750506110bc565b336000908152601160205260409020548061157c575050506110bc565b60006012600183038154811061158e57fe5b60009182526020909120600690910201805490915060ff16806115b357506003810154155b156115c157505050506110bc565b6115c9612a2e565b60018301541561169e5760006116028460050154610e93670de0b6b3a7640000610e8d600b548960010154612a8990919063ffffffff16565b9050801561169c5760105461161957506000611628565b60105481111561162857506010545b61163181612ba6565b801561169c576040516001600160a01b0387169082156108fc029083906000818181858888f1935050505015801561166d573d6000803e3d6000fd5b506040805182815290516001600160a01b03881691600080516020613c15833981519152919081900360200190a25b505b60006116be6103e8610e8d60968560030154612a8990919063ffffffff16565b9050600f54600014156116d3575060006116e2565b600f548111156116e25750600f545b6116eb81612daf565b60018401546116fa9082612dd2565b6001850155600284015461170e9082612dd2565b6002850155815460ff191660019081178355600b549085015461173e91670de0b6b3a764000091610e8d91612a89565b6005850155600c546117509082612dd2565b600c558015611799576040805182815290516001600160a01b038816917f389563883f983db1cb1b00fca2f5c30e56ce545ee60ed77f8e07130f04c53056919081900360200190a25b505050505050565b60006117ab610c69565b6001600160a01b03166117bc610c6d565b6001600160a01b031614611805576040805162461bcd60e51b81526020600482018190526024820152600080516020613bcd833981519152604482015290519081900360640190fd5b504790565b60008080808080806001600160a01b03881661185c576040805162461bcd60e51b815260206004820152600c60248201526b5a65726f206164647265737360a01b604482015290519081900360640190fd5b6001600160a01b038816600090815260116020526040902054806118995760008060008060008060009750975097509750975097509750506118f2565b6000601260018303815481106118ab57fe5b600091825260209091206006909102018054600180830154600284015460038501546004860154600590960154939e5060ff9094169c50909a509850909650909450925050505b919395979092949650565b60006001600160a01b038216611949576040805162461bcd60e51b815260206004820152600c60248201526b5a65726f206164647265737360a01b604482015290519081900360640190fd5b6001600160a01b038216600090815260116020526040902054806119715760009150506119b1565b60006012600183038154811061198357fe5b9060005260206000209060060201905080600401544310156119aa576000925050506119b1565b6001925050505b919050565b6005546001600160a01b03166119fd5760405162461bcd60e51b8152600401808060200182810382526028815260200180613bed6028913960400191505060405180910390fd5b6005546001600160a01b03163314611a57576040805162461bcd60e51b8152602060048201526018602482015277496e73756666696369656e74207065726d697373696f6e7360401b604482015290519081900360640190fd5b6001600160a01b038116611aa1576040805162461bcd60e51b815260206004820152600c60248201526b5a65726f206164647265737360a01b604482015290519081900360640190fd5b6001600160a01b03811660009081526011602052604090205480611ac557506110bc565b600060126001830381548110611ad757fe5b90600052602060002090600602019050600081600101541115611bfc576001810154600282015480821115611bcb57611b108282612b49565b60006001850181905560028501819055600585018190556040519193506001600160a01b0387169184156108fc0291859190818181858888f19350505050158015611b5f573d6000803e3d6000fd5b50600c54611b6d9083612b49565b600c558015611b8757600c54611b839082612b49565b600c555b6040805183815290516001600160a01b038716917f5fafa99d0643513820be26656b45130b01e1c03062e1266bf36f88cbd3bd9695919081900360200190a2611bf9565b81811115611bf957600060018401819055600284018190556005840155600c54611bf59083612b49565b600c555b50505b505050565b611c09610c69565b6001600160a01b0316611c1a610c6d565b6001600160a01b031614611c63576040805162461bcd60e51b81526020600482018190526024820152600080516020613bcd833981519152604482015290519081900360640190fd5b6003546040516000916001600160a01b0316907f8be0079c531659141344cd1fd0a4f28419497f9722a3daafe3b4186f6b6457e0908390a3600380546001600160a01b0319169055565b60128181548110611cbd57600080fd5b600091825260209091206006909102018054600182015460028301546003840154600485015460059095015460ff90941695509193909286565b60065481565b60095481565b60006001600160a01b038316611d60576040805162461bcd60e51b815260206004820152601b60248201527f496e766974657220697320746865207a65726f20616464726573730000000000604482015290519081900360640190fd5b6001600160a01b0383166000908152602081905260409020611d829083612e2c565b90505b92915050565b6004546001600160a01b031681565b6001600160a01b0381166000908152602081905260408120611d8590612e38565b611dc3610c69565b6001600160a01b0316611dd4610c6d565b6001600160a01b031614611e1d576040805162461bcd60e51b81526020600482018190526024820152600080516020613bcd833981519152604482015290519081900360640190fd5b60008111611e72576040805162461bcd60e51b815260206004820152601960248201527f496e636f7272656374207472616e7366657220616d6f756e7400000000000000604482015290519081900360640190fd5b604051339082156108fc029083906000818181858888f19350505050158015611e9f573d6000803e3d6000fd5b5050565b600e5481565b611eb1610c69565b6001600160a01b0316611ec2610c6d565b6001600160a01b031614611f0b576040805162461bcd60e51b81526020600482018190526024820152600080516020613bcd833981519152604482015290519081900360640190fd5b601055565b60085481565b60606001600160a01b038216611f73576040805162461bcd60e51b815260206004820152601b60248201527f496e766974657220697320746865207a65726f20616464726573730000000000604482015290519081900360640190fd5b6001600160a01b0382166000908152602081905260409020611f9490612e38565b611fad5750604080516000815260208101909152612116565b8284108015611fdb57506001600160a01b0382166000908152602081905260409020611fd890612e38565b84105b61201b576040805162461bcd60e51b815260206004820152600c60248201526b6f75745f6f665f72616e676560a01b604482015290519081900360640190fd5b6001600160a01b038216600090815260208190526040812061203c90612e38565b8410612068576001600160a01b038316600090815260208190526040902061206390612e38565b61206a565b835b9050600085820367ffffffffffffffff8111801561208757600080fd5b506040519080825280602002602001820160405280156120b1578160200160208202803683370190505b50905060005b82871015612111576001600160a01b03851660009081526020819052604090206120e19088612e2c565b8282815181106120ed57fe5b6001600160a01b0390921660209283029190910190910152600196870196016120b7565b509150505b9392505050565b600d5481565b61212b610c69565b6001600160a01b031661213c610c6d565b6001600160a01b031614612185576040805162461bcd60e51b81526020600482018190526024820152600080516020613bcd833981519152604482015290519081900360640190fd5b61218d612a2e565b600a55565b600a5481565b600354600160a01b900460ff16156121f2576040805162461bcd60e51b815260206004820152601860248201527714dd185ad9481a185cc81899595b881cdd5cdc195b99195960421b604482015290519081900360640190fd5b6004546001600160a01b031661224f576040805162461bcd60e51b815260206004820152601c60248201527f61697264726f704f776e6572206973207a65726f206164647265737300000000604482015290519081900360640190fd5b6004546001600160a01b031633146122a9576040805162461bcd60e51b8152602060048201526018602482015277496e73756666696369656e74207065726d697373696f6e7360401b604482015290519081900360640190fd5b6012546122b557436008555b6122bd612a2e565b60005b8251811015611bfc576122e68382815181106122d857fe5b602002602001015183612e43565b811561234b578281815181106122f857fe5b60200260200101516001600160a01b0316336001600160a01b03167f39a7d1d43def1f7fcd2dbfbbf5d2ffcfdcffdece3776dad1ac48a1c9652ae936846040518082815260200191505060405180910390a35b6001016122c0565b600061235f6001612e38565b905090565b60075481565b60006001600160a01b0382166123b6576040805162461bcd60e51b815260206004820152600c60248201526b5a65726f206164647265737360a01b604482015290519081900360640190fd5b6001600160a01b038216600090815260116020526040902054806123de5760009150506119b1565b6000601260018303815481106123f057fe5b9060005260206000209060060201905060085443111561248d57600061243f600c54610e8d670de0b6b3a7640000612439600a5461243960085443612b4990919063ffffffff16565b90612a89565b9050612456600b5482612dd290919063ffffffff16565b90506124838260050154610e93670de0b6b3a7640000610e8d858760010154612a8990919063ffffffff16565b93505050506119b1565b6124ba8160050154610e93670de0b6b3a7640000610e8d600b548660010154612a8990919063ffffffff16565b925050506119b1565b6124cb610c69565b6001600160a01b03166124dc610c6d565b6001600160a01b031614612525576040805162461bcd60e51b81526020600482018190526024820152600080516020613bcd833981519152604482015290519081900360640190fd5b600f55565b600354600160a01b900460ff1615612584576040805162461bcd60e51b815260206004820152601860248201527714dd185ad9481a185cc81899595b881cdd5cdc195b99195960421b604482015290519081900360640190fd5b60003411801561259657506007543410155b80156125a457506006543411155b6125ec576040805162461bcd60e51b81526020600482015260146024820152733232b837b9b4ba1030b6b7bab73a1032b93937b960611b604482015290519081900360640190fd5b6012546125f857436008555b612600612a2e565b612608613142565b61261061337d565b6126186136fe565b60408051348152905133917fe1fffcc4923d04b559f4d29a8bfc6cda04eb5b0d3c460751c2402c5c5cc9109c919081900360200190a2565b6000806110dc600184613855565b600b5481565b61266c610c69565b6001600160a01b031661267d610c6d565b6001600160a01b0316146126c6576040805162461bcd60e51b81526020600482018190526024820152600080516020613bcd833981519152604482015290519081900360640190fd5b6003805460ff60a01b198116600160a01b9182900460ff1615909102179055565b60606001600160a01b038216612744576040805162461bcd60e51b815260206004820152601b60248201527f496e766974657220697320746865207a65726f20616464726573730000000000604482015290519081900360640190fd5b828410801561277357506001600160a01b038216600090815260208190526040902061276f90612e38565b8311155b6127b3576040805162461bcd60e51b815260206004820152600c60248201526b6f75745f6f665f72616e676560a01b604482015290519081900360640190fd5b600084840367ffffffffffffffff811180156127ce57600080fd5b506040519080825280602002602001820160405280156127f8578160200160208202803683370190505b50905060005b84861015612858576001600160a01b03841660009081526020819052604090206128289087612e2c565b82828151811061283457fe5b6001600160a01b0390921660209283029190910190910152600195860195016127fe565b50949350505050565b670de0b6b3a764000081565b60105481565b61287b610c69565b6001600160a01b031661288c610c6d565b6001600160a01b0316146128d5576040805162461bcd60e51b81526020600482018190526024820152600080516020613bcd833981519152604482015290519081900360640190fd5b6001600160a01b03811661291a5760405162461bcd60e51b8152600401808060200182810382526026815260200180613b386026913960400191505060405180910390fd5b6003546040516001600160a01b038084169216907f8be0079c531659141344cd1fd0a4f28419497f9722a3daafe3b4186f6b6457e090600090a3600380546001600160a01b0319166001600160a01b0392909216919091179055565b60006001600160a01b0382166129c2576040805162461bcd60e51b815260206004820152600c60248201526b5a65726f206164647265737360a01b604482015290519081900360640190fd5b6001600160a01b038216600090815260116020526040902054806129ea5760009150506119b1565b6000601260018303815481106129fc57fe5b90600052602060002090600602019050600081600301541115612a24576001925050506119b1565b5060009392505050565b60085443118015612a4157506000600c54115b15612a8757612a7f612a76600c54610e8d670de0b6b3a7640000612439600a5461243960085443612b4990919063ffffffff16565b600b5490612dd2565b600b55436008555b565b600082612a9857506000611d85565b82820282848281612aa557fe5b0414611d825760405162461bcd60e51b8152600401808060200182810382526021815260200180613bac6021913960400191505060405180910390fd5b6000808211612b38576040805162461bcd60e51b815260206004820152601a60248201527f536166654d6174683a206469766973696f6e206279207a65726f000000000000604482015290519081900360640190fd5b818381612b4157fe5b049392505050565b600082821115612ba0576040805162461bcd60e51b815260206004820152601e60248201527f536166654d6174683a207375627472616374696f6e206f766572666c6f770000604482015290519081900360640190fd5b50900390565b601054612bb39082612b49565b601055600e54612bc39082612dd2565b600e5550565b6000808080612bd8868661386d565b909450925050505b9250929050565b6001600160a01b038116612c34576040805162461bcd60e51b815260206004820152600f60248201526e496e7669746572206973207a65726f60881b604482015290519081900360640190fd5b6001600160a01b038116331415612c87576040805162461bcd60e51b815260206004820152601260248201527124b73b34ba32b91034b99037b732b9b2b63360711b604482015290519081900360640190fd5b336000818152602081905260409020612ca090836138e8565b15612ce6576040805162461bcd60e51b815260206004820152601160248201527026baba3ab0b61034b73b34ba30ba34b7b760791b604482015290519081900360640190fd5b612cf2600182846138fd565b612d3c576040805162461bcd60e51b8152602060048201526016602482015275496e766974657220616c72656164792065786973747360501b604482015290519081900360640190fd5b6001600160a01b0382166000908152602081905260409020612d5e908261391e565b611e9f576040805162461bcd60e51b815260206004820152601d60248201527f41646420696e7669746174696f6e206d6f7265207468616e206f6e6365000000604482015290519081900360640190fd5b600f54612dbc9082612b49565b600f55600d54612dcc9082612dd2565b600d5550565b600082820183811015611d82576040805162461bcd60e51b815260206004820152601b60248201527f536166654d6174683a206164646974696f6e206f766572666c6f770000000000604482015290519081900360640190fd5b6000611d828383613933565b6000611d8582613997565b6001600160a01b038216612e8d576040805162461bcd60e51b815260206004820152600c60248201526b5a65726f206164647265737360a01b604482015290519081900360640190fd5b60008111612ee2576040805162461bcd60e51b815260206004820152601960248201527f57726f6e67206e756d626572206f66206169722064726f707300000000000000604482015290519081900360640190fd5b6001600160a01b03821660009081526011602052604090205480612fe6576000612f23670de0b6b3a7640000610e8d600b5486612a8990919063ffffffff16565b905060126040518060c001604052806000151581526020018581526020016000815260200160008152602001612f6460095443612dd290919063ffffffff16565b815260209081019390935281546001808201845560009384528484208351600690930201805460ff191692151592909217825582850151908201556040808301516002830155606083015160038301556080830151600483015560a0909201516005909101556012546001600160a01b0387168352601190935290205561312d565b600060126001830381548110612ff857fe5b906000526020600020906006020190506000816001015411156130e05760006130448260050154610e93670de0b6b3a7640000610e8d600b548760010154612a8990919063ffffffff16565b905080156130de5760105461305b5750600061306a565b60105481111561306a57506010545b61307381612ba6565b80156130de576040516001600160a01b0386169082156108fc029083906000818181858888f193505050501580156130af573d6000803e3d6000fd5b506040805182815290516001600160a01b03871691600080516020613c15833981519152919081900360200190a25b505b60018101546130ef9084612dd2565b6001820155600954613102904390612dd2565b6004820155600b54600182015461312691670de0b6b3a764000091610e8d91612a89565b6005909101555b600c5461313a9083612dd2565b600c55505050565b33600090815260116020526040902054348161323457600061317b670de0b6b3a7640000610e8d600b5485612a8990919063ffffffff16565b905060126040518060c00160405280600015158152602001848152602001600081526020018481526020016131bb60095443612dd290919063ffffffff16565b815260209081019390935281546001808201845560009384528484208351600690930201805460ff191692151592909217825582850151908201556040808301516002830155606083015160038301556080830151600483015560a0909201516005909101556012543383526011909352902055613369565b60006012600184038154811061324657fe5b9060005260206000209060060201905060008160010154111561331c5760006132928260050154610e93670de0b6b3a7640000610e8d600b548760010154612a8990919063ffffffff16565b9050801561331a576010546132a9575060006132b8565b6010548111156132b857506010545b6132c181612ba6565b801561331a57604051339082156108fc029083906000818181858888f193505050501580156132f4573d6000803e3d6000fd5b506040805182815290513391600080516020613c15833981519152919081900360200190a25b505b600181015461332b9083612dd2565b600182015560095461333e904390612dd2565b6004820155600b54600182015461336291670de0b6b3a764000091610e8d91612a89565b6005909101555b600c546133769082612dd2565b600c555050565b60008061338933612650565b9150915081613399575050612a87565b6001600160a01b0381163314156133ec576040805162461bcd60e51b815260206004820152601260248201527124b73b34ba32b91034b99037b732b9b2b63360711b604482015290519081900360640190fd5b6001600160a01b03811660009081526011602052604080822054338352908220546012805492939192600019840190811061342357fe5b9060005260206000209060060201905082600014156134cd57805460ff168061344e57506003810154155b1561345d575050505050612a87565b61349d61347e6103e8610e8d60968560030154612a8990919063ffffffff16565b6001600160a01b03861660009081526013602052604090205490612dd2565b6001600160a01b039094166000908152601360205260409020939093555050805460ff1916600117905550612a87565b805460ff16806134df57506003810154155b156134ee575050505050612a87565b60006012600185038154811061350057fe5b906000526020600020906006020190506000816001015411156135e857600061354c8260050154610e93670de0b6b3a7640000610e8d600b548760010154612a8990919063ffffffff16565b905080156135e65760105461356357506000613572565b60105481111561357257506010545b61357b81612ba6565b80156135e6576040516001600160a01b0387169082156108fc029083906000818181858888f193505050501580156135b7573d6000803e3d6000fd5b506040805182815290516001600160a01b03881691600080516020613c15833981519152919081900360200190a25b505b60006136086103e8610e8d60968660030154612a8990919063ffffffff16565b9050600f546000141561361d5750600061362c565b600f5481111561362c5750600f545b61363581612daf565b60018201546136449082612dd2565b600183015560028201546136589082612dd2565b6002830155825460ff19166001178355600954613676904390612dd2565b6004840155600c546136889082612dd2565b600c55600b5460018301546136aa91670de0b6b3a764000091610e8d91612a89565b600583015580156136f5576040805182815290516001600160a01b038816917f389563883f983db1cb1b00fca2f5c30e56ce545ee60ed77f8e07130f04c53056919081900360200190a25b50505050505050565b33600090815260116020526040902054806137195750612a87565b60006012600183038154811061372b57fe5b90600052602060002090600602019050600061374633611d9a565b3360009081526013602052604090205490915081158015906137685750600081115b156110b857600f5461377c5750600061378b565b600f5481111561378b5750600f545b61379481612daf565b60018301546137a39082612dd2565b600184015560028301546137b79082612dd2565b60028401556009546137ca904390612dd2565b6004840155600b5460018401546137ee91670de0b6b3a764000091610e8d91612a89565b6005840155600c546138009082612dd2565b600c553360009081526013602052604081205580156110b85760408051828152905133917f389563883f983db1cb1b00fca2f5c30e56ce545ee60ed77f8e07130f04c53056919081900360200190a250505050565b6000808080612bd8866001600160a01b03871661399b565b8154600090819083106138b15760405162461bcd60e51b8152600401808060200182810382526022815260200180613b5e6022913960400191505060405180910390fd5b60008460000184815481106138c257fe5b906000526020600020906002020190508060000154816001015492509250509250929050565b6000611d82836001600160a01b0384166139f2565b6000613916846001600160a01b03808616908516613a0a565b949350505050565b6000611d82836001600160a01b038416613aa1565b815460009082106139755760405162461bcd60e51b8152600401808060200182810382526022815260200180613aec6022913960400191505060405180910390fd5b82600001828154811061398457fe5b9060005260206000200154905092915050565b5490565b60008181526001830160205260408120548190806139c0575060009150819050612be0565b60018560000160018303815481106139d457fe5b90600052602060002090600202016001015492509250509250929050565b60009081526001919091016020526040902054151590565b600082815260018401602052604081205480613a6f575050604080518082018252838152602080820184815286546001818101895560008981528481209551600290930290950191825591519082015586548684528188019092529290912055612116565b82856000016001830381548110613a8257fe5b9060005260206000209060020201600101819055506000915050612116565b6000613aad83836139f2565b613ae357508154600181810184556000848152602080822090930184905584548482528286019093526040902091909155611d85565b506000611d8556fe456e756d657261626c655365743a20696e646578206f7574206f6620626f756e6473546865206d696e696d756d206c696d69742073686f756c642062652067726561746572207468616e20304f776e61626c653a206e6577206f776e657220697320746865207a65726f2061646472657373456e756d657261626c654d61703a20696e646578206f7574206f6620626f756e6473546865207570706572206c696d6974206973206c657373207468616e20746865206c6f776572206c696d6974536166654d6174683a206d756c7469706c69636174696f6e206f766572666c6f774f776e61626c653a2063616c6c6572206973206e6f7420746865206f776e6572656d657267656e6379576974686472617741646472657373206973207a65726f2061646472657373010d214e8adbe593eebc2e78d29e88f08ddcb363fac75a9ef8c9455ba3c72dcca264697066735822122032887aae1fee47d780d6901f7b22b50c2a8f3fa0a19bd3e625a2e2dfe7035dc664736f6c63430007060033546865206d696e696d756d206c696d69742073686f756c642062652067726561746572207468616e2030546865207570706572206c696d6974206973206c657373207468616e20746865206c6f776572206c696d6974",
			"opcodes": "PUSH1 0x80 PUSH1 0x40 MSTORE PUSH1 0x3 DUP1 SLOAD PUSH1 0xFF PUSH1 0xA0 SHL NOT AND SWAP1 SSTORE PUSH1 0x3C PUSH1 0x9 SSTORE CALLVALUE DUP1 ISZERO PUSH3 0x23 JUMPI PUSH1 0x0 DUP1 REVERT JUMPDEST POP PUSH1 0x40 MLOAD PUSH3 0x3E36 CODESIZE SUB DUP1 PUSH3 0x3E36 DUP4 CODECOPY DUP2 DUP2 ADD PUSH1 0x40 MSTORE PUSH1 0xA0 DUP2 LT ISZERO PUSH3 0x49 JUMPI PUSH1 0x0 DUP1 REVERT JUMPDEST POP DUP1 MLOAD PUSH1 0x20 DUP3 ADD MLOAD PUSH1 0x40 DUP4 ADD MLOAD PUSH1 0x60 DUP5 ADD MLOAD PUSH1 0x80 SWAP1 SWAP5 ADD MLOAD SWAP3 SWAP4 SWAP2 SWAP3 SWAP1 SWAP2 SWAP1 PUSH1 0x0 PUSH3 0x74 PUSH3 0x162 JUMP JUMPDEST PUSH1 0x3 DUP1 SLOAD PUSH1 0x1 PUSH1 0x1 PUSH1 0xA0 SHL SUB NOT AND PUSH1 0x1 PUSH1 0x1 PUSH1 0xA0 SHL SUB DUP4 AND SWAP1 DUP2 OR SWAP1 SWAP2 SSTORE PUSH1 0x40 MLOAD SWAP2 SWAP3 POP SWAP1 PUSH1 0x0 SWAP1 PUSH32 0x8BE0079C531659141344CD1FD0A4F28419497F9722A3DAAFE3B4186F6B6457E0 SWAP1 DUP3 SWAP1 LOG3 POP PUSH1 0x0 DUP6 GT PUSH3 0x103 JUMPI PUSH1 0x40 MLOAD PUSH3 0x461BCD PUSH1 0xE5 SHL DUP2 MSTORE PUSH1 0x4 ADD DUP1 DUP1 PUSH1 0x20 ADD DUP3 DUP2 SUB DUP3 MSTORE PUSH1 0x2A DUP2 MSTORE PUSH1 0x20 ADD DUP1 PUSH3 0x3DE0 PUSH1 0x2A SWAP2 CODECOPY PUSH1 0x40 ADD SWAP2 POP POP PUSH1 0x40 MLOAD DUP1 SWAP2 SUB SWAP1 REVERT JUMPDEST DUP5 DUP5 GT PUSH3 0x143 JUMPI PUSH1 0x40 MLOAD PUSH3 0x461BCD PUSH1 0xE5 SHL DUP2 MSTORE PUSH1 0x4 ADD DUP1 DUP1 PUSH1 0x20 ADD DUP3 DUP2 SUB DUP3 MSTORE PUSH1 0x2C DUP2 MSTORE PUSH1 0x20 ADD DUP1 PUSH3 0x3E0A PUSH1 0x2C SWAP2 CODECOPY PUSH1 0x40 ADD SWAP2 POP POP PUSH1 0x40 MLOAD DUP1 SWAP2 SUB SWAP1 REVERT JUMPDEST PUSH1 0x7 SWAP5 SWAP1 SWAP5 SSTORE PUSH1 0x6 SWAP3 SWAP1 SWAP3 SSTORE PUSH1 0xA SSTORE NUMBER PUSH1 0x8 SSTORE PUSH1 0xF SSTORE PUSH1 0x10 SSTORE PUSH3 0x166 JUMP JUMPDEST CALLER SWAP1 JUMP JUMPDEST PUSH2 0x3C6A DUP1 PUSH3 0x176 PUSH1 0x0 CODECOPY PUSH1 0x0 RETURN INVALID PUSH1 0x80 PUSH1 0x40 MSTORE PUSH1 0x4 CALLDATASIZE LT PUSH2 0x2CD JUMPI PUSH1 0x0 CALLDATALOAD PUSH1 0xE0 SHR DUP1 PUSH4 0x8DA5CB5B GT PUSH2 0x175 JUMPI DUP1 PUSH4 0xC3289EAB GT PUSH2 0xDC JUMPI DUP1 PUSH4 0xD2890A01 GT PUSH2 0x95 JUMPI DUP1 PUSH4 0xE1DA8F58 GT PUSH2 0x6F JUMPI DUP1 PUSH4 0xE1DA8F58 EQ PUSH2 0xBD9 JUMPI DUP1 PUSH4 0xE270C9B2 EQ PUSH2 0xBEE JUMPI DUP1 PUSH4 0xF2FDE38B EQ PUSH2 0xC03 JUMPI DUP1 PUSH4 0xF690A3A3 EQ PUSH2 0xC36 JUMPI PUSH2 0x336 JUMP JUMPDEST DUP1 PUSH4 0xD2890A01 EQ PUSH2 0xB70 JUMPI DUP1 PUSH4 0xD431B1AC EQ PUSH2 0xB85 JUMPI DUP1 PUSH4 0xE18C81F1 EQ PUSH2 0xB9A JUMPI PUSH2 0x336 JUMP JUMPDEST DUP1 PUSH4 0xC3289EAB EQ PUSH2 0xA8B JUMPI DUP1 PUSH4 0xC3CEE9F3 EQ PUSH2 0xAA0 JUMPI DUP1 PUSH4 0xC600E1DC EQ PUSH2 0xAB5 JUMPI DUP1 PUSH4 0xCB7B2ECB EQ PUSH2 0xAE8 JUMPI DUP1 PUSH4 0xD0E30DB0 EQ PUSH2 0xB12 JUMPI DUP1 PUSH4 0xD216CE6F EQ PUSH2 0xB1A JUMPI PUSH2 0x336 JUMP JUMPDEST DUP1 PUSH4 0xA9F8D181 GT PUSH2 0x12E JUMPI DUP1 PUSH4 0xA9F8D181 EQ PUSH2 0x8E1 JUMPI DUP1 PUSH4 0xAD3CF89B EQ PUSH2 0x8F6 JUMPI DUP1 PUSH4 0xADD99BE8 EQ PUSH2 0x985 JUMPI DUP1 PUSH4 0xB230D698 EQ PUSH2 0x99A JUMPI DUP1 PUSH4 0xC13309C7 EQ PUSH2 0x9C4 JUMPI DUP1 PUSH4 0xC204642C EQ PUSH2 0x9D9 JUMPI PUSH2 0x336 JUMP JUMPDEST DUP1 PUSH4 0x8DA5CB5B EQ PUSH2 0x81B JUMPI DUP1 PUSH4 0x8E840CC9 EQ PUSH2 0x830 JUMPI DUP1 PUSH4 0x94896C5C EQ PUSH2 0x845 JUMPI DUP1 PUSH4 0x96A37AEE EQ PUSH2 0x878 JUMPI DUP1 PUSH4 0x993C3DD4 EQ PUSH2 0x8A2 JUMPI DUP1 PUSH4 0xA1B19EDA EQ PUSH2 0x8B7 JUMPI PUSH2 0x336 JUMP JUMPDEST DUP1 PUSH4 0x52CA75E7 GT PUSH2 0x234 JUMPI DUP1 PUSH4 0x6BDE0F1C GT PUSH2 0x1ED JUMPI DUP1 PUSH4 0x7399A8A1 GT PUSH2 0x1C7 JUMPI DUP1 PUSH4 0x7399A8A1 EQ PUSH2 0x759 JUMPI DUP1 PUSH4 0x78E2DBA6 EQ PUSH2 0x7B8 JUMPI DUP1 PUSH4 0x79599F96 EQ PUSH2 0x7CD JUMPI DUP1 PUSH4 0x7FD22E39 EQ PUSH2 0x7E2 JUMPI PUSH2 0x336 JUMP JUMPDEST DUP1 PUSH4 0x6BDE0F1C EQ PUSH2 0x6DE JUMPI DUP1 PUSH4 0x6FF1C9BC EQ PUSH2 0x711 JUMPI DUP1 PUSH4 0x715018A6 EQ PUSH2 0x744 JUMPI PUSH2 0x336 JUMP JUMPDEST DUP1 PUSH4 0x52CA75E7 EQ PUSH2 0x582 JUMPI DUP1 PUSH4 0x5C975ABB EQ PUSH2 0x5D0 JUMPI DUP1 PUSH4 0x60F62506 EQ PUSH2 0x5F9 JUMPI DUP1 PUSH4 0x61A9AB35 EQ PUSH2 0x629 JUMPI DUP1 PUSH4 0x62479BE7 EQ PUSH2 0x65C JUMPI DUP1 PUSH4 0x6386C1C7 EQ PUSH2 0x671 JUMPI PUSH2 0x336 JUMP JUMPDEST DUP1 PUSH4 0x32C27052 GT PUSH2 0x286 JUMPI DUP1 PUSH4 0x32C27052 EQ PUSH2 0x45E JUMPI DUP1 PUSH4 0x3755C71D EQ PUSH2 0x488 JUMPI DUP1 PUSH4 0x46A0DA8E EQ PUSH2 0x49D JUMPI DUP1 PUSH4 0x47C85634 EQ PUSH2 0x4E9 JUMPI DUP1 PUSH4 0x48C3A2D8 EQ PUSH2 0x51C JUMPI DUP1 PUSH4 0x522A0744 EQ PUSH2 0x54F JUMPI PUSH2 0x336 JUMP JUMPDEST DUP1 PUSH4 0xF6FE11D EQ PUSH2 0x33B JUMPI DUP1 PUSH4 0x1A39D8EF EQ PUSH2 0x36E JUMPI DUP1 PUSH4 0x256DA24F EQ PUSH2 0x395 JUMPI DUP1 PUSH4 0x2E1A7D4D EQ PUSH2 0x3AA JUMPI DUP1 PUSH4 0x2EE72E18 EQ PUSH2 0x3D4 JUMPI DUP1 PUSH4 0x2F4C3F62 EQ PUSH2 0x405 JUMPI PUSH2 0x336 JUMP JUMPDEST CALLDATASIZE PUSH2 0x336 JUMPI PUSH2 0x2DA PUSH2 0xC69 JUMP JUMPDEST PUSH1 0x1 PUSH1 0x1 PUSH1 0xA0 SHL SUB AND PUSH2 0x2EB PUSH2 0xC6D JUMP JUMPDEST PUSH1 0x1 PUSH1 0x1 PUSH1 0xA0 SHL SUB AND EQ PUSH2 0x334 JUMPI PUSH1 0x40 DUP1 MLOAD PUSH3 0x461BCD PUSH1 0xE5 SHL DUP2 MSTORE PUSH1 0x20 PUSH1 0x4 DUP3 ADD DUP2 SWAP1 MSTORE PUSH1 0x24 DUP3 ADD MSTORE PUSH1 0x0 DUP1 MLOAD PUSH1 0x20 PUSH2 0x3BCD DUP4 CODECOPY DUP2 MLOAD SWAP2 MSTORE PUSH1 0x44 DUP3 ADD MSTORE SWAP1 MLOAD SWAP1 DUP2 SWAP1 SUB PUSH1 0x64 ADD SWAP1 REVERT JUMPDEST STOP JUMPDEST PUSH1 0x0 DUP1 REVERT JUMPDEST CALLVALUE DUP1 ISZERO PUSH2 0x347 JUMPI PUSH1 0x0 DUP1 REVERT JUMPDEST POP PUSH2 0x334 PUSH1 0x4 DUP1 CALLDATASIZE SUB PUSH1 0x20 DUP2 LT ISZERO PUSH2 0x35E JUMPI PUSH1 0x0 DUP1 REVERT JUMPDEST POP CALLDATALOAD PUSH1 0x1 PUSH1 0x1 PUSH1 0xA0 SHL SUB AND PUSH2 0xC7C JUMP JUMPDEST CALLVALUE DUP1 ISZERO PUSH2 0x37A JUMPI PUSH1 0x0 DUP1 REVERT JUMPDEST POP PUSH2 0x383 PUSH2 0xD4A JUMP JUMPDEST PUSH1 0x40 DUP1 MLOAD SWAP2 DUP3 MSTORE MLOAD SWAP1 DUP2 SWAP1 SUB PUSH1 0x20 ADD SWAP1 RETURN JUMPDEST CALLVALUE DUP1 ISZERO PUSH2 0x3A1 JUMPI PUSH1 0x0 DUP1 REVERT JUMPDEST POP PUSH2 0x383 PUSH2 0xD50 JUMP JUMPDEST CALLVALUE DUP1 ISZERO PUSH2 0x3B6 JUMPI PUSH1 0x0 DUP1 REVERT JUMPDEST POP PUSH2 0x334 PUSH1 0x4 DUP1 CALLDATASIZE SUB PUSH1 0x20 DUP2 LT ISZERO PUSH2 0x3CD JUMPI PUSH1 0x0 DUP1 REVERT JUMPDEST POP CALLDATALOAD PUSH2 0xD56 JUMP JUMPDEST CALLVALUE DUP1 ISZERO PUSH2 0x3E0 JUMPI PUSH1 0x0 DUP1 REVERT JUMPDEST POP PUSH2 0x3E9 PUSH2 0x10BF JUMP JUMPDEST PUSH1 0x40 DUP1 MLOAD PUSH1 0x1 PUSH1 0x1 PUSH1 0xA0 SHL SUB SWAP1 SWAP3 AND DUP3 MSTORE MLOAD SWAP1 DUP2 SWAP1 SUB PUSH1 0x20 ADD SWAP1 RETURN JUMPDEST CALLVALUE DUP1 ISZERO PUSH2 0x411 JUMPI PUSH1 0x0 DUP1 REVERT JUMPDEST POP PUSH2 0x42F PUSH1 0x4 DUP1 CALLDATASIZE SUB PUSH1 0x20 DUP2 LT ISZERO PUSH2 0x428 JUMPI PUSH1 0x0 DUP1 REVERT JUMPDEST POP CALLDATALOAD PUSH2 0x10CE JUMP JUMPDEST PUSH1 0x40 MLOAD DUP1 DUP4 PUSH1 0x1 PUSH1 0x1 PUSH1 0xA0 SHL SUB AND DUP2 MSTORE PUSH1 0x20 ADD DUP3 PUSH1 0x1 PUSH1 0x1 PUSH1 0xA0 SHL SUB AND DUP2 MSTORE PUSH1 0x20 ADD SWAP3 POP POP POP PUSH1 0x40 MLOAD DUP1 SWAP2 SUB SWAP1 RETURN JUMPDEST CALLVALUE DUP1 ISZERO PUSH2 0x46A JUMPI PUSH1 0x0 DUP1 REVERT JUMPDEST POP PUSH2 0x334 PUSH1 0x4 DUP1 CALLDATASIZE SUB PUSH1 0x20 DUP2 LT ISZERO PUSH2 0x481 JUMPI PUSH1 0x0 DUP1 REVERT JUMPDEST POP CALLDATALOAD PUSH2 0x10E6 JUMP JUMPDEST CALLVALUE DUP1 ISZERO PUSH2 0x494 JUMPI PUSH1 0x0 DUP1 REVERT JUMPDEST POP PUSH2 0x383 PUSH2 0x114D JUMP JUMPDEST CALLVALUE DUP1 ISZERO PUSH2 0x4A9 JUMPI PUSH1 0x0 DUP1 REVERT JUMPDEST POP PUSH2 0x4D0 PUSH1 0x4 DUP1 CALLDATASIZE SUB PUSH1 0x20 DUP2 LT ISZERO PUSH2 0x4C0 JUMPI PUSH1 0x0 DUP1 REVERT JUMPDEST POP CALLDATALOAD PUSH1 0x1 PUSH1 0x1 PUSH1 0xA0 SHL SUB AND PUSH2 0x1153 JUMP JUMPDEST PUSH1 0x40 DUP1 MLOAD SWAP3 DUP4 MSTORE PUSH1 0x20 DUP4 ADD SWAP2 SWAP1 SWAP2 MSTORE DUP1 MLOAD SWAP2 DUP3 SWAP1 SUB ADD SWAP1 RETURN JUMPDEST CALLVALUE DUP1 ISZERO PUSH2 0x4F5 JUMPI PUSH1 0x0 DUP1 REVERT JUMPDEST POP PUSH2 0x334 PUSH1 0x4 DUP1 CALLDATASIZE SUB PUSH1 0x20 DUP2 LT ISZERO PUSH2 0x50C JUMPI PUSH1 0x0 DUP1 REVERT JUMPDEST POP CALLDATALOAD PUSH1 0x1 PUSH1 0x1 PUSH1 0xA0 SHL SUB AND PUSH2 0x11B7 JUMP JUMPDEST CALLVALUE DUP1 ISZERO PUSH2 0x528 JUMPI PUSH1 0x0 DUP1 REVERT JUMPDEST POP PUSH2 0x383 PUSH1 0x4 DUP1 CALLDATASIZE SUB PUSH1 0x20 DUP2 LT ISZERO PUSH2 0x53F JUMPI PUSH1 0x0 DUP1 REVERT JUMPDEST POP CALLDATALOAD PUSH1 0x1 PUSH1 0x1 PUSH1 0xA0 SHL SUB AND PUSH2 0x1285 JUMP JUMPDEST CALLVALUE DUP1 ISZERO PUSH2 0x55B JUMPI PUSH1 0x0 DUP1 REVERT JUMPDEST POP PUSH2 0x383 PUSH1 0x4 DUP1 CALLDATASIZE SUB PUSH1 0x20 DUP2 LT ISZERO PUSH2 0x572 JUMPI PUSH1 0x0 DUP1 REVERT JUMPDEST POP CALLDATALOAD PUSH1 0x1 PUSH1 0x1 PUSH1 0xA0 SHL SUB AND PUSH2 0x1297 JUMP JUMPDEST CALLVALUE DUP1 ISZERO PUSH2 0x58E JUMPI PUSH1 0x0 DUP1 REVERT JUMPDEST POP PUSH2 0x5B5 PUSH1 0x4 DUP1 CALLDATASIZE SUB PUSH1 0x20 DUP2 LT ISZERO PUSH2 0x5A5 JUMPI PUSH1 0x0 DUP1 REVERT JUMPDEST POP CALLDATALOAD PUSH1 0x1 PUSH1 0x1 PUSH1 0xA0 SHL SUB AND PUSH2 0x12A9 JUMP JUMPDEST PUSH1 0x40 DUP1 MLOAD SWAP3 ISZERO ISZERO DUP4 MSTORE PUSH1 0x20 DUP4 ADD SWAP2 SWAP1 SWAP2 MSTORE DUP1 MLOAD SWAP2 DUP3 SWAP1 SUB ADD SWAP1 RETURN JUMPDEST CALLVALUE DUP1 ISZERO PUSH2 0x5DC JUMPI PUSH1 0x0 DUP1 REVERT JUMPDEST POP PUSH2 0x5E5 PUSH2 0x1372 JUMP JUMPDEST PUSH1 0x40 DUP1 MLOAD SWAP2 ISZERO ISZERO DUP3 MSTORE MLOAD SWAP1 DUP2 SWAP1 SUB PUSH1 0x20 ADD SWAP1 RETURN JUMPDEST CALLVALUE DUP1 ISZERO PUSH2 0x605 JUMPI PUSH1 0x0 DUP1 REVERT JUMPDEST POP PUSH2 0x334 PUSH1 0x4 DUP1 CALLDATASIZE SUB PUSH1 0x40 DUP2 LT ISZERO PUSH2 0x61C JUMPI PUSH1 0x0 DUP1 REVERT JUMPDEST POP DUP1 CALLDATALOAD SWAP1 PUSH1 0x20 ADD CALLDATALOAD PUSH2 0x1382 JUMP JUMPDEST CALLVALUE DUP1 ISZERO PUSH2 0x635 JUMPI PUSH1 0x0 DUP1 REVERT JUMPDEST POP PUSH2 0x334 PUSH1 0x4 DUP1 CALLDATASIZE SUB PUSH1 0x20 DUP2 LT ISZERO PUSH2 0x64C JUMPI PUSH1 0x0 DUP1 REVERT JUMPDEST POP CALLDATALOAD PUSH1 0x1 PUSH1 0x1 PUSH1 0xA0 SHL SUB AND PUSH2 0x146C JUMP JUMPDEST CALLVALUE DUP1 ISZERO PUSH2 0x668 JUMPI PUSH1 0x0 DUP1 REVERT JUMPDEST POP PUSH2 0x383 PUSH2 0x17A1 JUMP JUMPDEST CALLVALUE DUP1 ISZERO PUSH2 0x67D JUMPI PUSH1 0x0 DUP1 REVERT JUMPDEST POP PUSH2 0x6A4 PUSH1 0x4 DUP1 CALLDATASIZE SUB PUSH1 0x20 DUP2 LT ISZERO PUSH2 0x694 JUMPI PUSH1 0x0 DUP1 REVERT JUMPDEST POP CALLDATALOAD PUSH1 0x1 PUSH1 0x1 PUSH1 0xA0 SHL SUB AND PUSH2 0x180A JUMP JUMPDEST PUSH1 0x40 DUP1 MLOAD SWAP8 ISZERO ISZERO DUP9 MSTORE SWAP6 ISZERO ISZERO PUSH1 0x20 DUP9 ADD MSTORE DUP7 DUP7 ADD SWAP5 SWAP1 SWAP5 MSTORE PUSH1 0x60 DUP7 ADD SWAP3 SWAP1 SWAP3 MSTORE PUSH1 0x80 DUP6 ADD MSTORE PUSH1 0xA0 DUP5 ADD MSTORE PUSH1 0xC0 DUP4 ADD MSTORE MLOAD SWAP1 DUP2 SWAP1 SUB PUSH1 0xE0 ADD SWAP1 RETURN JUMPDEST CALLVALUE DUP1 ISZERO PUSH2 0x6EA JUMPI PUSH1 0x0 DUP1 REVERT JUMPDEST POP PUSH2 0x5E5 PUSH1 0x4 DUP1 CALLDATASIZE SUB PUSH1 0x20 DUP2 LT ISZERO PUSH2 0x701 JUMPI PUSH1 0x0 DUP1 REVERT JUMPDEST POP CALLDATALOAD PUSH1 0x1 PUSH1 0x1 PUSH1 0xA0 SHL SUB AND PUSH2 0x18FD JUMP JUMPDEST CALLVALUE DUP1 ISZERO PUSH2 0x71D JUMPI PUSH1 0x0 DUP1 REVERT JUMPDEST POP PUSH2 0x334 PUSH1 0x4 DUP1 CALLDATASIZE SUB PUSH1 0x20 DUP2 LT ISZERO PUSH2 0x734 JUMPI PUSH1 0x0 DUP1 REVERT JUMPDEST POP CALLDATALOAD PUSH1 0x1 PUSH1 0x1 PUSH1 0xA0 SHL SUB AND PUSH2 0x19B6 JUMP JUMPDEST CALLVALUE DUP1 ISZERO PUSH2 0x750 JUMPI PUSH1 0x0 DUP1 REVERT JUMPDEST POP PUSH2 0x334 PUSH2 0x1C01 JUMP JUMPDEST CALLVALUE DUP1 ISZERO PUSH2 0x765 JUMPI PUSH1 0x0 DUP1 REVERT JUMPDEST POP PUSH2 0x783 PUSH1 0x4 DUP1 CALLDATASIZE SUB PUSH1 0x20 DUP2 LT ISZERO PUSH2 0x77C JUMPI PUSH1 0x0 DUP1 REVERT JUMPDEST POP CALLDATALOAD PUSH2 0x1CAD JUMP JUMPDEST PUSH1 0x40 DUP1 MLOAD SWAP7 ISZERO ISZERO DUP8 MSTORE PUSH1 0x20 DUP8 ADD SWAP6 SWAP1 SWAP6 MSTORE DUP6 DUP6 ADD SWAP4 SWAP1 SWAP4 MSTORE PUSH1 0x60 DUP6 ADD SWAP2 SWAP1 SWAP2 MSTORE PUSH1 0x80 DUP5 ADD MSTORE PUSH1 0xA0 DUP4 ADD MSTORE MLOAD SWAP1 DUP2 SWAP1 SUB PUSH1 0xC0 ADD SWAP1 RETURN JUMPDEST CALLVALUE DUP1 ISZERO PUSH2 0x7C4 JUMPI PUSH1 0x0 DUP1 REVERT JUMPDEST POP PUSH2 0x383 PUSH2 0x1CF7 JUMP JUMPDEST CALLVALUE DUP1 ISZERO PUSH2 0x7D9 JUMPI PUSH1 0x0 DUP1 REVERT JUMPDEST POP PUSH2 0x383 PUSH2 0x1CFD JUMP JUMPDEST CALLVALUE DUP1 ISZERO PUSH2 0x7EE JUMPI PUSH1 0x0 DUP1 REVERT JUMPDEST POP PUSH2 0x3E9 PUSH1 0x4 DUP1 CALLDATASIZE SUB PUSH1 0x40 DUP2 LT ISZERO PUSH2 0x805 JUMPI PUSH1 0x0 DUP1 REVERT JUMPDEST POP PUSH1 0x1 PUSH1 0x1 PUSH1 0xA0 SHL SUB DUP2 CALLDATALOAD AND SWAP1 PUSH1 0x20 ADD CALLDATALOAD PUSH2 0x1D03 JUMP JUMPDEST CALLVALUE DUP1 ISZERO PUSH2 0x827 JUMPI PUSH1 0x0 DUP1 REVERT JUMPDEST POP PUSH2 0x3E9 PUSH2 0xC6D JUMP JUMPDEST CALLVALUE DUP1 ISZERO PUSH2 0x83C JUMPI PUSH1 0x0 DUP1 REVERT JUMPDEST POP PUSH2 0x3E9 PUSH2 0x1D8B JUMP JUMPDEST CALLVALUE DUP1 ISZERO PUSH2 0x851 JUMPI PUSH1 0x0 DUP1 REVERT JUMPDEST POP PUSH2 0x383 PUSH1 0x4 DUP1 CALLDATASIZE SUB PUSH1 0x20 DUP2 LT ISZERO PUSH2 0x868 JUMPI PUSH1 0x0 DUP1 REVERT JUMPDEST POP CALLDATALOAD PUSH1 0x1 PUSH1 0x1 PUSH1 0xA0 SHL SUB AND PUSH2 0x1D9A JUMP JUMPDEST CALLVALUE DUP1 ISZERO PUSH2 0x884 JUMPI PUSH1 0x0 DUP1 REVERT JUMPDEST POP PUSH2 0x334 PUSH1 0x4 DUP1 CALLDATASIZE SUB PUSH1 0x20 DUP2 LT ISZERO PUSH2 0x89B JUMPI PUSH1 0x0 DUP1 REVERT JUMPDEST POP CALLDATALOAD PUSH2 0x1DBB JUMP JUMPDEST CALLVALUE DUP1 ISZERO PUSH2 0x8AE JUMPI PUSH1 0x0 DUP1 REVERT JUMPDEST POP PUSH2 0x383 PUSH2 0x1EA3 JUMP JUMPDEST CALLVALUE DUP1 ISZERO PUSH2 0x8C3 JUMPI PUSH1 0x0 DUP1 REVERT JUMPDEST POP PUSH2 0x334 PUSH1 0x4 DUP1 CALLDATASIZE SUB PUSH1 0x20 DUP2 LT ISZERO PUSH2 0x8DA JUMPI PUSH1 0x0 DUP1 REVERT JUMPDEST POP CALLDATALOAD PUSH2 0x1EA9 JUMP JUMPDEST CALLVALUE DUP1 ISZERO PUSH2 0x8ED JUMPI PUSH1 0x0 DUP1 REVERT JUMPDEST POP PUSH2 0x383 PUSH2 0x1F10 JUMP JUMPDEST CALLVALUE DUP1 ISZERO PUSH2 0x902 JUMPI PUSH1 0x0 DUP1 REVERT JUMPDEST POP PUSH2 0x935 PUSH1 0x4 DUP1 CALLDATASIZE SUB PUSH1 0x60 DUP2 LT ISZERO PUSH2 0x919 JUMPI PUSH1 0x0 DUP1 REVERT JUMPDEST POP DUP1 CALLDATALOAD SWAP1 PUSH1 0x20 DUP2 ADD CALLDATALOAD SWAP1 PUSH1 0x40 ADD CALLDATALOAD PUSH1 0x1 PUSH1 0x1 PUSH1 0xA0 SHL SUB AND PUSH2 0x1F16 JUMP JUMPDEST PUSH1 0x40 DUP1 MLOAD PUSH1 0x20 DUP1 DUP3 MSTORE DUP4 MLOAD DUP2 DUP4 ADD MSTORE DUP4 MLOAD SWAP2 SWAP3 DUP4 SWAP3 SWAP1 DUP4 ADD SWAP2 DUP6 DUP2 ADD SWAP2 MUL DUP1 DUP4 DUP4 PUSH1 0x0 JUMPDEST DUP4 DUP2 LT ISZERO PUSH2 0x971 JUMPI DUP2 DUP2 ADD MLOAD DUP4 DUP3 ADD MSTORE PUSH1 0x20 ADD PUSH2 0x959 JUMP JUMPDEST POP POP POP POP SWAP1 POP ADD SWAP3 POP POP POP PUSH1 0x40 MLOAD DUP1 SWAP2 SUB SWAP1 RETURN JUMPDEST CALLVALUE DUP1 ISZERO PUSH2 0x991 JUMPI PUSH1 0x0 DUP1 REVERT JUMPDEST POP PUSH2 0x383 PUSH2 0x211D JUMP JUMPDEST CALLVALUE DUP1 ISZERO PUSH2 0x9A6 JUMPI PUSH1 0x0 DUP1 REVERT JUMPDEST POP PUSH2 0x334 PUSH1 0x4 DUP1 CALLDATASIZE SUB PUSH1 0x20 DUP2 LT ISZERO PUSH2 0x9BD JUMPI PUSH1 0x0 DUP1 REVERT JUMPDEST POP CALLDATALOAD PUSH2 0x2123 JUMP JUMPDEST CALLVALUE DUP1 ISZERO PUSH2 0x9D0 JUMPI PUSH1 0x0 DUP1 REVERT JUMPDEST POP PUSH2 0x383 PUSH2 0x2192 JUMP JUMPDEST CALLVALUE DUP1 ISZERO PUSH2 0x9E5 JUMPI PUSH1 0x0 DUP1 REVERT JUMPDEST POP PUSH2 0x334 PUSH1 0x4 DUP1 CALLDATASIZE SUB PUSH1 0x40 DUP2 LT ISZERO PUSH2 0x9FC JUMPI PUSH1 0x0 DUP1 REVERT JUMPDEST DUP2 ADD SWAP1 PUSH1 0x20 DUP2 ADD DUP2 CALLDATALOAD PUSH5 0x100000000 DUP2 GT ISZERO PUSH2 0xA17 JUMPI PUSH1 0x0 DUP1 REVERT JUMPDEST DUP3 ADD DUP4 PUSH1 0x20 DUP3 ADD GT ISZERO PUSH2 0xA29 JUMPI PUSH1 0x0 DUP1 REVERT JUMPDEST DUP1 CALLDATALOAD SWAP1 PUSH1 0x20 ADD SWAP2 DUP5 PUSH1 0x20 DUP4 MUL DUP5 ADD GT PUSH5 0x100000000 DUP4 GT OR ISZERO PUSH2 0xA4B JUMPI PUSH1 0x0 DUP1 REVERT JUMPDEST SWAP2 SWAP1 DUP1 DUP1 PUSH1 0x20 MUL PUSH1 0x20 ADD PUSH1 0x40 MLOAD SWAP1 DUP2 ADD PUSH1 0x40 MSTORE DUP1 SWAP4 SWAP3 SWAP2 SWAP1 DUP2 DUP2 MSTORE PUSH1 0x20 ADD DUP4 DUP4 PUSH1 0x20 MUL DUP1 DUP3 DUP5 CALLDATACOPY PUSH1 0x0 SWAP3 ADD SWAP2 SWAP1 SWAP2 MSTORE POP SWAP3 SWAP6 POP POP SWAP2 CALLDATALOAD SWAP3 POP PUSH2 0x2198 SWAP2 POP POP JUMP JUMPDEST CALLVALUE DUP1 ISZERO PUSH2 0xA97 JUMPI PUSH1 0x0 DUP1 REVERT JUMPDEST POP PUSH2 0x383 PUSH2 0x2353 JUMP JUMPDEST CALLVALUE DUP1 ISZERO PUSH2 0xAAC JUMPI PUSH1 0x0 DUP1 REVERT JUMPDEST POP PUSH2 0x383 PUSH2 0x2364 JUMP JUMPDEST CALLVALUE DUP1 ISZERO PUSH2 0xAC1 JUMPI PUSH1 0x0 DUP1 REVERT JUMPDEST POP PUSH2 0x383 PUSH1 0x4 DUP1 CALLDATASIZE SUB PUSH1 0x20 DUP2 LT ISZERO PUSH2 0xAD8 JUMPI PUSH1 0x0 DUP1 REVERT JUMPDEST POP CALLDATALOAD PUSH1 0x1 PUSH1 0x1 PUSH1 0xA0 SHL SUB AND PUSH2 0x236A JUMP JUMPDEST CALLVALUE DUP1 ISZERO PUSH2 0xAF4 JUMPI PUSH1 0x0 DUP1 REVERT JUMPDEST POP PUSH2 0x334 PUSH1 0x4 DUP1 CALLDATASIZE SUB PUSH1 0x20 DUP2 LT ISZERO PUSH2 0xB0B JUMPI PUSH1 0x0 DUP1 REVERT JUMPDEST POP CALLDATALOAD PUSH2 0x24C3 JUMP JUMPDEST PUSH2 0x334 PUSH2 0x252A JUMP JUMPDEST CALLVALUE DUP1 ISZERO PUSH2 0xB26 JUMPI PUSH1 0x0 DUP1 REVERT JUMPDEST POP PUSH2 0xB4D PUSH1 0x4 DUP1 CALLDATASIZE SUB PUSH1 0x20 DUP2 LT ISZERO PUSH2 0xB3D JUMPI PUSH1 0x0 DUP1 REVERT JUMPDEST POP CALLDATALOAD PUSH1 0x1 PUSH1 0x1 PUSH1 0xA0 SHL SUB AND PUSH2 0x2650 JUMP JUMPDEST PUSH1 0x40 DUP1 MLOAD SWAP3 ISZERO ISZERO DUP4 MSTORE PUSH1 0x1 PUSH1 0x1 PUSH1 0xA0 SHL SUB SWAP1 SWAP2 AND PUSH1 0x20 DUP4 ADD MSTORE DUP1 MLOAD SWAP2 DUP3 SWAP1 SUB ADD SWAP1 RETURN JUMPDEST CALLVALUE DUP1 ISZERO PUSH2 0xB7C JUMPI PUSH1 0x0 DUP1 REVERT JUMPDEST POP PUSH2 0x383 PUSH2 0x265E JUMP JUMPDEST CALLVALUE DUP1 ISZERO PUSH2 0xB91 JUMPI PUSH1 0x0 DUP1 REVERT JUMPDEST POP PUSH2 0x334 PUSH2 0x2664 JUMP JUMPDEST CALLVALUE DUP1 ISZERO PUSH2 0xBA6 JUMPI PUSH1 0x0 DUP1 REVERT JUMPDEST POP PUSH2 0x935 PUSH1 0x4 DUP1 CALLDATASIZE SUB PUSH1 0x60 DUP2 LT ISZERO PUSH2 0xBBD JUMPI PUSH1 0x0 DUP1 REVERT JUMPDEST POP DUP1 CALLDATALOAD SWAP1 PUSH1 0x20 DUP2 ADD CALLDATALOAD SWAP1 PUSH1 0x40 ADD CALLDATALOAD PUSH1 0x1 PUSH1 0x1 PUSH1 0xA0 SHL SUB AND PUSH2 0x26E7 JUMP JUMPDEST CALLVALUE DUP1 ISZERO PUSH2 0xBE5 JUMPI PUSH1 0x0 DUP1 REVERT JUMPDEST POP PUSH2 0x383 PUSH2 0x2861 JUMP JUMPDEST CALLVALUE DUP1 ISZERO PUSH2 0xBFA JUMPI PUSH1 0x0 DUP1 REVERT JUMPDEST POP PUSH2 0x383 PUSH2 0x286D JUMP JUMPDEST CALLVALUE DUP1 ISZERO PUSH2 0xC0F JUMPI PUSH1 0x0 DUP1 REVERT JUMPDEST POP PUSH2 0x334 PUSH1 0x4 DUP1 CALLDATASIZE SUB PUSH1 0x20 DUP2 LT ISZERO PUSH2 0xC26 JUMPI PUSH1 0x0 DUP1 REVERT JUMPDEST POP CALLDATALOAD PUSH1 0x1 PUSH1 0x1 PUSH1 0xA0 SHL SUB AND PUSH2 0x2873 JUMP JUMPDEST CALLVALUE DUP1 ISZERO PUSH2 0xC42 JUMPI PUSH1 0x0 DUP1 REVERT JUMPDEST POP PUSH2 0x5E5 PUSH1 0x4 DUP1 CALLDATASIZE SUB PUSH1 0x20 DUP2 LT ISZERO PUSH2 0xC59 JUMPI PUSH1 0x0 DUP1 REVERT JUMPDEST POP CALLDATALOAD PUSH1 0x1 PUSH1 0x1 PUSH1 0xA0 SHL SUB AND PUSH2 0x2976 JUMP JUMPDEST CALLER SWAP1 JUMP JUMPDEST PUSH1 0x3 SLOAD PUSH1 0x1 PUSH1 0x1 PUSH1 0xA0 SHL SUB AND SWAP1 JUMP JUMPDEST PUSH2 0xC84 PUSH2 0xC69 JUMP JUMPDEST PUSH1 0x1 PUSH1 0x1 PUSH1 0xA0 SHL SUB AND PUSH2 0xC95 PUSH2 0xC6D JUMP JUMPDEST PUSH1 0x1 PUSH1 0x1 PUSH1 0xA0 SHL SUB AND EQ PUSH2 0xCDE JUMPI PUSH1 0x40 DUP1 MLOAD PUSH3 0x461BCD PUSH1 0xE5 SHL DUP2 MSTORE PUSH1 0x20 PUSH1 0x4 DUP3 ADD DUP2 SWAP1 MSTORE PUSH1 0x24 DUP3 ADD MSTORE PUSH1 0x0 DUP1 MLOAD PUSH1 0x20 PUSH2 0x3BCD DUP4 CODECOPY DUP2 MLOAD SWAP2 MSTORE PUSH1 0x44 DUP3 ADD MSTORE SWAP1 MLOAD SWAP1 DUP2 SWAP1 SUB PUSH1 0x64 ADD SWAP1 REVERT JUMPDEST PUSH1 0x1 PUSH1 0x1 PUSH1 0xA0 SHL SUB DUP2 AND PUSH2 0xD28 JUMPI PUSH1 0x40 DUP1 MLOAD PUSH3 0x461BCD PUSH1 0xE5 SHL DUP2 MSTORE PUSH1 0x20 PUSH1 0x4 DUP3 ADD MSTORE PUSH1 0xC PUSH1 0x24 DUP3 ADD MSTORE PUSH12 0x5A65726F2061646472657373 PUSH1 0xA0 SHL PUSH1 0x44 DUP3 ADD MSTORE SWAP1 MLOAD SWAP1 DUP2 SWAP1 SUB PUSH1 0x64 ADD SWAP1 REVERT JUMPDEST PUSH1 0x4 DUP1 SLOAD PUSH1 0x1 PUSH1 0x1 PUSH1 0xA0 SHL SUB NOT AND PUSH1 0x1 PUSH1 0x1 PUSH1 0xA0 SHL SUB SWAP3 SWAP1 SWAP3 AND SWAP2 SWAP1 SWAP2 OR SWAP1 SSTORE JUMP JUMPDEST PUSH1 0xC SLOAD DUP2 JUMP JUMPDEST PUSH1 0x12 SLOAD SWAP1 JUMP JUMPDEST PUSH1 0x3 SLOAD PUSH1 0x1 PUSH1 0xA0 SHL SWAP1 DIV PUSH1 0xFF AND ISZERO PUSH2 0xDB0 JUMPI PUSH1 0x40 DUP1 MLOAD PUSH3 0x461BCD PUSH1 0xE5 SHL DUP2 MSTORE PUSH1 0x20 PUSH1 0x4 DUP3 ADD MSTORE PUSH1 0x18 PUSH1 0x24 DUP3 ADD MSTORE PUSH24 0x14DD185AD9481A185CC81899595B881CDD5CDC195B991959 PUSH1 0x42 SHL PUSH1 0x44 DUP3 ADD MSTORE SWAP1 MLOAD SWAP1 DUP2 SWAP1 SUB PUSH1 0x64 ADD SWAP1 REVERT JUMPDEST PUSH2 0xDB8 PUSH2 0x2A2E JUMP JUMPDEST CALLER PUSH1 0x0 SWAP1 DUP2 MSTORE PUSH1 0x11 PUSH1 0x20 MSTORE PUSH1 0x40 SWAP1 KECCAK256 SLOAD DUP1 PUSH2 0xDD3 JUMPI POP PUSH2 0x10BC JUMP JUMPDEST PUSH1 0x0 PUSH1 0x12 PUSH1 0x1 DUP4 SUB DUP2 SLOAD DUP2 LT PUSH2 0xDE5 JUMPI INVALID JUMPDEST SWAP1 PUSH1 0x0 MSTORE PUSH1 0x20 PUSH1 0x0 KECCAK256 SWAP1 PUSH1 0x6 MUL ADD SWAP1 POP PUSH1 0x0 DUP2 PUSH1 0x1 ADD SLOAD GT DUP1 ISZERO PUSH2 0xE0D JUMPI POP DUP3 DUP2 PUSH1 0x1 ADD SLOAD LT ISZERO JUMPDEST PUSH2 0xE5E JUMPI PUSH1 0x40 DUP1 MLOAD PUSH3 0x461BCD PUSH1 0xE5 SHL DUP2 MSTORE PUSH1 0x20 PUSH1 0x4 DUP3 ADD MSTORE PUSH1 0x19 PUSH1 0x24 DUP3 ADD MSTORE PUSH32 0x54686572652773206E6F7420656E6F756768207374616B656400000000000000 PUSH1 0x44 DUP3 ADD MSTORE SWAP1 MLOAD SWAP1 DUP2 SWAP1 SUB PUSH1 0x64 ADD SWAP1 REVERT JUMPDEST PUSH1 0x0 PUSH2 0xE99 DUP3 PUSH1 0x5 ADD SLOAD PUSH2 0xE93 PUSH8 0xDE0B6B3A7640000 PUSH2 0xE8D PUSH1 0xB SLOAD DUP8 PUSH1 0x1 ADD SLOAD PUSH2 0x2A89 SWAP1 SWAP2 SWAP1 PUSH4 0xFFFFFFFF AND JUMP JUMPDEST SWAP1 PUSH2 0x2AE2 JUMP JUMPDEST SWAP1 PUSH2 0x2B49 JUMP JUMPDEST SWAP1 POP PUSH1 0x10 SLOAD PUSH1 0x0 EQ ISZERO PUSH2 0xEAE JUMPI POP PUSH1 0x0 PUSH2 0xEBD JUMP JUMPDEST PUSH1 0x10 SLOAD DUP2 GT ISZERO PUSH2 0xEBD JUMPI POP PUSH1 0x10 SLOAD JUMPDEST PUSH2 0xEC6 DUP2 PUSH2 0x2BA6 JUMP JUMPDEST DUP4 ISZERO PUSH2 0x1035 JUMPI DUP2 PUSH1 0x4 ADD SLOAD NUMBER LT ISZERO PUSH2 0xF25 JUMPI PUSH1 0x40 DUP1 MLOAD PUSH3 0x461BCD PUSH1 0xE5 SHL DUP2 MSTORE PUSH1 0x20 PUSH1 0x4 DUP3 ADD MSTORE PUSH1 0x18 PUSH1 0x24 DUP3 ADD MSTORE PUSH32 0x49742773207374696C6C20756E646572207374616B696E670000000000000000 PUSH1 0x44 DUP3 ADD MSTORE SWAP1 MLOAD SWAP1 DUP2 SWAP1 SUB PUSH1 0x64 ADD SWAP1 REVERT JUMPDEST PUSH1 0x1 DUP3 ADD SLOAD PUSH2 0xF34 SWAP1 DUP6 PUSH2 0x2B49 JUMP JUMPDEST PUSH1 0x1 DUP4 ADD SSTORE PUSH1 0xC SLOAD PUSH2 0xF46 SWAP1 DUP6 PUSH2 0x2B49 JUMP JUMPDEST PUSH1 0xC SSTORE PUSH1 0x40 MLOAD CALLER SWAP1 DUP6 ISZERO PUSH2 0x8FC MUL SWAP1 DUP7 SWAP1 PUSH1 0x0 DUP2 DUP2 DUP2 DUP6 DUP9 DUP9 CALL SWAP4 POP POP POP POP ISZERO DUP1 ISZERO PUSH2 0xF76 JUMPI RETURNDATASIZE PUSH1 0x0 DUP1 RETURNDATACOPY RETURNDATASIZE PUSH1 0x0 REVERT JUMPDEST POP PUSH1 0x40 DUP1 MLOAD DUP6 DUP2 MSTORE SWAP1 MLOAD CALLER SWAP2 PUSH32 0x884EDAD9CE6FA2440D8A54CC123490EB96D2768479D49FF9C7366125A9424364 SWAP2 SWAP1 DUP2 SWAP1 SUB PUSH1 0x20 ADD SWAP1 LOG2 DUP1 ISZERO PUSH2 0x1030 JUMPI PUSH1 0x40 MLOAD CALLER SWAP1 DUP3 ISZERO PUSH2 0x8FC MUL SWAP1 DUP4 SWAP1 PUSH1 0x0 DUP2 DUP2 DUP2 DUP6 DUP9 DUP9 CALL SWAP4 POP POP POP POP ISZERO DUP1 ISZERO PUSH2 0xFE0 JUMPI RETURNDATASIZE PUSH1 0x0 DUP1 RETURNDATACOPY RETURNDATASIZE PUSH1 0x0 REVERT JUMPDEST POP PUSH2 0x1006 PUSH8 0xDE0B6B3A7640000 PUSH2 0xE8D PUSH1 0xB SLOAD DUP6 PUSH1 0x1 ADD SLOAD PUSH2 0x2A89 SWAP1 SWAP2 SWAP1 PUSH4 0xFFFFFFFF AND JUMP JUMPDEST PUSH1 0x5 DUP4 ADD SSTORE PUSH1 0x40 DUP1 MLOAD DUP3 DUP2 MSTORE SWAP1 MLOAD CALLER SWAP2 PUSH1 0x0 DUP1 MLOAD PUSH1 0x20 PUSH2 0x3C15 DUP4 CODECOPY DUP2 MLOAD SWAP2 MSTORE SWAP2 SWAP1 DUP2 SWAP1 SUB PUSH1 0x20 ADD SWAP1 LOG2 JUMPDEST PUSH2 0x10B8 JUMP JUMPDEST DUP1 ISZERO PUSH2 0x10B8 JUMPI PUSH1 0x40 MLOAD CALLER SWAP1 DUP3 ISZERO PUSH2 0x8FC MUL SWAP1 DUP4 SWAP1 PUSH1 0x0 DUP2 DUP2 DUP2 DUP6 DUP9 DUP9 CALL SWAP4 POP POP POP POP ISZERO DUP1 ISZERO PUSH2 0x1068 JUMPI RETURNDATASIZE PUSH1 0x0 DUP1 RETURNDATACOPY RETURNDATASIZE PUSH1 0x0 REVERT JUMPDEST POP PUSH2 0x108E PUSH8 0xDE0B6B3A7640000 PUSH2 0xE8D PUSH1 0xB SLOAD DUP6 PUSH1 0x1 ADD SLOAD PUSH2 0x2A89 SWAP1 SWAP2 SWAP1 PUSH4 0xFFFFFFFF AND JUMP JUMPDEST PUSH1 0x5 DUP4 ADD SSTORE PUSH1 0x40 DUP1 MLOAD DUP3 DUP2 MSTORE SWAP1 MLOAD CALLER SWAP2 PUSH1 0x0 DUP1 MLOAD PUSH1 0x20 PUSH2 0x3C15 DUP4 CODECOPY DUP2 MLOAD SWAP2 MSTORE SWAP2 SWAP1 DUP2 SWAP1 SUB PUSH1 0x20 ADD SWAP1 LOG2 JUMPDEST POP POP POP JUMPDEST POP JUMP JUMPDEST PUSH1 0x5 SLOAD PUSH1 0x1 PUSH1 0x1 PUSH1 0xA0 SHL SUB AND DUP2 JUMP JUMPDEST PUSH1 0x0 DUP1 PUSH2 0x10DC PUSH1 0x1 DUP5 PUSH2 0x2BC9 JUMP JUMPDEST SWAP2 POP SWAP2 POP JUMPDEST SWAP2 POP SWAP2 JUMP JUMPDEST PUSH2 0x10EE PUSH2 0xC69 JUMP JUMPDEST PUSH1 0x1 PUSH1 0x1 PUSH1 0xA0 SHL SUB AND PUSH2 0x10FF PUSH2 0xC6D JUMP JUMPDEST PUSH1 0x1 PUSH1 0x1 PUSH1 0xA0 SHL SUB AND EQ PUSH2 0x1148 JUMPI PUSH1 0x40 DUP1 MLOAD PUSH3 0x461BCD PUSH1 0xE5 SHL DUP2 MSTORE PUSH1 0x20 PUSH1 0x4 DUP3 ADD DUP2 SWAP1 MSTORE PUSH1 0x24 DUP3 ADD MSTORE PUSH1 0x0 DUP1 MLOAD PUSH1 0x20 PUSH2 0x3BCD DUP4 CODECOPY DUP2 MLOAD SWAP2 MSTORE PUSH1 0x44 DUP3 ADD MSTORE SWAP1 MLOAD SWAP1 DUP2 SWAP1 SUB PUSH1 0x64 ADD SWAP1 REVERT JUMPDEST PUSH1 0x9 SSTORE JUMP JUMPDEST PUSH1 0xF SLOAD DUP2 JUMP JUMPDEST PUSH1 0x1 PUSH1 0x1 PUSH1 0xA0 SHL SUB DUP2 AND PUSH1 0x0 SWAP1 DUP2 MSTORE PUSH1 0x11 PUSH1 0x20 MSTORE PUSH1 0x40 DUP2 KECCAK256 SLOAD DUP2 SWAP1 DUP1 PUSH2 0x1180 JUMPI PUSH1 0x0 DUP1 SWAP3 POP SWAP3 POP POP PUSH2 0x10E1 JUMP JUMPDEST PUSH1 0x0 PUSH1 0x12 PUSH1 0x1 DUP4 SUB DUP2 SLOAD DUP2 LT PUSH2 0x1192 JUMPI INVALID JUMPDEST SWAP1 PUSH1 0x0 MSTORE PUSH1 0x20 PUSH1 0x0 KECCAK256 SWAP1 PUSH1 0x6 MUL ADD SWAP1 POP DUP1 PUSH1 0x1 ADD SLOAD DUP2 PUSH1 0x2 ADD SLOAD SWAP4 POP SWAP4 POP POP POP SWAP2 POP SWAP2 JUMP JUMPDEST PUSH2 0x11BF PUSH2 0xC69 JUMP JUMPDEST PUSH1 0x1 PUSH1 0x1 PUSH1 0xA0 SHL SUB AND PUSH2 0x11D0 PUSH2 0xC6D JUMP JUMPDEST PUSH1 0x1 PUSH1 0x1 PUSH1 0xA0 SHL SUB AND EQ PUSH2 0x1219 JUMPI PUSH1 0x40 DUP1 MLOAD PUSH3 0x461BCD PUSH1 0xE5 SHL DUP2 MSTORE PUSH1 0x20 PUSH1 0x4 DUP3 ADD DUP2 SWAP1 MSTORE PUSH1 0x24 DUP3 ADD MSTORE PUSH1 0x0 DUP1 MLOAD PUSH1 0x20 PUSH2 0x3BCD DUP4 CODECOPY DUP2 MLOAD SWAP2 MSTORE PUSH1 0x44 DUP3 ADD MSTORE SWAP1 MLOAD SWAP1 DUP2 SWAP1 SUB PUSH1 0x64 ADD SWAP1 REVERT JUMPDEST PUSH1 0x1 PUSH1 0x1 PUSH1 0xA0 SHL SUB DUP2 AND PUSH2 0x1263 JUMPI PUSH1 0x40 DUP1 MLOAD PUSH3 0x461BCD PUSH1 0xE5 SHL DUP2 MSTORE PUSH1 0x20 PUSH1 0x4 DUP3 ADD MSTORE PUSH1 0xC PUSH1 0x24 DUP3 ADD MSTORE PUSH12 0x5A65726F2061646472657373 PUSH1 0xA0 SHL PUSH1 0x44 DUP3 ADD MSTORE SWAP1 MLOAD SWAP1 DUP2 SWAP1 SUB PUSH1 0x64 ADD SWAP1 REVERT JUMPDEST PUSH1 0x5 DUP1 SLOAD PUSH1 0x1 PUSH1 0x1 PUSH1 0xA0 SHL SUB NOT AND PUSH1 0x1 PUSH1 0x1 PUSH1 0xA0 SHL SUB SWAP3 SWAP1 SWAP3 AND SWAP2 SWAP1 SWAP2 OR SWAP1 SSTORE JUMP JUMPDEST PUSH1 0x11 PUSH1 0x20 MSTORE PUSH1 0x0 SWAP1 DUP2 MSTORE PUSH1 0x40 SWAP1 KECCAK256 SLOAD DUP2 JUMP JUMPDEST PUSH1 0x13 PUSH1 0x20 MSTORE PUSH1 0x0 SWAP1 DUP2 MSTORE PUSH1 0x40 SWAP1 KECCAK256 SLOAD DUP2 JUMP JUMPDEST PUSH1 0x0 DUP1 PUSH1 0x1 PUSH1 0x1 PUSH1 0xA0 SHL SUB DUP4 AND PUSH2 0x12F6 JUMPI PUSH1 0x40 DUP1 MLOAD PUSH3 0x461BCD PUSH1 0xE5 SHL DUP2 MSTORE PUSH1 0x20 PUSH1 0x4 DUP3 ADD MSTORE PUSH1 0xC PUSH1 0x24 DUP3 ADD MSTORE PUSH12 0x5A65726F2061646472657373 PUSH1 0xA0 SHL PUSH1 0x44 DUP3 ADD MSTORE SWAP1 MLOAD SWAP1 DUP2 SWAP1 SUB PUSH1 0x64 ADD SWAP1 REVERT JUMPDEST PUSH1 0x1 PUSH1 0x1 PUSH1 0xA0 SHL SUB DUP4 AND PUSH1 0x0 SWAP1 DUP2 MSTORE PUSH1 0x11 PUSH1 0x20 MSTORE PUSH1 0x40 SWAP1 KECCAK256 SLOAD DUP1 PUSH2 0x1321 JUMPI PUSH1 0x0 DUP1 SWAP3 POP SWAP3 POP POP PUSH2 0x10E1 JUMP JUMPDEST PUSH1 0x0 PUSH1 0x12 PUSH1 0x1 DUP4 SUB DUP2 SLOAD DUP2 LT PUSH2 0x1333 JUMPI INVALID JUMPDEST SWAP1 PUSH1 0x0 MSTORE PUSH1 0x20 PUSH1 0x0 KECCAK256 SWAP1 PUSH1 0x6 MUL ADD SWAP1 POP NUMBER DUP2 PUSH1 0x4 ADD SLOAD GT ISZERO PUSH2 0x1363 JUMPI PUSH1 0x1 NUMBER DUP3 PUSH1 0x4 ADD SLOAD SUB SWAP4 POP SWAP4 POP POP POP PUSH2 0x10E1 JUMP JUMPDEST PUSH1 0x1 PUSH1 0x0 SWAP4 POP SWAP4 POP POP POP PUSH2 0x10E1 JUMP JUMPDEST PUSH1 0x3 SLOAD PUSH1 0x1 PUSH1 0xA0 SHL SWAP1 DIV PUSH1 0xFF AND DUP2 JUMP JUMPDEST PUSH2 0x138A PUSH2 0xC69 JUMP JUMPDEST PUSH1 0x1 PUSH1 0x1 PUSH1 0xA0 SHL SUB AND PUSH2 0x139B PUSH2 0xC6D JUMP JUMPDEST PUSH1 0x1 PUSH1 0x1 PUSH1 0xA0 SHL SUB AND EQ PUSH2 0x13E4 JUMPI PUSH1 0x40 DUP1 MLOAD PUSH3 0x461BCD PUSH1 0xE5 SHL DUP2 MSTORE PUSH1 0x20 PUSH1 0x4 DUP3 ADD DUP2 SWAP1 MSTORE PUSH1 0x24 DUP3 ADD MSTORE PUSH1 0x0 DUP1 MLOAD PUSH1 0x20 PUSH2 0x3BCD DUP4 CODECOPY DUP2 MLOAD SWAP2 MSTORE PUSH1 0x44 DUP3 ADD MSTORE SWAP1 MLOAD SWAP1 DUP2 SWAP1 SUB PUSH1 0x64 ADD SWAP1 REVERT JUMPDEST PUSH1 0x0 DUP3 GT PUSH2 0x1423 JUMPI PUSH1 0x40 MLOAD PUSH3 0x461BCD PUSH1 0xE5 SHL DUP2 MSTORE PUSH1 0x4 ADD DUP1 DUP1 PUSH1 0x20 ADD DUP3 DUP2 SUB DUP3 MSTORE PUSH1 0x2A DUP2 MSTORE PUSH1 0x20 ADD DUP1 PUSH2 0x3B0E PUSH1 0x2A SWAP2 CODECOPY PUSH1 0x40 ADD SWAP2 POP POP PUSH1 0x40 MLOAD DUP1 SWAP2 SUB SWAP1 REVERT JUMPDEST DUP2 DUP2 GT PUSH2 0x1461 JUMPI PUSH1 0x40 MLOAD PUSH3 0x461BCD PUSH1 0xE5 SHL DUP2 MSTORE PUSH1 0x4 ADD DUP1 DUP1 PUSH1 0x20 ADD DUP3 DUP2 SUB DUP3 MSTORE PUSH1 0x2C DUP2 MSTORE PUSH1 0x20 ADD DUP1 PUSH2 0x3B80 PUSH1 0x2C SWAP2 CODECOPY PUSH1 0x40 ADD SWAP2 POP POP PUSH1 0x40 MLOAD DUP1 SWAP2 SUB SWAP1 REVERT JUMPDEST PUSH1 0x7 SWAP2 SWAP1 SWAP2 SSTORE PUSH1 0x6 SSTORE JUMP JUMPDEST PUSH1 0x3 SLOAD PUSH1 0x1 PUSH1 0xA0 SHL SWAP1 DIV PUSH1 0xFF AND ISZERO PUSH2 0x14C6 JUMPI PUSH1 0x40 DUP1 MLOAD PUSH3 0x461BCD PUSH1 0xE5 SHL DUP2 MSTORE PUSH1 0x20 PUSH1 0x4 DUP3 ADD MSTORE PUSH1 0x18 PUSH1 0x24 DUP3 ADD MSTORE PUSH24 0x14DD185AD9481A185CC81899595B881CDD5CDC195B991959 PUSH1 0x42 SHL PUSH1 0x44 DUP3 ADD MSTORE SWAP1 MLOAD SWAP1 DUP2 SWAP1 SUB PUSH1 0x64 ADD SWAP1 REVERT JUMPDEST PUSH2 0x14CF DUP2 PUSH2 0x2BE7 JUMP JUMPDEST PUSH1 0x40 MLOAD CALLER SWAP1 PUSH1 0x1 PUSH1 0x1 PUSH1 0xA0 SHL SUB DUP4 AND SWAP1 PUSH32 0x8A2147350B859703C1A5E651E6B18E1873870808C8B7E1ED450D352B3F1FBD86 SWAP1 PUSH1 0x0 SWAP1 LOG3 PUSH1 0x1 PUSH1 0x1 PUSH1 0xA0 SHL SUB DUP2 AND PUSH1 0x0 SWAP1 DUP2 MSTORE PUSH1 0x11 PUSH1 0x20 MSTORE PUSH1 0x40 SWAP1 KECCAK256 SLOAD DUP1 PUSH2 0x1529 JUMPI POP PUSH2 0x10BC JUMP JUMPDEST PUSH1 0x0 PUSH1 0x12 PUSH1 0x1 DUP4 SUB DUP2 SLOAD DUP2 LT PUSH2 0x153B JUMPI INVALID JUMPDEST SWAP1 PUSH1 0x0 MSTORE PUSH1 0x20 PUSH1 0x0 KECCAK256 SWAP1 PUSH1 0x6 MUL ADD SWAP1 POP DUP1 PUSH1 0x3 ADD SLOAD PUSH1 0x0 EQ ISZERO PUSH2 0x155F JUMPI POP POP PUSH2 0x10BC JUMP JUMPDEST CALLER PUSH1 0x0 SWAP1 DUP2 MSTORE PUSH1 0x11 PUSH1 0x20 MSTORE PUSH1 0x40 SWAP1 KECCAK256 SLOAD DUP1 PUSH2 0x157C JUMPI POP POP POP PUSH2 0x10BC JUMP JUMPDEST PUSH1 0x0 PUSH1 0x12 PUSH1 0x1 DUP4 SUB DUP2 SLOAD DUP2 LT PUSH2 0x158E JUMPI INVALID JUMPDEST PUSH1 0x0 SWAP2 DUP3 MSTORE PUSH1 0x20 SWAP1 SWAP2 KECCAK256 PUSH1 0x6 SWAP1 SWAP2 MUL ADD DUP1 SLOAD SWAP1 SWAP2 POP PUSH1 0xFF AND DUP1 PUSH2 0x15B3 JUMPI POP PUSH1 0x3 DUP2 ADD SLOAD ISZERO JUMPDEST ISZERO PUSH2 0x15C1 JUMPI POP POP POP POP PUSH2 0x10BC JUMP JUMPDEST PUSH2 0x15C9 PUSH2 0x2A2E JUMP JUMPDEST PUSH1 0x1 DUP4 ADD SLOAD ISZERO PUSH2 0x169E JUMPI PUSH1 0x0 PUSH2 0x1602 DUP5 PUSH1 0x5 ADD SLOAD PUSH2 0xE93 PUSH8 0xDE0B6B3A7640000 PUSH2 0xE8D PUSH1 0xB SLOAD DUP10 PUSH1 0x1 ADD SLOAD PUSH2 0x2A89 SWAP1 SWAP2 SWAP1 PUSH4 0xFFFFFFFF AND JUMP JUMPDEST SWAP1 POP DUP1 ISZERO PUSH2 0x169C JUMPI PUSH1 0x10 SLOAD PUSH2 0x1619 JUMPI POP PUSH1 0x0 PUSH2 0x1628 JUMP JUMPDEST PUSH1 0x10 SLOAD DUP2 GT ISZERO PUSH2 0x1628 JUMPI POP PUSH1 0x10 SLOAD JUMPDEST PUSH2 0x1631 DUP2 PUSH2 0x2BA6 JUMP JUMPDEST DUP1 ISZERO PUSH2 0x169C JUMPI PUSH1 0x40 MLOAD PUSH1 0x1 PUSH1 0x1 PUSH1 0xA0 SHL SUB DUP8 AND SWAP1 DUP3 ISZERO PUSH2 0x8FC MUL SWAP1 DUP4 SWAP1 PUSH1 0x0 DUP2 DUP2 DUP2 DUP6 DUP9 DUP9 CALL SWAP4 POP POP POP POP ISZERO DUP1 ISZERO PUSH2 0x166D JUMPI RETURNDATASIZE PUSH1 0x0 DUP1 RETURNDATACOPY RETURNDATASIZE PUSH1 0x0 REVERT JUMPDEST POP PUSH1 0x40 DUP1 MLOAD DUP3 DUP2 MSTORE SWAP1 MLOAD PUSH1 0x1 PUSH1 0x1 PUSH1 0xA0 SHL SUB DUP9 AND SWAP2 PUSH1 0x0 DUP1 MLOAD PUSH1 0x20 PUSH2 0x3C15 DUP4 CODECOPY DUP2 MLOAD SWAP2 MSTORE SWAP2 SWAP1 DUP2 SWAP1 SUB PUSH1 0x20 ADD SWAP1 LOG2 JUMPDEST POP JUMPDEST PUSH1 0x0 PUSH2 0x16BE PUSH2 0x3E8 PUSH2 0xE8D PUSH1 0x96 DUP6 PUSH1 0x3 ADD SLOAD PUSH2 0x2A89 SWAP1 SWAP2 SWAP1 PUSH4 0xFFFFFFFF AND JUMP JUMPDEST SWAP1 POP PUSH1 0xF SLOAD PUSH1 0x0 EQ ISZERO PUSH2 0x16D3 JUMPI POP PUSH1 0x0 PUSH2 0x16E2 JUMP JUMPDEST PUSH1 0xF SLOAD DUP2 GT ISZERO PUSH2 0x16E2 JUMPI POP PUSH1 0xF SLOAD JUMPDEST PUSH2 0x16EB DUP2 PUSH2 0x2DAF JUMP JUMPDEST PUSH1 0x1 DUP5 ADD SLOAD PUSH2 0x16FA SWAP1 DUP3 PUSH2 0x2DD2 JUMP JUMPDEST PUSH1 0x1 DUP6 ADD SSTORE PUSH1 0x2 DUP5 ADD SLOAD PUSH2 0x170E SWAP1 DUP3 PUSH2 0x2DD2 JUMP JUMPDEST PUSH1 0x2 DUP6 ADD SSTORE DUP2 SLOAD PUSH1 0xFF NOT AND PUSH1 0x1 SWAP1 DUP2 OR DUP4 SSTORE PUSH1 0xB SLOAD SWAP1 DUP6 ADD SLOAD PUSH2 0x173E SWAP2 PUSH8 0xDE0B6B3A7640000 SWAP2 PUSH2 0xE8D SWAP2 PUSH2 0x2A89 JUMP JUMPDEST PUSH1 0x5 DUP6 ADD SSTORE PUSH1 0xC SLOAD PUSH2 0x1750 SWAP1 DUP3 PUSH2 0x2DD2 JUMP JUMPDEST PUSH1 0xC SSTORE DUP1 ISZERO PUSH2 0x1799 JUMPI PUSH1 0x40 DUP1 MLOAD DUP3 DUP2 MSTORE SWAP1 MLOAD PUSH1 0x1 PUSH1 0x1 PUSH1 0xA0 SHL SUB DUP9 AND SWAP2 PUSH32 0x389563883F983DB1CB1B00FCA2F5C30E56CE545EE60ED77F8E07130F04C53056 SWAP2 SWAP1 DUP2 SWAP1 SUB PUSH1 0x20 ADD SWAP1 LOG2 JUMPDEST POP POP POP POP POP POP JUMP JUMPDEST PUSH1 0x0 PUSH2 0x17AB PUSH2 0xC69 JUMP JUMPDEST PUSH1 0x1 PUSH1 0x1 PUSH1 0xA0 SHL SUB AND PUSH2 0x17BC PUSH2 0xC6D JUMP JUMPDEST PUSH1 0x1 PUSH1 0x1 PUSH1 0xA0 SHL SUB AND EQ PUSH2 0x1805 JUMPI PUSH1 0x40 DUP1 MLOAD PUSH3 0x461BCD PUSH1 0xE5 SHL DUP2 MSTORE PUSH1 0x20 PUSH1 0x4 DUP3 ADD DUP2 SWAP1 MSTORE PUSH1 0x24 DUP3 ADD MSTORE PUSH1 0x0 DUP1 MLOAD PUSH1 0x20 PUSH2 0x3BCD DUP4 CODECOPY DUP2 MLOAD SWAP2 MSTORE PUSH1 0x44 DUP3 ADD MSTORE SWAP1 MLOAD SWAP1 DUP2 SWAP1 SUB PUSH1 0x64 ADD SWAP1 REVERT JUMPDEST POP SELFBALANCE SWAP1 JUMP JUMPDEST PUSH1 0x0 DUP1 DUP1 DUP1 DUP1 DUP1 DUP1 PUSH1 0x1 PUSH1 0x1 PUSH1 0xA0 SHL SUB DUP9 AND PUSH2 0x185C JUMPI PUSH1 0x40 DUP1 MLOAD PUSH3 0x461BCD PUSH1 0xE5 SHL DUP2 MSTORE PUSH1 0x20 PUSH1 0x4 DUP3 ADD MSTORE PUSH1 0xC PUSH1 0x24 DUP3 ADD MSTORE PUSH12 0x5A65726F2061646472657373 PUSH1 0xA0 SHL PUSH1 0x44 DUP3 ADD MSTORE SWAP1 MLOAD SWAP1 DUP2 SWAP1 SUB PUSH1 0x64 ADD SWAP1 REVERT JUMPDEST PUSH1 0x1 PUSH1 0x1 PUSH1 0xA0 SHL SUB DUP9 AND PUSH1 0x0 SWAP1 DUP2 MSTORE PUSH1 0x11 PUSH1 0x20 MSTORE PUSH1 0x40 SWAP1 KECCAK256 SLOAD DUP1 PUSH2 0x1899 JUMPI PUSH1 0x0 DUP1 PUSH1 0x0 DUP1 PUSH1 0x0 DUP1 PUSH1 0x0 SWAP8 POP SWAP8 POP SWAP8 POP SWAP8 POP SWAP8 POP SWAP8 POP SWAP8 POP POP PUSH2 0x18F2 JUMP JUMPDEST PUSH1 0x0 PUSH1 0x12 PUSH1 0x1 DUP4 SUB DUP2 SLOAD DUP2 LT PUSH2 0x18AB JUMPI INVALID JUMPDEST PUSH1 0x0 SWAP2 DUP3 MSTORE PUSH1 0x20 SWAP1 SWAP2 KECCAK256 PUSH1 0x6 SWAP1 SWAP2 MUL ADD DUP1 SLOAD PUSH1 0x1 DUP1 DUP4 ADD SLOAD PUSH1 0x2 DUP5 ADD SLOAD PUSH1 0x3 DUP6 ADD SLOAD PUSH1 0x4 DUP7 ADD SLOAD PUSH1 0x5 SWAP1 SWAP7 ADD SLOAD SWAP4 SWAP15 POP PUSH1 0xFF SWAP1 SWAP5 AND SWAP13 POP SWAP1 SWAP11 POP SWAP9 POP SWAP1 SWAP7 POP SWAP1 SWAP5 POP SWAP3 POP POP POP JUMPDEST SWAP2 SWAP4 SWAP6 SWAP8 SWAP1 SWAP3 SWAP5 SWAP7 POP JUMP JUMPDEST PUSH1 0x0 PUSH1 0x1 PUSH1 0x1 PUSH1 0xA0 SHL SUB DUP3 AND PUSH2 0x1949 JUMPI PUSH1 0x40 DUP1 MLOAD PUSH3 0x461BCD PUSH1 0xE5 SHL DUP2 MSTORE PUSH1 0x20 PUSH1 0x4 DUP3 ADD MSTORE PUSH1 0xC PUSH1 0x24 DUP3 ADD MSTORE PUSH12 0x5A65726F2061646472657373 PUSH1 0xA0 SHL PUSH1 0x44 DUP3 ADD MSTORE SWAP1 MLOAD SWAP1 DUP2 SWAP1 SUB PUSH1 0x64 ADD SWAP1 REVERT JUMPDEST PUSH1 0x1 PUSH1 0x1 PUSH1 0xA0 SHL SUB DUP3 AND PUSH1 0x0 SWAP1 DUP2 MSTORE PUSH1 0x11 PUSH1 0x20 MSTORE PUSH1 0x40 SWAP1 KECCAK256 SLOAD DUP1 PUSH2 0x1971 JUMPI PUSH1 0x0 SWAP2 POP POP PUSH2 0x19B1 JUMP JUMPDEST PUSH1 0x0 PUSH1 0x12 PUSH1 0x1 DUP4 SUB DUP2 SLOAD DUP2 LT PUSH2 0x1983 JUMPI INVALID JUMPDEST SWAP1 PUSH1 0x0 MSTORE PUSH1 0x20 PUSH1 0x0 KECCAK256 SWAP1 PUSH1 0x6 MUL ADD SWAP1 POP DUP1 PUSH1 0x4 ADD SLOAD NUMBER LT ISZERO PUSH2 0x19AA JUMPI PUSH1 0x0 SWAP3 POP POP POP PUSH2 0x19B1 JUMP JUMPDEST PUSH1 0x1 SWAP3 POP POP POP JUMPDEST SWAP2 SWAP1 POP JUMP JUMPDEST PUSH1 0x5 SLOAD PUSH1 0x1 PUSH1 0x1 PUSH1 0xA0 SHL SUB AND PUSH2 0x19FD JUMPI PUSH1 0x40 MLOAD PUSH3 0x461BCD PUSH1 0xE5 SHL DUP2 MSTORE PUSH1 0x4 ADD DUP1 DUP1 PUSH1 0x20 ADD DUP3 DUP2 SUB DUP3 MSTORE PUSH1 0x28 DUP2 MSTORE PUSH1 0x20 ADD DUP1 PUSH2 0x3BED PUSH1 0x28 SWAP2 CODECOPY PUSH1 0x40 ADD SWAP2 POP POP PUSH1 0x40 MLOAD DUP1 SWAP2 SUB SWAP1 REVERT JUMPDEST PUSH1 0x5 SLOAD PUSH1 0x1 PUSH1 0x1 PUSH1 0xA0 SHL SUB AND CALLER EQ PUSH2 0x1A57 JUMPI PUSH1 0x40 DUP1 MLOAD PUSH3 0x461BCD PUSH1 0xE5 SHL DUP2 MSTORE PUSH1 0x20 PUSH1 0x4 DUP3 ADD MSTORE PUSH1 0x18 PUSH1 0x24 DUP3 ADD MSTORE PUSH24 0x496E73756666696369656E74207065726D697373696F6E73 PUSH1 0x40 SHL PUSH1 0x44 DUP3 ADD MSTORE SWAP1 MLOAD SWAP1 DUP2 SWAP1 SUB PUSH1 0x64 ADD SWAP1 REVERT JUMPDEST PUSH1 0x1 PUSH1 0x1 PUSH1 0xA0 SHL SUB DUP2 AND PUSH2 0x1AA1 JUMPI PUSH1 0x40 DUP1 MLOAD PUSH3 0x461BCD PUSH1 0xE5 SHL DUP2 MSTORE PUSH1 0x20 PUSH1 0x4 DUP3 ADD MSTORE PUSH1 0xC PUSH1 0x24 DUP3 ADD MSTORE PUSH12 0x5A65726F2061646472657373 PUSH1 0xA0 SHL PUSH1 0x44 DUP3 ADD MSTORE SWAP1 MLOAD SWAP1 DUP2 SWAP1 SUB PUSH1 0x64 ADD SWAP1 REVERT JUMPDEST PUSH1 0x1 PUSH1 0x1 PUSH1 0xA0 SHL SUB DUP2 AND PUSH1 0x0 SWAP1 DUP2 MSTORE PUSH1 0x11 PUSH1 0x20 MSTORE PUSH1 0x40 SWAP1 KECCAK256 SLOAD DUP1 PUSH2 0x1AC5 JUMPI POP PUSH2 0x10BC JUMP JUMPDEST PUSH1 0x0 PUSH1 0x12 PUSH1 0x1 DUP4 SUB DUP2 SLOAD DUP2 LT PUSH2 0x1AD7 JUMPI INVALID JUMPDEST SWAP1 PUSH1 0x0 MSTORE PUSH1 0x20 PUSH1 0x0 KECCAK256 SWAP1 PUSH1 0x6 MUL ADD SWAP1 POP PUSH1 0x0 DUP2 PUSH1 0x1 ADD SLOAD GT ISZERO PUSH2 0x1BFC JUMPI PUSH1 0x1 DUP2 ADD SLOAD PUSH1 0x2 DUP3 ADD SLOAD DUP1 DUP3 GT ISZERO PUSH2 0x1BCB JUMPI PUSH2 0x1B10 DUP3 DUP3 PUSH2 0x2B49 JUMP JUMPDEST PUSH1 0x0 PUSH1 0x1 DUP6 ADD DUP2 SWAP1 SSTORE PUSH1 0x2 DUP6 ADD DUP2 SWAP1 SSTORE PUSH1 0x5 DUP6 ADD DUP2 SWAP1 SSTORE PUSH1 0x40 MLOAD SWAP2 SWAP4 POP PUSH1 0x1 PUSH1 0x1 PUSH1 0xA0 SHL SUB DUP8 AND SWAP2 DUP5 ISZERO PUSH2 0x8FC MUL SWAP2 DUP6 SWAP2 SWAP1 DUP2 DUP2 DUP2 DUP6 DUP9 DUP9 CALL SWAP4 POP POP POP POP ISZERO DUP1 ISZERO PUSH2 0x1B5F JUMPI RETURNDATASIZE PUSH1 0x0 DUP1 RETURNDATACOPY RETURNDATASIZE PUSH1 0x0 REVERT JUMPDEST POP PUSH1 0xC SLOAD PUSH2 0x1B6D SWAP1 DUP4 PUSH2 0x2B49 JUMP JUMPDEST PUSH1 0xC SSTORE DUP1 ISZERO PUSH2 0x1B87 JUMPI PUSH1 0xC SLOAD PUSH2 0x1B83 SWAP1 DUP3 PUSH2 0x2B49 JUMP JUMPDEST PUSH1 0xC SSTORE JUMPDEST PUSH1 0x40 DUP1 MLOAD DUP4 DUP2 MSTORE SWAP1 MLOAD PUSH1 0x1 PUSH1 0x1 PUSH1 0xA0 SHL SUB DUP8 AND SWAP2 PUSH32 0x5FAFA99D0643513820BE26656B45130B01E1C03062E1266BF36F88CBD3BD9695 SWAP2 SWAP1 DUP2 SWAP1 SUB PUSH1 0x20 ADD SWAP1 LOG2 PUSH2 0x1BF9 JUMP JUMPDEST DUP2 DUP2 GT ISZERO PUSH2 0x1BF9 JUMPI PUSH1 0x0 PUSH1 0x1 DUP5 ADD DUP2 SWAP1 SSTORE PUSH1 0x2 DUP5 ADD DUP2 SWAP1 SSTORE PUSH1 0x5 DUP5 ADD SSTORE PUSH1 0xC SLOAD PUSH2 0x1BF5 SWAP1 DUP4 PUSH2 0x2B49 JUMP JUMPDEST PUSH1 0xC SSTORE JUMPDEST POP POP JUMPDEST POP POP POP JUMP JUMPDEST PUSH2 0x1C09 PUSH2 0xC69 JUMP JUMPDEST PUSH1 0x1 PUSH1 0x1 PUSH1 0xA0 SHL SUB AND PUSH2 0x1C1A PUSH2 0xC6D JUMP JUMPDEST PUSH1 0x1 PUSH1 0x1 PUSH1 0xA0 SHL SUB AND EQ PUSH2 0x1C63 JUMPI PUSH1 0x40 DUP1 MLOAD PUSH3 0x461BCD PUSH1 0xE5 SHL DUP2 MSTORE PUSH1 0x20 PUSH1 0x4 DUP3 ADD DUP2 SWAP1 MSTORE PUSH1 0x24 DUP3 ADD MSTORE PUSH1 0x0 DUP1 MLOAD PUSH1 0x20 PUSH2 0x3BCD DUP4 CODECOPY DUP2 MLOAD SWAP2 MSTORE PUSH1 0x44 DUP3 ADD MSTORE SWAP1 MLOAD SWAP1 DUP2 SWAP1 SUB PUSH1 0x64 ADD SWAP1 REVERT JUMPDEST PUSH1 0x3 SLOAD PUSH1 0x40 MLOAD PUSH1 0x0 SWAP2 PUSH1 0x1 PUSH1 0x1 PUSH1 0xA0 SHL SUB AND SWAP1 PUSH32 0x8BE0079C531659141344CD1FD0A4F28419497F9722A3DAAFE3B4186F6B6457E0 SWAP1 DUP4 SWAP1 LOG3 PUSH1 0x3 DUP1 SLOAD PUSH1 0x1 PUSH1 0x1 PUSH1 0xA0 SHL SUB NOT AND SWAP1 SSTORE JUMP JUMPDEST PUSH1 0x12 DUP2 DUP2 SLOAD DUP2 LT PUSH2 0x1CBD JUMPI PUSH1 0x0 DUP1 REVERT JUMPDEST PUSH1 0x0 SWAP2 DUP3 MSTORE PUSH1 0x20 SWAP1 SWAP2 KECCAK256 PUSH1 0x6 SWAP1 SWAP2 MUL ADD DUP1 SLOAD PUSH1 0x1 DUP3 ADD SLOAD PUSH1 0x2 DUP4 ADD SLOAD PUSH1 0x3 DUP5 ADD SLOAD PUSH1 0x4 DUP6 ADD SLOAD PUSH1 0x5 SWAP1 SWAP6 ADD SLOAD PUSH1 0xFF SWAP1 SWAP5 AND SWAP6 POP SWAP2 SWAP4 SWAP1 SWAP3 DUP7 JUMP JUMPDEST PUSH1 0x6 SLOAD DUP2 JUMP JUMPDEST PUSH1 0x9 SLOAD DUP2 JUMP JUMPDEST PUSH1 0x0 PUSH1 0x1 PUSH1 0x1 PUSH1 0xA0 SHL SUB DUP4 AND PUSH2 0x1D60 JUMPI PUSH1 0x40 DUP1 MLOAD PUSH3 0x461BCD PUSH1 0xE5 SHL DUP2 MSTORE PUSH1 0x20 PUSH1 0x4 DUP3 ADD MSTORE PUSH1 0x1B PUSH1 0x24 DUP3 ADD MSTORE PUSH32 0x496E766974657220697320746865207A65726F20616464726573730000000000 PUSH1 0x44 DUP3 ADD MSTORE SWAP1 MLOAD SWAP1 DUP2 SWAP1 SUB PUSH1 0x64 ADD SWAP1 REVERT JUMPDEST PUSH1 0x1 PUSH1 0x1 PUSH1 0xA0 SHL SUB DUP4 AND PUSH1 0x0 SWAP1 DUP2 MSTORE PUSH1 0x20 DUP2 SWAP1 MSTORE PUSH1 0x40 SWAP1 KECCAK256 PUSH2 0x1D82 SWAP1 DUP4 PUSH2 0x2E2C JUMP JUMPDEST SWAP1 POP JUMPDEST SWAP3 SWAP2 POP POP JUMP JUMPDEST PUSH1 0x4 SLOAD PUSH1 0x1 PUSH1 0x1 PUSH1 0xA0 SHL SUB AND DUP2 JUMP JUMPDEST PUSH1 0x1 PUSH1 0x1 PUSH1 0xA0 SHL SUB DUP2 AND PUSH1 0x0 SWAP1 DUP2 MSTORE PUSH1 0x20 DUP2 SWAP1 MSTORE PUSH1 0x40 DUP2 KECCAK256 PUSH2 0x1D85 SWAP1 PUSH2 0x2E38 JUMP JUMPDEST PUSH2 0x1DC3 PUSH2 0xC69 JUMP JUMPDEST PUSH1 0x1 PUSH1 0x1 PUSH1 0xA0 SHL SUB AND PUSH2 0x1DD4 PUSH2 0xC6D JUMP JUMPDEST PUSH1 0x1 PUSH1 0x1 PUSH1 0xA0 SHL SUB AND EQ PUSH2 0x1E1D JUMPI PUSH1 0x40 DUP1 MLOAD PUSH3 0x461BCD PUSH1 0xE5 SHL DUP2 MSTORE PUSH1 0x20 PUSH1 0x4 DUP3 ADD DUP2 SWAP1 MSTORE PUSH1 0x24 DUP3 ADD MSTORE PUSH1 0x0 DUP1 MLOAD PUSH1 0x20 PUSH2 0x3BCD DUP4 CODECOPY DUP2 MLOAD SWAP2 MSTORE PUSH1 0x44 DUP3 ADD MSTORE SWAP1 MLOAD SWAP1 DUP2 SWAP1 SUB PUSH1 0x64 ADD SWAP1 REVERT JUMPDEST PUSH1 0x0 DUP2 GT PUSH2 0x1E72 JUMPI PUSH1 0x40 DUP1 MLOAD PUSH3 0x461BCD PUSH1 0xE5 SHL DUP2 MSTORE PUSH1 0x20 PUSH1 0x4 DUP3 ADD MSTORE PUSH1 0x19 PUSH1 0x24 DUP3 ADD MSTORE PUSH32 0x496E636F7272656374207472616E7366657220616D6F756E7400000000000000 PUSH1 0x44 DUP3 ADD MSTORE SWAP1 MLOAD SWAP1 DUP2 SWAP1 SUB PUSH1 0x64 ADD SWAP1 REVERT JUMPDEST PUSH1 0x40 MLOAD CALLER SWAP1 DUP3 ISZERO PUSH2 0x8FC MUL SWAP1 DUP4 SWAP1 PUSH1 0x0 DUP2 DUP2 DUP2 DUP6 DUP9 DUP9 CALL SWAP4 POP POP POP POP ISZERO DUP1 ISZERO PUSH2 0x1E9F JUMPI RETURNDATASIZE PUSH1 0x0 DUP1 RETURNDATACOPY RETURNDATASIZE PUSH1 0x0 REVERT JUMPDEST POP POP JUMP JUMPDEST PUSH1 0xE SLOAD DUP2 JUMP JUMPDEST PUSH2 0x1EB1 PUSH2 0xC69 JUMP JUMPDEST PUSH1 0x1 PUSH1 0x1 PUSH1 0xA0 SHL SUB AND PUSH2 0x1EC2 PUSH2 0xC6D JUMP JUMPDEST PUSH1 0x1 PUSH1 0x1 PUSH1 0xA0 SHL SUB AND EQ PUSH2 0x1F0B JUMPI PUSH1 0x40 DUP1 MLOAD PUSH3 0x461BCD PUSH1 0xE5 SHL DUP2 MSTORE PUSH1 0x20 PUSH1 0x4 DUP3 ADD DUP2 SWAP1 MSTORE PUSH1 0x24 DUP3 ADD MSTORE PUSH1 0x0 DUP1 MLOAD PUSH1 0x20 PUSH2 0x3BCD DUP4 CODECOPY DUP2 MLOAD SWAP2 MSTORE PUSH1 0x44 DUP3 ADD MSTORE SWAP1 MLOAD SWAP1 DUP2 SWAP1 SUB PUSH1 0x64 ADD SWAP1 REVERT JUMPDEST PUSH1 0x10 SSTORE JUMP JUMPDEST PUSH1 0x8 SLOAD DUP2 JUMP JUMPDEST PUSH1 0x60 PUSH1 0x1 PUSH1 0x1 PUSH1 0xA0 SHL SUB DUP3 AND PUSH2 0x1F73 JUMPI PUSH1 0x40 DUP1 MLOAD PUSH3 0x461BCD PUSH1 0xE5 SHL DUP2 MSTORE PUSH1 0x20 PUSH1 0x4 DUP3 ADD MSTORE PUSH1 0x1B PUSH1 0x24 DUP3 ADD MSTORE PUSH32 0x496E766974657220697320746865207A65726F20616464726573730000000000 PUSH1 0x44 DUP3 ADD MSTORE SWAP1 MLOAD SWAP1 DUP2 SWAP1 SUB PUSH1 0x64 ADD SWAP1 REVERT JUMPDEST PUSH1 0x1 PUSH1 0x1 PUSH1 0xA0 SHL SUB DUP3 AND PUSH1 0x0 SWAP1 DUP2 MSTORE PUSH1 0x20 DUP2 SWAP1 MSTORE PUSH1 0x40 SWAP1 KECCAK256 PUSH2 0x1F94 SWAP1 PUSH2 0x2E38 JUMP JUMPDEST PUSH2 0x1FAD JUMPI POP PUSH1 0x40 DUP1 MLOAD PUSH1 0x0 DUP2 MSTORE PUSH1 0x20 DUP2 ADD SWAP1 SWAP2 MSTORE PUSH2 0x2116 JUMP JUMPDEST DUP3 DUP5 LT DUP1 ISZERO PUSH2 0x1FDB JUMPI POP PUSH1 0x1 PUSH1 0x1 PUSH1 0xA0 SHL SUB DUP3 AND PUSH1 0x0 SWAP1 DUP2 MSTORE PUSH1 0x20 DUP2 SWAP1 MSTORE PUSH1 0x40 SWAP1 KECCAK256 PUSH2 0x1FD8 SWAP1 PUSH2 0x2E38 JUMP JUMPDEST DUP5 LT JUMPDEST PUSH2 0x201B JUMPI PUSH1 0x40 DUP1 MLOAD PUSH3 0x461BCD PUSH1 0xE5 SHL DUP2 MSTORE PUSH1 0x20 PUSH1 0x4 DUP3 ADD MSTORE PUSH1 0xC PUSH1 0x24 DUP3 ADD MSTORE PUSH12 0x6F75745F6F665F72616E6765 PUSH1 0xA0 SHL PUSH1 0x44 DUP3 ADD MSTORE SWAP1 MLOAD SWAP1 DUP2 SWAP1 SUB PUSH1 0x64 ADD SWAP1 REVERT JUMPDEST PUSH1 0x1 PUSH1 0x1 PUSH1 0xA0 SHL SUB DUP3 AND PUSH1 0x0 SWAP1 DUP2 MSTORE PUSH1 0x20 DUP2 SWAP1 MSTORE PUSH1 0x40 DUP2 KECCAK256 PUSH2 0x203C SWAP1 PUSH2 0x2E38 JUMP JUMPDEST DUP5 LT PUSH2 0x2068 JUMPI PUSH1 0x1 PUSH1 0x1 PUSH1 0xA0 SHL SUB DUP4 AND PUSH1 0x0 SWAP1 DUP2 MSTORE PUSH1 0x20 DUP2 SWAP1 MSTORE PUSH1 0x40 SWAP1 KECCAK256 PUSH2 0x2063 SWAP1 PUSH2 0x2E38 JUMP JUMPDEST PUSH2 0x206A JUMP JUMPDEST DUP4 JUMPDEST SWAP1 POP PUSH1 0x0 DUP6 DUP3 SUB PUSH8 0xFFFFFFFFFFFFFFFF DUP2 GT DUP1 ISZERO PUSH2 0x2087 JUMPI PUSH1 0x0 DUP1 REVERT JUMPDEST POP PUSH1 0x40 MLOAD SWAP1 DUP1 DUP3 MSTORE DUP1 PUSH1 0x20 MUL PUSH1 0x20 ADD DUP3 ADD PUSH1 0x40 MSTORE DUP1 ISZERO PUSH2 0x20B1 JUMPI DUP2 PUSH1 0x20 ADD PUSH1 0x20 DUP3 MUL DUP1 CALLDATASIZE DUP4 CALLDATACOPY ADD SWAP1 POP JUMPDEST POP SWAP1 POP PUSH1 0x0 JUMPDEST DUP3 DUP8 LT ISZERO PUSH2 0x2111 JUMPI PUSH1 0x1 PUSH1 0x1 PUSH1 0xA0 SHL SUB DUP6 AND PUSH1 0x0 SWAP1 DUP2 MSTORE PUSH1 0x20 DUP2 SWAP1 MSTORE PUSH1 0x40 SWAP1 KECCAK256 PUSH2 0x20E1 SWAP1 DUP9 PUSH2 0x2E2C JUMP JUMPDEST DUP3 DUP3 DUP2 MLOAD DUP2 LT PUSH2 0x20ED JUMPI INVALID JUMPDEST PUSH1 0x1 PUSH1 0x1 PUSH1 0xA0 SHL SUB SWAP1 SWAP3 AND PUSH1 0x20 SWAP3 DUP4 MUL SWAP2 SWAP1 SWAP2 ADD SWAP1 SWAP2 ADD MSTORE PUSH1 0x1 SWAP7 DUP8 ADD SWAP7 ADD PUSH2 0x20B7 JUMP JUMPDEST POP SWAP2 POP POP JUMPDEST SWAP4 SWAP3 POP POP POP JUMP JUMPDEST PUSH1 0xD SLOAD DUP2 JUMP JUMPDEST PUSH2 0x212B PUSH2 0xC69 JUMP JUMPDEST PUSH1 0x1 PUSH1 0x1 PUSH1 0xA0 SHL SUB AND PUSH2 0x213C PUSH2 0xC6D JUMP JUMPDEST PUSH1 0x1 PUSH1 0x1 PUSH1 0xA0 SHL SUB AND EQ PUSH2 0x2185 JUMPI PUSH1 0x40 DUP1 MLOAD PUSH3 0x461BCD PUSH1 0xE5 SHL DUP2 MSTORE PUSH1 0x20 PUSH1 0x4 DUP3 ADD DUP2 SWAP1 MSTORE PUSH1 0x24 DUP3 ADD MSTORE PUSH1 0x0 DUP1 MLOAD PUSH1 0x20 PUSH2 0x3BCD DUP4 CODECOPY DUP2 MLOAD SWAP2 MSTORE PUSH1 0x44 DUP3 ADD MSTORE SWAP1 MLOAD SWAP1 DUP2 SWAP1 SUB PUSH1 0x64 ADD SWAP1 REVERT JUMPDEST PUSH2 0x218D PUSH2 0x2A2E JUMP JUMPDEST PUSH1 0xA SSTORE JUMP JUMPDEST PUSH1 0xA SLOAD DUP2 JUMP JUMPDEST PUSH1 0x3 SLOAD PUSH1 0x1 PUSH1 0xA0 SHL SWAP1 DIV PUSH1 0xFF AND ISZERO PUSH2 0x21F2 JUMPI PUSH1 0x40 DUP1 MLOAD PUSH3 0x461BCD PUSH1 0xE5 SHL DUP2 MSTORE PUSH1 0x20 PUSH1 0x4 DUP3 ADD MSTORE PUSH1 0x18 PUSH1 0x24 DUP3 ADD MSTORE PUSH24 0x14DD185AD9481A185CC81899595B881CDD5CDC195B991959 PUSH1 0x42 SHL PUSH1 0x44 DUP3 ADD MSTORE SWAP1 MLOAD SWAP1 DUP2 SWAP1 SUB PUSH1 0x64 ADD SWAP1 REVERT JUMPDEST PUSH1 0x4 SLOAD PUSH1 0x1 PUSH1 0x1 PUSH1 0xA0 SHL SUB AND PUSH2 0x224F JUMPI PUSH1 0x40 DUP1 MLOAD PUSH3 0x461BCD PUSH1 0xE5 SHL DUP2 MSTORE PUSH1 0x20 PUSH1 0x4 DUP3 ADD MSTORE PUSH1 0x1C PUSH1 0x24 DUP3 ADD MSTORE PUSH32 0x61697264726F704F776E6572206973207A65726F206164647265737300000000 PUSH1 0x44 DUP3 ADD MSTORE SWAP1 MLOAD SWAP1 DUP2 SWAP1 SUB PUSH1 0x64 ADD SWAP1 REVERT JUMPDEST PUSH1 0x4 SLOAD PUSH1 0x1 PUSH1 0x1 PUSH1 0xA0 SHL SUB AND CALLER EQ PUSH2 0x22A9 JUMPI PUSH1 0x40 DUP1 MLOAD PUSH3 0x461BCD PUSH1 0xE5 SHL DUP2 MSTORE PUSH1 0x20 PUSH1 0x4 DUP3 ADD MSTORE PUSH1 0x18 PUSH1 0x24 DUP3 ADD MSTORE PUSH24 0x496E73756666696369656E74207065726D697373696F6E73 PUSH1 0x40 SHL PUSH1 0x44 DUP3 ADD MSTORE SWAP1 MLOAD SWAP1 DUP2 SWAP1 SUB PUSH1 0x64 ADD SWAP1 REVERT JUMPDEST PUSH1 0x12 SLOAD PUSH2 0x22B5 JUMPI NUMBER PUSH1 0x8 SSTORE JUMPDEST PUSH2 0x22BD PUSH2 0x2A2E JUMP JUMPDEST PUSH1 0x0 JUMPDEST DUP3 MLOAD DUP2 LT ISZERO PUSH2 0x1BFC JUMPI PUSH2 0x22E6 DUP4 DUP3 DUP2 MLOAD DUP2 LT PUSH2 0x22D8 JUMPI INVALID JUMPDEST PUSH1 0x20 MUL PUSH1 0x20 ADD ADD MLOAD DUP4 PUSH2 0x2E43 JUMP JUMPDEST DUP2 ISZERO PUSH2 0x234B JUMPI DUP3 DUP2 DUP2 MLOAD DUP2 LT PUSH2 0x22F8 JUMPI INVALID JUMPDEST PUSH1 0x20 MUL PUSH1 0x20 ADD ADD MLOAD PUSH1 0x1 PUSH1 0x1 PUSH1 0xA0 SHL SUB AND CALLER PUSH1 0x1 PUSH1 0x1 PUSH1 0xA0 SHL SUB AND PUSH32 0x39A7D1D43DEF1F7FCD2DBFBBF5D2FFCFDCFFDECE3776DAD1AC48A1C9652AE936 DUP5 PUSH1 0x40 MLOAD DUP1 DUP3 DUP2 MSTORE PUSH1 0x20 ADD SWAP2 POP POP PUSH1 0x40 MLOAD DUP1 SWAP2 SUB SWAP1 LOG3 JUMPDEST PUSH1 0x1 ADD PUSH2 0x22C0 JUMP JUMPDEST PUSH1 0x0 PUSH2 0x235F PUSH1 0x1 PUSH2 0x2E38 JUMP JUMPDEST SWAP1 POP SWAP1 JUMP JUMPDEST PUSH1 0x7 SLOAD DUP2 JUMP JUMPDEST PUSH1 0x0 PUSH1 0x1 PUSH1 0x1 PUSH1 0xA0 SHL SUB DUP3 AND PUSH2 0x23B6 JUMPI PUSH1 0x40 DUP1 MLOAD PUSH3 0x461BCD PUSH1 0xE5 SHL DUP2 MSTORE PUSH1 0x20 PUSH1 0x4 DUP3 ADD MSTORE PUSH1 0xC PUSH1 0x24 DUP3 ADD MSTORE PUSH12 0x5A65726F2061646472657373 PUSH1 0xA0 SHL PUSH1 0x44 DUP3 ADD MSTORE SWAP1 MLOAD SWAP1 DUP2 SWAP1 SUB PUSH1 0x64 ADD SWAP1 REVERT JUMPDEST PUSH1 0x1 PUSH1 0x1 PUSH1 0xA0 SHL SUB DUP3 AND PUSH1 0x0 SWAP1 DUP2 MSTORE PUSH1 0x11 PUSH1 0x20 MSTORE PUSH1 0x40 SWAP1 KECCAK256 SLOAD DUP1 PUSH2 0x23DE JUMPI PUSH1 0x0 SWAP2 POP POP PUSH2 0x19B1 JUMP JUMPDEST PUSH1 0x0 PUSH1 0x12 PUSH1 0x1 DUP4 SUB DUP2 SLOAD DUP2 LT PUSH2 0x23F0 JUMPI INVALID JUMPDEST SWAP1 PUSH1 0x0 MSTORE PUSH1 0x20 PUSH1 0x0 KECCAK256 SWAP1 PUSH1 0x6 MUL ADD SWAP1 POP PUSH1 0x8 SLOAD NUMBER GT ISZERO PUSH2 0x248D JUMPI PUSH1 0x0 PUSH2 0x243F PUSH1 0xC SLOAD PUSH2 0xE8D PUSH8 0xDE0B6B3A7640000 PUSH2 0x2439 PUSH1 0xA SLOAD PUSH2 0x2439 PUSH1 0x8 SLOAD NUMBER PUSH2 0x2B49 SWAP1 SWAP2 SWAP1 PUSH4 0xFFFFFFFF AND JUMP JUMPDEST SWAP1 PUSH2 0x2A89 JUMP JUMPDEST SWAP1 POP PUSH2 0x2456 PUSH1 0xB SLOAD DUP3 PUSH2 0x2DD2 SWAP1 SWAP2 SWAP1 PUSH4 0xFFFFFFFF AND JUMP JUMPDEST SWAP1 POP PUSH2 0x2483 DUP3 PUSH1 0x5 ADD SLOAD PUSH2 0xE93 PUSH8 0xDE0B6B3A7640000 PUSH2 0xE8D DUP6 DUP8 PUSH1 0x1 ADD SLOAD PUSH2 0x2A89 SWAP1 SWAP2 SWAP1 PUSH4 0xFFFFFFFF AND JUMP JUMPDEST SWAP4 POP POP POP POP PUSH2 0x19B1 JUMP JUMPDEST PUSH2 0x24BA DUP2 PUSH1 0x5 ADD SLOAD PUSH2 0xE93 PUSH8 0xDE0B6B3A7640000 PUSH2 0xE8D PUSH1 0xB SLOAD DUP7 PUSH1 0x1 ADD SLOAD PUSH2 0x2A89 SWAP1 SWAP2 SWAP1 PUSH4 0xFFFFFFFF AND JUMP JUMPDEST SWAP3 POP POP POP PUSH2 0x19B1 JUMP JUMPDEST PUSH2 0x24CB PUSH2 0xC69 JUMP JUMPDEST PUSH1 0x1 PUSH1 0x1 PUSH1 0xA0 SHL SUB AND PUSH2 0x24DC PUSH2 0xC6D JUMP JUMPDEST PUSH1 0x1 PUSH1 0x1 PUSH1 0xA0 SHL SUB AND EQ PUSH2 0x2525 JUMPI PUSH1 0x40 DUP1 MLOAD PUSH3 0x461BCD PUSH1 0xE5 SHL DUP2 MSTORE PUSH1 0x20 PUSH1 0x4 DUP3 ADD DUP2 SWAP1 MSTORE PUSH1 0x24 DUP3 ADD MSTORE PUSH1 0x0 DUP1 MLOAD PUSH1 0x20 PUSH2 0x3BCD DUP4 CODECOPY DUP2 MLOAD SWAP2 MSTORE PUSH1 0x44 DUP3 ADD MSTORE SWAP1 MLOAD SWAP1 DUP2 SWAP1 SUB PUSH1 0x64 ADD SWAP1 REVERT JUMPDEST PUSH1 0xF SSTORE JUMP JUMPDEST PUSH1 0x3 SLOAD PUSH1 0x1 PUSH1 0xA0 SHL SWAP1 DIV PUSH1 0xFF AND ISZERO PUSH2 0x2584 JUMPI PUSH1 0x40 DUP1 MLOAD PUSH3 0x461BCD PUSH1 0xE5 SHL DUP2 MSTORE PUSH1 0x20 PUSH1 0x4 DUP3 ADD MSTORE PUSH1 0x18 PUSH1 0x24 DUP3 ADD MSTORE PUSH24 0x14DD185AD9481A185CC81899595B881CDD5CDC195B991959 PUSH1 0x42 SHL PUSH1 0x44 DUP3 ADD MSTORE SWAP1 MLOAD SWAP1 DUP2 SWAP1 SUB PUSH1 0x64 ADD SWAP1 REVERT JUMPDEST PUSH1 0x0 CALLVALUE GT DUP1 ISZERO PUSH2 0x2596 JUMPI POP PUSH1 0x7 SLOAD CALLVALUE LT ISZERO JUMPDEST DUP1 ISZERO PUSH2 0x25A4 JUMPI POP PUSH1 0x6 SLOAD CALLVALUE GT ISZERO JUMPDEST PUSH2 0x25EC JUMPI PUSH1 0x40 DUP1 MLOAD PUSH3 0x461BCD PUSH1 0xE5 SHL DUP2 MSTORE PUSH1 0x20 PUSH1 0x4 DUP3 ADD MSTORE PUSH1 0x14 PUSH1 0x24 DUP3 ADD MSTORE PUSH20 0x3232B837B9B4BA1030B6B7BAB73A1032B93937B9 PUSH1 0x61 SHL PUSH1 0x44 DUP3 ADD MSTORE SWAP1 MLOAD SWAP1 DUP2 SWAP1 SUB PUSH1 0x64 ADD SWAP1 REVERT JUMPDEST PUSH1 0x12 SLOAD PUSH2 0x25F8 JUMPI NUMBER PUSH1 0x8 SSTORE JUMPDEST PUSH2 0x2600 PUSH2 0x2A2E JUMP JUMPDEST PUSH2 0x2608 PUSH2 0x3142 JUMP JUMPDEST PUSH2 0x2610 PUSH2 0x337D JUMP JUMPDEST PUSH2 0x2618 PUSH2 0x36FE JUMP JUMPDEST PUSH1 0x40 DUP1 MLOAD CALLVALUE DUP2 MSTORE SWAP1 MLOAD CALLER SWAP2 PUSH32 0xE1FFFCC4923D04B559F4D29A8BFC6CDA04EB5B0D3C460751C2402C5C5CC9109C SWAP2 SWAP1 DUP2 SWAP1 SUB PUSH1 0x20 ADD SWAP1 LOG2 JUMP JUMPDEST PUSH1 0x0 DUP1 PUSH2 0x10DC PUSH1 0x1 DUP5 PUSH2 0x3855 JUMP JUMPDEST PUSH1 0xB SLOAD DUP2 JUMP JUMPDEST PUSH2 0x266C PUSH2 0xC69 JUMP JUMPDEST PUSH1 0x1 PUSH1 0x1 PUSH1 0xA0 SHL SUB AND PUSH2 0x267D PUSH2 0xC6D JUMP JUMPDEST PUSH1 0x1 PUSH1 0x1 PUSH1 0xA0 SHL SUB AND EQ PUSH2 0x26C6 JUMPI PUSH1 0x40 DUP1 MLOAD PUSH3 0x461BCD PUSH1 0xE5 SHL DUP2 MSTORE PUSH1 0x20 PUSH1 0x4 DUP3 ADD DUP2 SWAP1 MSTORE PUSH1 0x24 DUP3 ADD MSTORE PUSH1 0x0 DUP1 MLOAD PUSH1 0x20 PUSH2 0x3BCD DUP4 CODECOPY DUP2 MLOAD SWAP2 MSTORE PUSH1 0x44 DUP3 ADD MSTORE SWAP1 MLOAD SWAP1 DUP2 SWAP1 SUB PUSH1 0x64 ADD SWAP1 REVERT JUMPDEST PUSH1 0x3 DUP1 SLOAD PUSH1 0xFF PUSH1 0xA0 SHL NOT DUP2 AND PUSH1 0x1 PUSH1 0xA0 SHL SWAP2 DUP3 SWAP1 DIV PUSH1 0xFF AND ISZERO SWAP1 SWAP2 MUL OR SWAP1 SSTORE JUMP JUMPDEST PUSH1 0x60 PUSH1 0x1 PUSH1 0x1 PUSH1 0xA0 SHL SUB DUP3 AND PUSH2 0x2744 JUMPI PUSH1 0x40 DUP1 MLOAD PUSH3 0x461BCD PUSH1 0xE5 SHL DUP2 MSTORE PUSH1 0x20 PUSH1 0x4 DUP3 ADD MSTORE PUSH1 0x1B PUSH1 0x24 DUP3 ADD MSTORE PUSH32 0x496E766974657220697320746865207A65726F20616464726573730000000000 PUSH1 0x44 DUP3 ADD MSTORE SWAP1 MLOAD SWAP1 DUP2 SWAP1 SUB PUSH1 0x64 ADD SWAP1 REVERT JUMPDEST DUP3 DUP5 LT DUP1 ISZERO PUSH2 0x2773 JUMPI POP PUSH1 0x1 PUSH1 0x1 PUSH1 0xA0 SHL SUB DUP3 AND PUSH1 0x0 SWAP1 DUP2 MSTORE PUSH1 0x20 DUP2 SWAP1 MSTORE PUSH1 0x40 SWAP1 KECCAK256 PUSH2 0x276F SWAP1 PUSH2 0x2E38 JUMP JUMPDEST DUP4 GT ISZERO JUMPDEST PUSH2 0x27B3 JUMPI PUSH1 0x40 DUP1 MLOAD PUSH3 0x461BCD PUSH1 0xE5 SHL DUP2 MSTORE PUSH1 0x20 PUSH1 0x4 DUP3 ADD MSTORE PUSH1 0xC PUSH1 0x24 DUP3 ADD MSTORE PUSH12 0x6F75745F6F665F72616E6765 PUSH1 0xA0 SHL PUSH1 0x44 DUP3 ADD MSTORE SWAP1 MLOAD SWAP1 DUP2 SWAP1 SUB PUSH1 0x64 ADD SWAP1 REVERT JUMPDEST PUSH1 0x0 DUP5 DUP5 SUB PUSH8 0xFFFFFFFFFFFFFFFF DUP2 GT DUP1 ISZERO PUSH2 0x27CE JUMPI PUSH1 0x0 DUP1 REVERT JUMPDEST POP PUSH1 0x40 MLOAD SWAP1 DUP1 DUP3 MSTORE DUP1 PUSH1 0x20 MUL PUSH1 0x20 ADD DUP3 ADD PUSH1 0x40 MSTORE DUP1 ISZERO PUSH2 0x27F8 JUMPI DUP2 PUSH1 0x20 ADD PUSH1 0x20 DUP3 MUL DUP1 CALLDATASIZE DUP4 CALLDATACOPY ADD SWAP1 POP JUMPDEST POP SWAP1 POP PUSH1 0x0 JUMPDEST DUP5 DUP7 LT ISZERO PUSH2 0x2858 JUMPI PUSH1 0x1 PUSH1 0x1 PUSH1 0xA0 SHL SUB DUP5 AND PUSH1 0x0 SWAP1 DUP2 MSTORE PUSH1 0x20 DUP2 SWAP1 MSTORE PUSH1 0x40 SWAP1 KECCAK256 PUSH2 0x2828 SWAP1 DUP8 PUSH2 0x2E2C JUMP JUMPDEST DUP3 DUP3 DUP2 MLOAD DUP2 LT PUSH2 0x2834 JUMPI INVALID JUMPDEST PUSH1 0x1 PUSH1 0x1 PUSH1 0xA0 SHL SUB SWAP1 SWAP3 AND PUSH1 0x20 SWAP3 DUP4 MUL SWAP2 SWAP1 SWAP2 ADD SWAP1 SWAP2 ADD MSTORE PUSH1 0x1 SWAP6 DUP7 ADD SWAP6 ADD PUSH2 0x27FE JUMP JUMPDEST POP SWAP5 SWAP4 POP POP POP POP JUMP JUMPDEST PUSH8 0xDE0B6B3A7640000 DUP2 JUMP JUMPDEST PUSH1 0x10 SLOAD DUP2 JUMP JUMPDEST PUSH2 0x287B PUSH2 0xC69 JUMP JUMPDEST PUSH1 0x1 PUSH1 0x1 PUSH1 0xA0 SHL SUB AND PUSH2 0x288C PUSH2 0xC6D JUMP JUMPDEST PUSH1 0x1 PUSH1 0x1 PUSH1 0xA0 SHL SUB AND EQ PUSH2 0x28D5 JUMPI PUSH1 0x40 DUP1 MLOAD PUSH3 0x461BCD PUSH1 0xE5 SHL DUP2 MSTORE PUSH1 0x20 PUSH1 0x4 DUP3 ADD DUP2 SWAP1 MSTORE PUSH1 0x24 DUP3 ADD MSTORE PUSH1 0x0 DUP1 MLOAD PUSH1 0x20 PUSH2 0x3BCD DUP4 CODECOPY DUP2 MLOAD SWAP2 MSTORE PUSH1 0x44 DUP3 ADD MSTORE SWAP1 MLOAD SWAP1 DUP2 SWAP1 SUB PUSH1 0x64 ADD SWAP1 REVERT JUMPDEST PUSH1 0x1 PUSH1 0x1 PUSH1 0xA0 SHL SUB DUP2 AND PUSH2 0x291A JUMPI PUSH1 0x40 MLOAD PUSH3 0x461BCD PUSH1 0xE5 SHL DUP2 MSTORE PUSH1 0x4 ADD DUP1 DUP1 PUSH1 0x20 ADD DUP3 DUP2 SUB DUP3 MSTORE PUSH1 0x26 DUP2 MSTORE PUSH1 0x20 ADD DUP1 PUSH2 0x3B38 PUSH1 0x26 SWAP2 CODECOPY PUSH1 0x40 ADD SWAP2 POP POP PUSH1 0x40 MLOAD DUP1 SWAP2 SUB SWAP1 REVERT JUMPDEST PUSH1 0x3 SLOAD PUSH1 0x40 MLOAD PUSH1 0x1 PUSH1 0x1 PUSH1 0xA0 SHL SUB DUP1 DUP5 AND SWAP3 AND SWAP1 PUSH32 0x8BE0079C531659141344CD1FD0A4F28419497F9722A3DAAFE3B4186F6B6457E0 SWAP1 PUSH1 0x0 SWAP1 LOG3 PUSH1 0x3 DUP1 SLOAD PUSH1 0x1 PUSH1 0x1 PUSH1 0xA0 SHL SUB NOT AND PUSH1 0x1 PUSH1 0x1 PUSH1 0xA0 SHL SUB SWAP3 SWAP1 SWAP3 AND SWAP2 SWAP1 SWAP2 OR SWAP1 SSTORE JUMP JUMPDEST PUSH1 0x0 PUSH1 0x1 PUSH1 0x1 PUSH1 0xA0 SHL SUB DUP3 AND PUSH2 0x29C2 JUMPI PUSH1 0x40 DUP1 MLOAD PUSH3 0x461BCD PUSH1 0xE5 SHL DUP2 MSTORE PUSH1 0x20 PUSH1 0x4 DUP3 ADD MSTORE PUSH1 0xC PUSH1 0x24 DUP3 ADD MSTORE PUSH12 0x5A65726F2061646472657373 PUSH1 0xA0 SHL PUSH1 0x44 DUP3 ADD MSTORE SWAP1 MLOAD SWAP1 DUP2 SWAP1 SUB PUSH1 0x64 ADD SWAP1 REVERT JUMPDEST PUSH1 0x1 PUSH1 0x1 PUSH1 0xA0 SHL SUB DUP3 AND PUSH1 0x0 SWAP1 DUP2 MSTORE PUSH1 0x11 PUSH1 0x20 MSTORE PUSH1 0x40 SWAP1 KECCAK256 SLOAD DUP1 PUSH2 0x29EA JUMPI PUSH1 0x0 SWAP2 POP POP PUSH2 0x19B1 JUMP JUMPDEST PUSH1 0x0 PUSH1 0x12 PUSH1 0x1 DUP4 SUB DUP2 SLOAD DUP2 LT PUSH2 0x29FC JUMPI INVALID JUMPDEST SWAP1 PUSH1 0x0 MSTORE PUSH1 0x20 PUSH1 0x0 KECCAK256 SWAP1 PUSH1 0x6 MUL ADD SWAP1 POP PUSH1 0x0 DUP2 PUSH1 0x3 ADD SLOAD GT ISZERO PUSH2 0x2A24 JUMPI PUSH1 0x1 SWAP3 POP POP POP PUSH2 0x19B1 JUMP JUMPDEST POP PUSH1 0x0 SWAP4 SWAP3 POP POP POP JUMP JUMPDEST PUSH1 0x8 SLOAD NUMBER GT DUP1 ISZERO PUSH2 0x2A41 JUMPI POP PUSH1 0x0 PUSH1 0xC SLOAD GT JUMPDEST ISZERO PUSH2 0x2A87 JUMPI PUSH2 0x2A7F PUSH2 0x2A76 PUSH1 0xC SLOAD PUSH2 0xE8D PUSH8 0xDE0B6B3A7640000 PUSH2 0x2439 PUSH1 0xA SLOAD PUSH2 0x2439 PUSH1 0x8 SLOAD NUMBER PUSH2 0x2B49 SWAP1 SWAP2 SWAP1 PUSH4 0xFFFFFFFF AND JUMP JUMPDEST PUSH1 0xB SLOAD SWAP1 PUSH2 0x2DD2 JUMP JUMPDEST PUSH1 0xB SSTORE NUMBER PUSH1 0x8 SSTORE JUMPDEST JUMP JUMPDEST PUSH1 0x0 DUP3 PUSH2 0x2A98 JUMPI POP PUSH1 0x0 PUSH2 0x1D85 JUMP JUMPDEST DUP3 DUP3 MUL DUP3 DUP5 DUP3 DUP2 PUSH2 0x2AA5 JUMPI INVALID JUMPDEST DIV EQ PUSH2 0x1D82 JUMPI PUSH1 0x40 MLOAD PUSH3 0x461BCD PUSH1 0xE5 SHL DUP2 MSTORE PUSH1 0x4 ADD DUP1 DUP1 PUSH1 0x20 ADD DUP3 DUP2 SUB DUP3 MSTORE PUSH1 0x21 DUP2 MSTORE PUSH1 0x20 ADD DUP1 PUSH2 0x3BAC PUSH1 0x21 SWAP2 CODECOPY PUSH1 0x40 ADD SWAP2 POP POP PUSH1 0x40 MLOAD DUP1 SWAP2 SUB SWAP1 REVERT JUMPDEST PUSH1 0x0 DUP1 DUP3 GT PUSH2 0x2B38 JUMPI PUSH1 0x40 DUP1 MLOAD PUSH3 0x461BCD PUSH1 0xE5 SHL DUP2 MSTORE PUSH1 0x20 PUSH1 0x4 DUP3 ADD MSTORE PUSH1 0x1A PUSH1 0x24 DUP3 ADD MSTORE PUSH32 0x536166654D6174683A206469766973696F6E206279207A65726F000000000000 PUSH1 0x44 DUP3 ADD MSTORE SWAP1 MLOAD SWAP1 DUP2 SWAP1 SUB PUSH1 0x64 ADD SWAP1 REVERT JUMPDEST DUP2 DUP4 DUP2 PUSH2 0x2B41 JUMPI INVALID JUMPDEST DIV SWAP4 SWAP3 POP POP POP JUMP JUMPDEST PUSH1 0x0 DUP3 DUP3 GT ISZERO PUSH2 0x2BA0 JUMPI PUSH1 0x40 DUP1 MLOAD PUSH3 0x461BCD PUSH1 0xE5 SHL DUP2 MSTORE PUSH1 0x20 PUSH1 0x4 DUP3 ADD MSTORE PUSH1 0x1E PUSH1 0x24 DUP3 ADD MSTORE PUSH32 0x536166654D6174683A207375627472616374696F6E206F766572666C6F770000 PUSH1 0x44 DUP3 ADD MSTORE SWAP1 MLOAD SWAP1 DUP2 SWAP1 SUB PUSH1 0x64 ADD SWAP1 REVERT JUMPDEST POP SWAP1 SUB SWAP1 JUMP JUMPDEST PUSH1 0x10 SLOAD PUSH2 0x2BB3 SWAP1 DUP3 PUSH2 0x2B49 JUMP JUMPDEST PUSH1 0x10 SSTORE PUSH1 0xE SLOAD PUSH2 0x2BC3 SWAP1 DUP3 PUSH2 0x2DD2 JUMP JUMPDEST PUSH1 0xE SSTORE POP JUMP JUMPDEST PUSH1 0x0 DUP1 DUP1 DUP1 PUSH2 0x2BD8 DUP7 DUP7 PUSH2 0x386D JUMP JUMPDEST SWAP1 SWAP5 POP SWAP3 POP POP POP JUMPDEST SWAP3 POP SWAP3 SWAP1 POP JUMP JUMPDEST PUSH1 0x1 PUSH1 0x1 PUSH1 0xA0 SHL SUB DUP2 AND PUSH2 0x2C34 JUMPI PUSH1 0x40 DUP1 MLOAD PUSH3 0x461BCD PUSH1 0xE5 SHL DUP2 MSTORE PUSH1 0x20 PUSH1 0x4 DUP3 ADD MSTORE PUSH1 0xF PUSH1 0x24 DUP3 ADD MSTORE PUSH15 0x496E7669746572206973207A65726F PUSH1 0x88 SHL PUSH1 0x44 DUP3 ADD MSTORE SWAP1 MLOAD SWAP1 DUP2 SWAP1 SUB PUSH1 0x64 ADD SWAP1 REVERT JUMPDEST PUSH1 0x1 PUSH1 0x1 PUSH1 0xA0 SHL SUB DUP2 AND CALLER EQ ISZERO PUSH2 0x2C87 JUMPI PUSH1 0x40 DUP1 MLOAD PUSH3 0x461BCD PUSH1 0xE5 SHL DUP2 MSTORE PUSH1 0x20 PUSH1 0x4 DUP3 ADD MSTORE PUSH1 0x12 PUSH1 0x24 DUP3 ADD MSTORE PUSH18 0x24B73B34BA32B91034B99037B732B9B2B633 PUSH1 0x71 SHL PUSH1 0x44 DUP3 ADD MSTORE SWAP1 MLOAD SWAP1 DUP2 SWAP1 SUB PUSH1 0x64 ADD SWAP1 REVERT JUMPDEST CALLER PUSH1 0x0 DUP2 DUP2 MSTORE PUSH1 0x20 DUP2 SWAP1 MSTORE PUSH1 0x40 SWAP1 KECCAK256 PUSH2 0x2CA0 SWAP1 DUP4 PUSH2 0x38E8 JUMP JUMPDEST ISZERO PUSH2 0x2CE6 JUMPI PUSH1 0x40 DUP1 MLOAD PUSH3 0x461BCD PUSH1 0xE5 SHL DUP2 MSTORE PUSH1 0x20 PUSH1 0x4 DUP3 ADD MSTORE PUSH1 0x11 PUSH1 0x24 DUP3 ADD MSTORE PUSH17 0x26BABA3AB0B61034B73B34BA30BA34B7B7 PUSH1 0x79 SHL PUSH1 0x44 DUP3 ADD MSTORE SWAP1 MLOAD SWAP1 DUP2 SWAP1 SUB PUSH1 0x64 ADD SWAP1 REVERT JUMPDEST PUSH2 0x2CF2 PUSH1 0x1 DUP3 DUP5 PUSH2 0x38FD JUMP JUMPDEST PUSH2 0x2D3C JUMPI PUSH1 0x40 DUP1 MLOAD PUSH3 0x461BCD PUSH1 0xE5 SHL DUP2 MSTORE PUSH1 0x20 PUSH1 0x4 DUP3 ADD MSTORE PUSH1 0x16 PUSH1 0x24 DUP3 ADD MSTORE PUSH22 0x496E766974657220616C726561647920657869737473 PUSH1 0x50 SHL PUSH1 0x44 DUP3 ADD MSTORE SWAP1 MLOAD SWAP1 DUP2 SWAP1 SUB PUSH1 0x64 ADD SWAP1 REVERT JUMPDEST PUSH1 0x1 PUSH1 0x1 PUSH1 0xA0 SHL SUB DUP3 AND PUSH1 0x0 SWAP1 DUP2 MSTORE PUSH1 0x20 DUP2 SWAP1 MSTORE PUSH1 0x40 SWAP1 KECCAK256 PUSH2 0x2D5E SWAP1 DUP3 PUSH2 0x391E JUMP JUMPDEST PUSH2 0x1E9F JUMPI PUSH1 0x40 DUP1 MLOAD PUSH3 0x461BCD PUSH1 0xE5 SHL DUP2 MSTORE PUSH1 0x20 PUSH1 0x4 DUP3 ADD MSTORE PUSH1 0x1D PUSH1 0x24 DUP3 ADD MSTORE PUSH32 0x41646420696E7669746174696F6E206D6F7265207468616E206F6E6365000000 PUSH1 0x44 DUP3 ADD MSTORE SWAP1 MLOAD SWAP1 DUP2 SWAP1 SUB PUSH1 0x64 ADD SWAP1 REVERT JUMPDEST PUSH1 0xF SLOAD PUSH2 0x2DBC SWAP1 DUP3 PUSH2 0x2B49 JUMP JUMPDEST PUSH1 0xF SSTORE PUSH1 0xD SLOAD PUSH2 0x2DCC SWAP1 DUP3 PUSH2 0x2DD2 JUMP JUMPDEST PUSH1 0xD SSTORE POP JUMP JUMPDEST PUSH1 0x0 DUP3 DUP3 ADD DUP4 DUP2 LT ISZERO PUSH2 0x1D82 JUMPI PUSH1 0x40 DUP1 MLOAD PUSH3 0x461BCD PUSH1 0xE5 SHL DUP2 MSTORE PUSH1 0x20 PUSH1 0x4 DUP3 ADD MSTORE PUSH1 0x1B PUSH1 0x24 DUP3 ADD MSTORE PUSH32 0x536166654D6174683A206164646974696F6E206F766572666C6F770000000000 PUSH1 0x44 DUP3 ADD MSTORE SWAP1 MLOAD SWAP1 DUP2 SWAP1 SUB PUSH1 0x64 ADD SWAP1 REVERT JUMPDEST PUSH1 0x0 PUSH2 0x1D82 DUP4 DUP4 PUSH2 0x3933 JUMP JUMPDEST PUSH1 0x0 PUSH2 0x1D85 DUP3 PUSH2 0x3997 JUMP JUMPDEST PUSH1 0x1 PUSH1 0x1 PUSH1 0xA0 SHL SUB DUP3 AND PUSH2 0x2E8D JUMPI PUSH1 0x40 DUP1 MLOAD PUSH3 0x461BCD PUSH1 0xE5 SHL DUP2 MSTORE PUSH1 0x20 PUSH1 0x4 DUP3 ADD MSTORE PUSH1 0xC PUSH1 0x24 DUP3 ADD MSTORE PUSH12 0x5A65726F2061646472657373 PUSH1 0xA0 SHL PUSH1 0x44 DUP3 ADD MSTORE SWAP1 MLOAD SWAP1 DUP2 SWAP1 SUB PUSH1 0x64 ADD SWAP1 REVERT JUMPDEST PUSH1 0x0 DUP2 GT PUSH2 0x2EE2 JUMPI PUSH1 0x40 DUP1 MLOAD PUSH3 0x461BCD PUSH1 0xE5 SHL DUP2 MSTORE PUSH1 0x20 PUSH1 0x4 DUP3 ADD MSTORE PUSH1 0x19 PUSH1 0x24 DUP3 ADD MSTORE PUSH32 0x57726F6E67206E756D626572206F66206169722064726F707300000000000000 PUSH1 0x44 DUP3 ADD MSTORE SWAP1 MLOAD SWAP1 DUP2 SWAP1 SUB PUSH1 0x64 ADD SWAP1 REVERT JUMPDEST PUSH1 0x1 PUSH1 0x1 PUSH1 0xA0 SHL SUB DUP3 AND PUSH1 0x0 SWAP1 DUP2 MSTORE PUSH1 0x11 PUSH1 0x20 MSTORE PUSH1 0x40 SWAP1 KECCAK256 SLOAD DUP1 PUSH2 0x2FE6 JUMPI PUSH1 0x0 PUSH2 0x2F23 PUSH8 0xDE0B6B3A7640000 PUSH2 0xE8D PUSH1 0xB SLOAD DUP7 PUSH2 0x2A89 SWAP1 SWAP2 SWAP1 PUSH4 0xFFFFFFFF AND JUMP JUMPDEST SWAP1 POP PUSH1 0x12 PUSH1 0x40 MLOAD DUP1 PUSH1 0xC0 ADD PUSH1 0x40 MSTORE DUP1 PUSH1 0x0 ISZERO ISZERO DUP2 MSTORE PUSH1 0x20 ADD DUP6 DUP2 MSTORE PUSH1 0x20 ADD PUSH1 0x0 DUP2 MSTORE PUSH1 0x20 ADD PUSH1 0x0 DUP2 MSTORE PUSH1 0x20 ADD PUSH2 0x2F64 PUSH1 0x9 SLOAD NUMBER PUSH2 0x2DD2 SWAP1 SWAP2 SWAP1 PUSH4 0xFFFFFFFF AND JUMP JUMPDEST DUP2 MSTORE PUSH1 0x20 SWAP1 DUP2 ADD SWAP4 SWAP1 SWAP4 MSTORE DUP2 SLOAD PUSH1 0x1 DUP1 DUP3 ADD DUP5 SSTORE PUSH1 0x0 SWAP4 DUP5 MSTORE DUP5 DUP5 KECCAK256 DUP4 MLOAD PUSH1 0x6 SWAP1 SWAP4 MUL ADD DUP1 SLOAD PUSH1 0xFF NOT AND SWAP3 ISZERO ISZERO SWAP3 SWAP1 SWAP3 OR DUP3 SSTORE DUP3 DUP6 ADD MLOAD SWAP1 DUP3 ADD SSTORE PUSH1 0x40 DUP1 DUP4 ADD MLOAD PUSH1 0x2 DUP4 ADD SSTORE PUSH1 0x60 DUP4 ADD MLOAD PUSH1 0x3 DUP4 ADD SSTORE PUSH1 0x80 DUP4 ADD MLOAD PUSH1 0x4 DUP4 ADD SSTORE PUSH1 0xA0 SWAP1 SWAP3 ADD MLOAD PUSH1 0x5 SWAP1 SWAP2 ADD SSTORE PUSH1 0x12 SLOAD PUSH1 0x1 PUSH1 0x1 PUSH1 0xA0 SHL SUB DUP8 AND DUP4 MSTORE PUSH1 0x11 SWAP1 SWAP4 MSTORE SWAP1 KECCAK256 SSTORE PUSH2 0x312D JUMP JUMPDEST PUSH1 0x0 PUSH1 0x12 PUSH1 0x1 DUP4 SUB DUP2 SLOAD DUP2 LT PUSH2 0x2FF8 JUMPI INVALID JUMPDEST SWAP1 PUSH1 0x0 MSTORE PUSH1 0x20 PUSH1 0x0 KECCAK256 SWAP1 PUSH1 0x6 MUL ADD SWAP1 POP PUSH1 0x0 DUP2 PUSH1 0x1 ADD SLOAD GT ISZERO PUSH2 0x30E0 JUMPI PUSH1 0x0 PUSH2 0x3044 DUP3 PUSH1 0x5 ADD SLOAD PUSH2 0xE93 PUSH8 0xDE0B6B3A7640000 PUSH2 0xE8D PUSH1 0xB SLOAD DUP8 PUSH1 0x1 ADD SLOAD PUSH2 0x2A89 SWAP1 SWAP2 SWAP1 PUSH4 0xFFFFFFFF AND JUMP JUMPDEST SWAP1 POP DUP1 ISZERO PUSH2 0x30DE JUMPI PUSH1 0x10 SLOAD PUSH2 0x305B JUMPI POP PUSH1 0x0 PUSH2 0x306A JUMP JUMPDEST PUSH1 0x10 SLOAD DUP2 GT ISZERO PUSH2 0x306A JUMPI POP PUSH1 0x10 SLOAD JUMPDEST PUSH2 0x3073 DUP2 PUSH2 0x2BA6 JUMP JUMPDEST DUP1 ISZERO PUSH2 0x30DE JUMPI PUSH1 0x40 MLOAD PUSH1 0x1 PUSH1 0x1 PUSH1 0xA0 SHL SUB DUP7 AND SWAP1 DUP3 ISZERO PUSH2 0x8FC MUL SWAP1 DUP4 SWAP1 PUSH1 0x0 DUP2 DUP2 DUP2 DUP6 DUP9 DUP9 CALL SWAP4 POP POP POP POP ISZERO DUP1 ISZERO PUSH2 0x30AF JUMPI RETURNDATASIZE PUSH1 0x0 DUP1 RETURNDATACOPY RETURNDATASIZE PUSH1 0x0 REVERT JUMPDEST POP PUSH1 0x40 DUP1 MLOAD DUP3 DUP2 MSTORE SWAP1 MLOAD PUSH1 0x1 PUSH1 0x1 PUSH1 0xA0 SHL SUB DUP8 AND SWAP2 PUSH1 0x0 DUP1 MLOAD PUSH1 0x20 PUSH2 0x3C15 DUP4 CODECOPY DUP2 MLOAD SWAP2 MSTORE SWAP2 SWAP1 DUP2 SWAP1 SUB PUSH1 0x20 ADD SWAP1 LOG2 JUMPDEST POP JUMPDEST PUSH1 0x1 DUP2 ADD SLOAD PUSH2 0x30EF SWAP1 DUP5 PUSH2 0x2DD2 JUMP JUMPDEST PUSH1 0x1 DUP3 ADD SSTORE PUSH1 0x9 SLOAD PUSH2 0x3102 SWAP1 NUMBER SWAP1 PUSH2 0x2DD2 JUMP JUMPDEST PUSH1 0x4 DUP3 ADD SSTORE PUSH1 0xB SLOAD PUSH1 0x1 DUP3 ADD SLOAD PUSH2 0x3126 SWAP2 PUSH8 0xDE0B6B3A7640000 SWAP2 PUSH2 0xE8D SWAP2 PUSH2 0x2A89 JUMP JUMPDEST PUSH1 0x5 SWAP1 SWAP2 ADD SSTORE JUMPDEST PUSH1 0xC SLOAD PUSH2 0x313A SWAP1 DUP4 PUSH2 0x2DD2 JUMP JUMPDEST PUSH1 0xC SSTORE POP POP POP JUMP JUMPDEST CALLER PUSH1 0x0 SWAP1 DUP2 MSTORE PUSH1 0x11 PUSH1 0x20 MSTORE PUSH1 0x40 SWAP1 KECCAK256 SLOAD CALLVALUE DUP2 PUSH2 0x3234 JUMPI PUSH1 0x0 PUSH2 0x317B PUSH8 0xDE0B6B3A7640000 PUSH2 0xE8D PUSH1 0xB SLOAD DUP6 PUSH2 0x2A89 SWAP1 SWAP2 SWAP1 PUSH4 0xFFFFFFFF AND JUMP JUMPDEST SWAP1 POP PUSH1 0x12 PUSH1 0x40 MLOAD DUP1 PUSH1 0xC0 ADD PUSH1 0x40 MSTORE DUP1 PUSH1 0x0 ISZERO ISZERO DUP2 MSTORE PUSH1 0x20 ADD DUP5 DUP2 MSTORE PUSH1 0x20 ADD PUSH1 0x0 DUP2 MSTORE PUSH1 0x20 ADD DUP5 DUP2 MSTORE PUSH1 0x20 ADD PUSH2 0x31BB PUSH1 0x9 SLOAD NUMBER PUSH2 0x2DD2 SWAP1 SWAP2 SWAP1 PUSH4 0xFFFFFFFF AND JUMP JUMPDEST DUP2 MSTORE PUSH1 0x20 SWAP1 DUP2 ADD SWAP4 SWAP1 SWAP4 MSTORE DUP2 SLOAD PUSH1 0x1 DUP1 DUP3 ADD DUP5 SSTORE PUSH1 0x0 SWAP4 DUP5 MSTORE DUP5 DUP5 KECCAK256 DUP4 MLOAD PUSH1 0x6 SWAP1 SWAP4 MUL ADD DUP1 SLOAD PUSH1 0xFF NOT AND SWAP3 ISZERO ISZERO SWAP3 SWAP1 SWAP3 OR DUP3 SSTORE DUP3 DUP6 ADD MLOAD SWAP1 DUP3 ADD SSTORE PUSH1 0x40 DUP1 DUP4 ADD MLOAD PUSH1 0x2 DUP4 ADD SSTORE PUSH1 0x60 DUP4 ADD MLOAD PUSH1 0x3 DUP4 ADD SSTORE PUSH1 0x80 DUP4 ADD MLOAD PUSH1 0x4 DUP4 ADD SSTORE PUSH1 0xA0 SWAP1 SWAP3 ADD MLOAD PUSH1 0x5 SWAP1 SWAP2 ADD SSTORE PUSH1 0x12 SLOAD CALLER DUP4 MSTORE PUSH1 0x11 SWAP1 SWAP4 MSTORE SWAP1 KECCAK256 SSTORE PUSH2 0x3369 JUMP JUMPDEST PUSH1 0x0 PUSH1 0x12 PUSH1 0x1 DUP5 SUB DUP2 SLOAD DUP2 LT PUSH2 0x3246 JUMPI INVALID JUMPDEST SWAP1 PUSH1 0x0 MSTORE PUSH1 0x20 PUSH1 0x0 KECCAK256 SWAP1 PUSH1 0x6 MUL ADD SWAP1 POP PUSH1 0x0 DUP2 PUSH1 0x1 ADD SLOAD GT ISZERO PUSH2 0x331C JUMPI PUSH1 0x0 PUSH2 0x3292 DUP3 PUSH1 0x5 ADD SLOAD PUSH2 0xE93 PUSH8 0xDE0B6B3A7640000 PUSH2 0xE8D PUSH1 0xB SLOAD DUP8 PUSH1 0x1 ADD SLOAD PUSH2 0x2A89 SWAP1 SWAP2 SWAP1 PUSH4 0xFFFFFFFF AND JUMP JUMPDEST SWAP1 POP DUP1 ISZERO PUSH2 0x331A JUMPI PUSH1 0x10 SLOAD PUSH2 0x32A9 JUMPI POP PUSH1 0x0 PUSH2 0x32B8 JUMP JUMPDEST PUSH1 0x10 SLOAD DUP2 GT ISZERO PUSH2 0x32B8 JUMPI POP PUSH1 0x10 SLOAD JUMPDEST PUSH2 0x32C1 DUP2 PUSH2 0x2BA6 JUMP JUMPDEST DUP1 ISZERO PUSH2 0x331A JUMPI PUSH1 0x40 MLOAD CALLER SWAP1 DUP3 ISZERO PUSH2 0x8FC MUL SWAP1 DUP4 SWAP1 PUSH1 0x0 DUP2 DUP2 DUP2 DUP6 DUP9 DUP9 CALL SWAP4 POP POP POP POP ISZERO DUP1 ISZERO PUSH2 0x32F4 JUMPI RETURNDATASIZE PUSH1 0x0 DUP1 RETURNDATACOPY RETURNDATASIZE PUSH1 0x0 REVERT JUMPDEST POP PUSH1 0x40 DUP1 MLOAD DUP3 DUP2 MSTORE SWAP1 MLOAD CALLER SWAP2 PUSH1 0x0 DUP1 MLOAD PUSH1 0x20 PUSH2 0x3C15 DUP4 CODECOPY DUP2 MLOAD SWAP2 MSTORE SWAP2 SWAP1 DUP2 SWAP1 SUB PUSH1 0x20 ADD SWAP1 LOG2 JUMPDEST POP JUMPDEST PUSH1 0x1 DUP2 ADD SLOAD PUSH2 0x332B SWAP1 DUP4 PUSH2 0x2DD2 JUMP JUMPDEST PUSH1 0x1 DUP3 ADD SSTORE PUSH1 0x9 SLOAD PUSH2 0x333E SWAP1 NUMBER SWAP1 PUSH2 0x2DD2 JUMP JUMPDEST PUSH1 0x4 DUP3 ADD SSTORE PUSH1 0xB SLOAD PUSH1 0x1 DUP3 ADD SLOAD PUSH2 0x3362 SWAP2 PUSH8 0xDE0B6B3A7640000 SWAP2 PUSH2 0xE8D SWAP2 PUSH2 0x2A89 JUMP JUMPDEST PUSH1 0x5 SWAP1 SWAP2 ADD SSTORE JUMPDEST PUSH1 0xC SLOAD PUSH2 0x3376 SWAP1 DUP3 PUSH2 0x2DD2 JUMP JUMPDEST PUSH1 0xC SSTORE POP POP JUMP JUMPDEST PUSH1 0x0 DUP1 PUSH2 0x3389 CALLER PUSH2 0x2650 JUMP JUMPDEST SWAP2 POP SWAP2 POP DUP2 PUSH2 0x3399 JUMPI POP POP PUSH2 0x2A87 JUMP JUMPDEST PUSH1 0x1 PUSH1 0x1 PUSH1 0xA0 SHL SUB DUP2 AND CALLER EQ ISZERO PUSH2 0x33EC JUMPI PUSH1 0x40 DUP1 MLOAD PUSH3 0x461BCD PUSH1 0xE5 SHL DUP2 MSTORE PUSH1 0x20 PUSH1 0x4 DUP3 ADD MSTORE PUSH1 0x12 PUSH1 0x24 DUP3 ADD MSTORE PUSH18 0x24B73B34BA32B91034B99037B732B9B2B633 PUSH1 0x71 SHL PUSH1 0x44 DUP3 ADD MSTORE SWAP1 MLOAD SWAP1 DUP2 SWAP1 SUB PUSH1 0x64 ADD SWAP1 REVERT JUMPDEST PUSH1 0x1 PUSH1 0x1 PUSH1 0xA0 SHL SUB DUP2 AND PUSH1 0x0 SWAP1 DUP2 MSTORE PUSH1 0x11 PUSH1 0x20 MSTORE PUSH1 0x40 DUP1 DUP3 KECCAK256 SLOAD CALLER DUP4 MSTORE SWAP1 DUP3 KECCAK256 SLOAD PUSH1 0x12 DUP1 SLOAD SWAP3 SWAP4 SWAP2 SWAP3 PUSH1 0x0 NOT DUP5 ADD SWAP1 DUP2 LT PUSH2 0x3423 JUMPI INVALID JUMPDEST SWAP1 PUSH1 0x0 MSTORE PUSH1 0x20 PUSH1 0x0 KECCAK256 SWAP1 PUSH1 0x6 MUL ADD SWAP1 POP DUP3 PUSH1 0x0 EQ ISZERO PUSH2 0x34CD JUMPI DUP1 SLOAD PUSH1 0xFF AND DUP1 PUSH2 0x344E JUMPI POP PUSH1 0x3 DUP2 ADD SLOAD ISZERO JUMPDEST ISZERO PUSH2 0x345D JUMPI POP POP POP POP POP PUSH2 0x2A87 JUMP JUMPDEST PUSH2 0x349D PUSH2 0x347E PUSH2 0x3E8 PUSH2 0xE8D PUSH1 0x96 DUP6 PUSH1 0x3 ADD SLOAD PUSH2 0x2A89 SWAP1 SWAP2 SWAP1 PUSH4 0xFFFFFFFF AND JUMP JUMPDEST PUSH1 0x1 PUSH1 0x1 PUSH1 0xA0 SHL SUB DUP7 AND PUSH1 0x0 SWAP1 DUP2 MSTORE PUSH1 0x13 PUSH1 0x20 MSTORE PUSH1 0x40 SWAP1 KECCAK256 SLOAD SWAP1 PUSH2 0x2DD2 JUMP JUMPDEST PUSH1 0x1 PUSH1 0x1 PUSH1 0xA0 SHL SUB SWAP1 SWAP5 AND PUSH1 0x0 SWAP1 DUP2 MSTORE PUSH1 0x13 PUSH1 0x20 MSTORE PUSH1 0x40 SWAP1 KECCAK256 SWAP4 SWAP1 SWAP4 SSTORE POP POP DUP1 SLOAD PUSH1 0xFF NOT AND PUSH1 0x1 OR SWAP1 SSTORE POP PUSH2 0x2A87 JUMP JUMPDEST DUP1 SLOAD PUSH1 0xFF AND DUP1 PUSH2 0x34DF JUMPI POP PUSH1 0x3 DUP2 ADD SLOAD ISZERO JUMPDEST ISZERO PUSH2 0x34EE JUMPI POP POP POP POP POP PUSH2 0x2A87 JUMP JUMPDEST PUSH1 0x0 PUSH1 0x12 PUSH1 0x1 DUP6 SUB DUP2 SLOAD DUP2 LT PUSH2 0x3500 JUMPI INVALID JUMPDEST SWAP1 PUSH1 0x0 MSTORE PUSH1 0x20 PUSH1 0x0 KECCAK256 SWAP1 PUSH1 0x6 MUL ADD SWAP1 POP PUSH1 0x0 DUP2 PUSH1 0x1 ADD SLOAD GT ISZERO PUSH2 0x35E8 JUMPI PUSH1 0x0 PUSH2 0x354C DUP3 PUSH1 0x5 ADD SLOAD PUSH2 0xE93 PUSH8 0xDE0B6B3A7640000 PUSH2 0xE8D PUSH1 0xB SLOAD DUP8 PUSH1 0x1 ADD SLOAD PUSH2 0x2A89 SWAP1 SWAP2 SWAP1 PUSH4 0xFFFFFFFF AND JUMP JUMPDEST SWAP1 POP DUP1 ISZERO PUSH2 0x35E6 JUMPI PUSH1 0x10 SLOAD PUSH2 0x3563 JUMPI POP PUSH1 0x0 PUSH2 0x3572 JUMP JUMPDEST PUSH1 0x10 SLOAD DUP2 GT ISZERO PUSH2 0x3572 JUMPI POP PUSH1 0x10 SLOAD JUMPDEST PUSH2 0x357B DUP2 PUSH2 0x2BA6 JUMP JUMPDEST DUP1 ISZERO PUSH2 0x35E6 JUMPI PUSH1 0x40 MLOAD PUSH1 0x1 PUSH1 0x1 PUSH1 0xA0 SHL SUB DUP8 AND SWAP1 DUP3 ISZERO PUSH2 0x8FC MUL SWAP1 DUP4 SWAP1 PUSH1 0x0 DUP2 DUP2 DUP2 DUP6 DUP9 DUP9 CALL SWAP4 POP POP POP POP ISZERO DUP1 ISZERO PUSH2 0x35B7 JUMPI RETURNDATASIZE PUSH1 0x0 DUP1 RETURNDATACOPY RETURNDATASIZE PUSH1 0x0 REVERT JUMPDEST POP PUSH1 0x40 DUP1 MLOAD DUP3 DUP2 MSTORE SWAP1 MLOAD PUSH1 0x1 PUSH1 0x1 PUSH1 0xA0 SHL SUB DUP9 AND SWAP2 PUSH1 0x0 DUP1 MLOAD PUSH1 0x20 PUSH2 0x3C15 DUP4 CODECOPY DUP2 MLOAD SWAP2 MSTORE SWAP2 SWAP1 DUP2 SWAP1 SUB PUSH1 0x20 ADD SWAP1 LOG2 JUMPDEST POP JUMPDEST PUSH1 0x0 PUSH2 0x3608 PUSH2 0x3E8 PUSH2 0xE8D PUSH1 0x96 DUP7 PUSH1 0x3 ADD SLOAD PUSH2 0x2A89 SWAP1 SWAP2 SWAP1 PUSH4 0xFFFFFFFF AND JUMP JUMPDEST SWAP1 POP PUSH1 0xF SLOAD PUSH1 0x0 EQ ISZERO PUSH2 0x361D JUMPI POP PUSH1 0x0 PUSH2 0x362C JUMP JUMPDEST PUSH1 0xF SLOAD DUP2 GT ISZERO PUSH2 0x362C JUMPI POP PUSH1 0xF SLOAD JUMPDEST PUSH2 0x3635 DUP2 PUSH2 0x2DAF JUMP JUMPDEST PUSH1 0x1 DUP3 ADD SLOAD PUSH2 0x3644 SWAP1 DUP3 PUSH2 0x2DD2 JUMP JUMPDEST PUSH1 0x1 DUP4 ADD SSTORE PUSH1 0x2 DUP3 ADD SLOAD PUSH2 0x3658 SWAP1 DUP3 PUSH2 0x2DD2 JUMP JUMPDEST PUSH1 0x2 DUP4 ADD SSTORE DUP3 SLOAD PUSH1 0xFF NOT AND PUSH1 0x1 OR DUP4 SSTORE PUSH1 0x9 SLOAD PUSH2 0x3676 SWAP1 NUMBER SWAP1 PUSH2 0x2DD2 JUMP JUMPDEST PUSH1 0x4 DUP5 ADD SSTORE PUSH1 0xC SLOAD PUSH2 0x3688 SWAP1 DUP3 PUSH2 0x2DD2 JUMP JUMPDEST PUSH1 0xC SSTORE PUSH1 0xB SLOAD PUSH1 0x1 DUP4 ADD SLOAD PUSH2 0x36AA SWAP2 PUSH8 0xDE0B6B3A7640000 SWAP2 PUSH2 0xE8D SWAP2 PUSH2 0x2A89 JUMP JUMPDEST PUSH1 0x5 DUP4 ADD SSTORE DUP1 ISZERO PUSH2 0x36F5 JUMPI PUSH1 0x40 DUP1 MLOAD DUP3 DUP2 MSTORE SWAP1 MLOAD PUSH1 0x1 PUSH1 0x1 PUSH1 0xA0 SHL SUB DUP9 AND SWAP2 PUSH32 0x389563883F983DB1CB1B00FCA2F5C30E56CE545EE60ED77F8E07130F04C53056 SWAP2 SWAP1 DUP2 SWAP1 SUB PUSH1 0x20 ADD SWAP1 LOG2 JUMPDEST POP POP POP POP POP POP POP JUMP JUMPDEST CALLER PUSH1 0x0 SWAP1 DUP2 MSTORE PUSH1 0x11 PUSH1 0x20 MSTORE PUSH1 0x40 SWAP1 KECCAK256 SLOAD DUP1 PUSH2 0x3719 JUMPI POP PUSH2 0x2A87 JUMP JUMPDEST PUSH1 0x0 PUSH1 0x12 PUSH1 0x1 DUP4 SUB DUP2 SLOAD DUP2 LT PUSH2 0x372B JUMPI INVALID JUMPDEST SWAP1 PUSH1 0x0 MSTORE PUSH1 0x20 PUSH1 0x0 KECCAK256 SWAP1 PUSH1 0x6 MUL ADD SWAP1 POP PUSH1 0x0 PUSH2 0x3746 CALLER PUSH2 0x1D9A JUMP JUMPDEST CALLER PUSH1 0x0 SWAP1 DUP2 MSTORE PUSH1 0x13 PUSH1 0x20 MSTORE PUSH1 0x40 SWAP1 KECCAK256 SLOAD SWAP1 SWAP2 POP DUP2 ISZERO DUP1 ISZERO SWAP1 PUSH2 0x3768 JUMPI POP PUSH1 0x0 DUP2 GT JUMPDEST ISZERO PUSH2 0x10B8 JUMPI PUSH1 0xF SLOAD PUSH2 0x377C JUMPI POP PUSH1 0x0 PUSH2 0x378B JUMP JUMPDEST PUSH1 0xF SLOAD DUP2 GT ISZERO PUSH2 0x378B JUMPI POP PUSH1 0xF SLOAD JUMPDEST PUSH2 0x3794 DUP2 PUSH2 0x2DAF JUMP JUMPDEST PUSH1 0x1 DUP4 ADD SLOAD PUSH2 0x37A3 SWAP1 DUP3 PUSH2 0x2DD2 JUMP JUMPDEST PUSH1 0x1 DUP5 ADD SSTORE PUSH1 0x2 DUP4 ADD SLOAD PUSH2 0x37B7 SWAP1 DUP3 PUSH2 0x2DD2 JUMP JUMPDEST PUSH1 0x2 DUP5 ADD SSTORE PUSH1 0x9 SLOAD PUSH2 0x37CA SWAP1 NUMBER SWAP1 PUSH2 0x2DD2 JUMP JUMPDEST PUSH1 0x4 DUP5 ADD SSTORE PUSH1 0xB SLOAD PUSH1 0x1 DUP5 ADD SLOAD PUSH2 0x37EE SWAP2 PUSH8 0xDE0B6B3A7640000 SWAP2 PUSH2 0xE8D SWAP2 PUSH2 0x2A89 JUMP JUMPDEST PUSH1 0x5 DUP5 ADD SSTORE PUSH1 0xC SLOAD PUSH2 0x3800 SWAP1 DUP3 PUSH2 0x2DD2 JUMP JUMPDEST PUSH1 0xC SSTORE CALLER PUSH1 0x0 SWAP1 DUP2 MSTORE PUSH1 0x13 PUSH1 0x20 MSTORE PUSH1 0x40 DUP2 KECCAK256 SSTORE DUP1 ISZERO PUSH2 0x10B8 JUMPI PUSH1 0x40 DUP1 MLOAD DUP3 DUP2 MSTORE SWAP1 MLOAD CALLER SWAP2 PUSH32 0x389563883F983DB1CB1B00FCA2F5C30E56CE545EE60ED77F8E07130F04C53056 SWAP2 SWAP1 DUP2 SWAP1 SUB PUSH1 0x20 ADD SWAP1 LOG2 POP POP POP POP JUMP JUMPDEST PUSH1 0x0 DUP1 DUP1 DUP1 PUSH2 0x2BD8 DUP7 PUSH1 0x1 PUSH1 0x1 PUSH1 0xA0 SHL SUB DUP8 AND PUSH2 0x399B JUMP JUMPDEST DUP2 SLOAD PUSH1 0x0 SWAP1 DUP2 SWAP1 DUP4 LT PUSH2 0x38B1 JUMPI PUSH1 0x40 MLOAD PUSH3 0x461BCD PUSH1 0xE5 SHL DUP2 MSTORE PUSH1 0x4 ADD DUP1 DUP1 PUSH1 0x20 ADD DUP3 DUP2 SUB DUP3 MSTORE PUSH1 0x22 DUP2 MSTORE PUSH1 0x20 ADD DUP1 PUSH2 0x3B5E PUSH1 0x22 SWAP2 CODECOPY PUSH1 0x40 ADD SWAP2 POP POP PUSH1 0x40 MLOAD DUP1 SWAP2 SUB SWAP1 REVERT JUMPDEST PUSH1 0x0 DUP5 PUSH1 0x0 ADD DUP5 DUP2 SLOAD DUP2 LT PUSH2 0x38C2 JUMPI INVALID JUMPDEST SWAP1 PUSH1 0x0 MSTORE PUSH1 0x20 PUSH1 0x0 KECCAK256 SWAP1 PUSH1 0x2 MUL ADD SWAP1 POP DUP1 PUSH1 0x0 ADD SLOAD DUP2 PUSH1 0x1 ADD SLOAD SWAP3 POP SWAP3 POP POP SWAP3 POP SWAP3 SWAP1 POP JUMP JUMPDEST PUSH1 0x0 PUSH2 0x1D82 DUP4 PUSH1 0x1 PUSH1 0x1 PUSH1 0xA0 SHL SUB DUP5 AND PUSH2 0x39F2 JUMP JUMPDEST PUSH1 0x0 PUSH2 0x3916 DUP5 PUSH1 0x1 PUSH1 0x1 PUSH1 0xA0 SHL SUB DUP1 DUP7 AND SWAP1 DUP6 AND PUSH2 0x3A0A JUMP JUMPDEST SWAP5 SWAP4 POP POP POP POP JUMP JUMPDEST PUSH1 0x0 PUSH2 0x1D82 DUP4 PUSH1 0x1 PUSH1 0x1 PUSH1 0xA0 SHL SUB DUP5 AND PUSH2 0x3AA1 JUMP JUMPDEST DUP2 SLOAD PUSH1 0x0 SWAP1 DUP3 LT PUSH2 0x3975 JUMPI PUSH1 0x40 MLOAD PUSH3 0x461BCD PUSH1 0xE5 SHL DUP2 MSTORE PUSH1 0x4 ADD DUP1 DUP1 PUSH1 0x20 ADD DUP3 DUP2 SUB DUP3 MSTORE PUSH1 0x22 DUP2 MSTORE PUSH1 0x20 ADD DUP1 PUSH2 0x3AEC PUSH1 0x22 SWAP2 CODECOPY PUSH1 0x40 ADD SWAP2 POP POP PUSH1 0x40 MLOAD DUP1 SWAP2 SUB SWAP1 REVERT JUMPDEST DUP3 PUSH1 0x0 ADD DUP3 DUP2 SLOAD DUP2 LT PUSH2 0x3984 JUMPI INVALID JUMPDEST SWAP1 PUSH1 0x0 MSTORE PUSH1 0x20 PUSH1 0x0 KECCAK256 ADD SLOAD SWAP1 POP SWAP3 SWAP2 POP POP JUMP JUMPDEST SLOAD SWAP1 JUMP JUMPDEST PUSH1 0x0 DUP2 DUP2 MSTORE PUSH1 0x1 DUP4 ADD PUSH1 0x20 MSTORE PUSH1 0x40 DUP2 KECCAK256 SLOAD DUP2 SWAP1 DUP1 PUSH2 0x39C0 JUMPI POP PUSH1 0x0 SWAP2 POP DUP2 SWAP1 POP PUSH2 0x2BE0 JUMP JUMPDEST PUSH1 0x1 DUP6 PUSH1 0x0 ADD PUSH1 0x1 DUP4 SUB DUP2 SLOAD DUP2 LT PUSH2 0x39D4 JUMPI INVALID JUMPDEST SWAP1 PUSH1 0x0 MSTORE PUSH1 0x20 PUSH1 0x0 KECCAK256 SWAP1 PUSH1 0x2 MUL ADD PUSH1 0x1 ADD SLOAD SWAP3 POP SWAP3 POP POP SWAP3 POP SWAP3 SWAP1 POP JUMP JUMPDEST PUSH1 0x0 SWAP1 DUP2 MSTORE PUSH1 0x1 SWAP2 SWAP1 SWAP2 ADD PUSH1 0x20 MSTORE PUSH1 0x40 SWAP1 KECCAK256 SLOAD ISZERO ISZERO SWAP1 JUMP JUMPDEST PUSH1 0x0 DUP3 DUP2 MSTORE PUSH1 0x1 DUP5 ADD PUSH1 0x20 MSTORE PUSH1 0x40 DUP2 KECCAK256 SLOAD DUP1 PUSH2 0x3A6F JUMPI POP POP PUSH1 0x40 DUP1 MLOAD DUP1 DUP3 ADD DUP3 MSTORE DUP4 DUP2 MSTORE PUSH1 0x20 DUP1 DUP3 ADD DUP5 DUP2 MSTORE DUP7 SLOAD PUSH1 0x1 DUP2 DUP2 ADD DUP10 SSTORE PUSH1 0x0 DUP10 DUP2 MSTORE DUP5 DUP2 KECCAK256 SWAP6 MLOAD PUSH1 0x2 SWAP1 SWAP4 MUL SWAP1 SWAP6 ADD SWAP2 DUP3 SSTORE SWAP2 MLOAD SWAP1 DUP3 ADD SSTORE DUP7 SLOAD DUP7 DUP5 MSTORE DUP2 DUP9 ADD SWAP1 SWAP3 MSTORE SWAP3 SWAP1 SWAP2 KECCAK256 SSTORE PUSH2 0x2116 JUMP JUMPDEST DUP3 DUP6 PUSH1 0x0 ADD PUSH1 0x1 DUP4 SUB DUP2 SLOAD DUP2 LT PUSH2 0x3A82 JUMPI INVALID JUMPDEST SWAP1 PUSH1 0x0 MSTORE PUSH1 0x20 PUSH1 0x0 KECCAK256 SWAP1 PUSH1 0x2 MUL ADD PUSH1 0x1 ADD DUP2 SWAP1 SSTORE POP PUSH1 0x0 SWAP2 POP POP PUSH2 0x2116 JUMP JUMPDEST PUSH1 0x0 PUSH2 0x3AAD DUP4 DUP4 PUSH2 0x39F2 JUMP JUMPDEST PUSH2 0x3AE3 JUMPI POP DUP2 SLOAD PUSH1 0x1 DUP2 DUP2 ADD DUP5 SSTORE PUSH1 0x0 DUP5 DUP2 MSTORE PUSH1 0x20 DUP1 DUP3 KECCAK256 SWAP1 SWAP4 ADD DUP5 SWAP1 SSTORE DUP5 SLOAD DUP5 DUP3 MSTORE DUP3 DUP7 ADD SWAP1 SWAP4 MSTORE PUSH1 0x40 SWAP1 KECCAK256 SWAP2 SWAP1 SWAP2 SSTORE PUSH2 0x1D85 JUMP JUMPDEST POP PUSH1 0x0 PUSH2 0x1D85 JUMP INVALID GASLIMIT PUSH15 0x756D657261626C655365743A20696E PUSH5 0x6578206F75 PUSH21 0x206F6620626F756E6473546865206D696E696D756D KECCAK256 PUSH13 0x696D69742073686F756C642062 PUSH6 0x206772656174 PUSH6 0x72207468616E KECCAK256 ADDRESS 0x4F PUSH24 0x6E61626C653A206E6577206F776E65722069732074686520 PUSH27 0x65726F2061646472657373456E756D657261626C654D61703A2069 PUSH15 0x646578206F7574206F6620626F756E PUSH5 0x7354686520 PUSH22 0x70706572206C696D6974206973206C65737320746861 PUSH15 0x20746865206C6F776572206C696D69 PUSH21 0x536166654D6174683A206D756C7469706C69636174 PUSH10 0x6F6E206F766572666C6F PUSH24 0x4F776E61626C653A2063616C6C6572206973206E6F742074 PUSH9 0x65206F776E6572656D PUSH6 0x7267656E6379 JUMPI PUSH10 0x74686472617741646472 PUSH6 0x737320697320 PUSH27 0x65726F2061646472657373010D214E8ADBE593EEBC2E78D29E88F0 DUP14 0xDC 0xB3 PUSH4 0xFAC75A9E 0xF8 0xC9 GASLIMIT JUMPDEST LOG3 0xC7 0x2D 0xCC LOG2 PUSH5 0x6970667358 0x22 SLT KECCAK256 ORIGIN DUP9 PUSH27 0xAE1FEE47D780D6901F7B22B50C2A8F3FA0A19BD3E625A2E2DFE703 0x5D 0xC6 PUSH5 0x736F6C6343 STOP SMOD MOD STOP CALLER SLOAD PUSH9 0x65206D696E696D756D KECCAK256 PUSH13 0x696D69742073686F756C642062 PUSH6 0x206772656174 PUSH6 0x72207468616E KECCAK256 ADDRESS SLOAD PUSH9 0x65207570706572206C PUSH10 0x6D6974206973206C6573 PUSH20 0x207468616E20746865206C6F776572206C696D69 PUSH21 0x0 "
		},
		"gasEstimates": {
			"creation": {
				"codeDepositCost": "3093200",
				"executionCost": "infinite",
				"totalCost": "infinite"
			},
			"external": {
				"AITDPerBlock()": "1131",
				"PROFIT_BASE()": "264",
				"accPerShare()": "1065",
				"addInviter(address)": "infinite",
				"airdrop(address[],uint256)": "infinite",
				"airdropOwner()": "1105",
				"at(address,uint256)": "infinite",
				"deposit()": "infinite",
				"emergencyWithdraw(address)": "infinite",
				"emergencyWithdrawAddress()": "1172",
				"expire()": "1109",
				"getInviteeList(uint256,uint256,address)": "infinite",
				"getInviteeListLength(address)": "infinite",
				"getInviteeListV2(uint256,uint256,address)": "infinite",
				"getInviter(address)": "3236",
				"getInviterByIndex(uint256)": "infinite",
				"getProfit(address)": "infinite",
				"getRemainderExpire(address)": "3865",
				"getStakedInvitation(address)": "3827",
				"getUserInfo(address)": "7350",
				"invitationRewardAccumulate()": "1087",
				"invitationRewardTotalAmount()": "1066",
				"inviteeLength()": "1118",
				"inviterToInviteeReward(address)": "1280",
				"isDeposit(address)": "3106",
				"isExpire(address)": "3041",
				"lastRewardBlock()": "1043",
				"onlyOwnerBalance()": "infinite",
				"onlyOwnerWithdraw(uint256)": "infinite",
				"owner()": "1083",
				"paused()": "1095",
				"profitAccumulate()": "1132",
				"profitTotalAmount()": "1086",
				"renounceOwnership()": "infinite",
				"setAITDPerBlock(uint256)": "infinite",
				"setAirdropOwner(address)": "infinite",
				"setEmergencyWithdrawAddress(address)": "infinite",
				"setExpire(uint256)": "infinite",
				"setInvitationRewardTotalAmount(uint256)": "infinite",
				"setPause()": "infinite",
				"setProfitTotalAmount(uint256)": "infinite",
				"setStakeLimit(uint256,uint256)": "infinite",
				"stakeLowerLimit()": "1065",
				"stakeUpLimit()": "1087",
				"totalAmount()": "1067",
				"transferOwnership(address)": "infinite",
				"userInfoSet(uint256)": "6195",
				"userLength()": "1089",
				"userOfPid(address)": "1258",
				"withdraw(uint256)": "infinite"
			},
			"internal": {
				"_airdropDeposit(address,uint256)": "infinite",
				"_deposit()": "infinite",
				"_inviteeDeposit()": "infinite",
				"_inviterDeposit()": "infinite",
				"_updateAccPerShare()": "infinite",
				"profitStatistical(uint256)": "infinite",
				"rewardStatistical(uint256)": "infinite"
			}
		},
		"methodIdentifiers": {
			"AITDPerBlock()": "c13309c7",
			"PROFIT_BASE()": "e1da8f58",
			"accPerShare()": "d2890a01",
			"addInviter(address)": "61a9ab35",
			"airdrop(address[],uint256)": "c204642c",
			"airdropOwner()": "8e840cc9",
			"at(address,uint256)": "7fd22e39",
			"deposit()": "d0e30db0",
			"emergencyWithdraw(address)": "6ff1c9bc",
			"emergencyWithdrawAddress()": "2ee72e18",
			"expire()": "79599f96",
			"getInviteeList(uint256,uint256,address)": "e18c81f1",
			"getInviteeListLength(address)": "94896c5c",
			"getInviteeListV2(uint256,uint256,address)": "ad3cf89b",
			"getInviter(address)": "d216ce6f",
			"getInviterByIndex(uint256)": "2f4c3f62",
			"getProfit(address)": "c600e1dc",
			"getRemainderExpire(address)": "52ca75e7",
			"getStakedInvitation(address)": "46a0da8e",
			"getUserInfo(address)": "6386c1c7",
			"invitationRewardAccumulate()": "add99be8",
			"invitationRewardTotalAmount()": "3755c71d",
			"inviteeLength()": "c3289eab",
			"inviterToInviteeReward(address)": "522a0744",
			"isDeposit(address)": "f690a3a3",
			"isExpire(address)": "6bde0f1c",
			"lastRewardBlock()": "a9f8d181",
			"onlyOwnerBalance()": "62479be7",
			"onlyOwnerWithdraw(uint256)": "96a37aee",
			"owner()": "8da5cb5b",
			"paused()": "5c975abb",
			"profitAccumulate()": "993c3dd4",
			"profitTotalAmount()": "e270c9b2",
			"renounceOwnership()": "715018a6",
			"setAITDPerBlock(uint256)": "b230d698",
			"setAirdropOwner(address)": "0f6fe11d",
			"setEmergencyWithdrawAddress(address)": "47c85634",
			"setExpire(uint256)": "32c27052",
			"setInvitationRewardTotalAmount(uint256)": "cb7b2ecb",
			"setPause()": "d431b1ac",
			"setProfitTotalAmount(uint256)": "a1b19eda",
			"setStakeLimit(uint256,uint256)": "60f62506",
			"stakeLowerLimit()": "c3cee9f3",
			"stakeUpLimit()": "78e2dba6",
			"totalAmount()": "1a39d8ef",
			"transferOwnership(address)": "f2fde38b",
			"userInfoSet(uint256)": "7399a8a1",
			"userLength()": "256da24f",
			"userOfPid(address)": "48c3a2d8",
			"withdraw(uint256)": "2e1a7d4d"
		}
	},
	"abi": [
		{
			"inputs": [
				{
					"internalType": "uint256",
					"name": "_stakeLowerLimit",
					"type": "uint256"
				},
				{
					"internalType": "uint256",
					"name": "_stakeUpLimit",
					"type": "uint256"
				},
				{
					"internalType": "uint256",
					"name": "_AITDPerBlock",
					"type": "uint256"
				},
				{
					"internalType": "uint256",
					"name": "_invitationRewardTotalAmount",
					"type": "uint256"
				},
				{
					"internalType": "uint256",
					"name": "_profitTotalAmount",
					"type": "uint256"
				}
			],
			"stateMutability": "nonpayable",
			"type": "constructor"
		},
		{
			"anonymous": false,
			"inputs": [
				{
					"indexed": true,
					"internalType": "address",
					"name": "src",
					"type": "address"
				},
				{
					"indexed": true,
					"internalType": "address",
					"name": "des",
					"type": "address"
				},
				{
					"indexed": false,
					"internalType": "uint256",
					"name": "amount",
					"type": "uint256"
				}
			],
			"name": "AirdropDeposit",
			"type": "event"
		},
		{
			"anonymous": false,
			"inputs": [
				{
					"indexed": true,
					"internalType": "address",
					"name": "user",
					"type": "address"
				},
				{
					"indexed": false,
					"internalType": "uint256",
					"name": "amount",
					"type": "uint256"
				}
			],
			"name": "Deposit",
			"type": "event"
		},
		{
			"anonymous": false,
			"inputs": [
				{
					"indexed": true,
					"internalType": "address",
					"name": "user",
					"type": "address"
				},
				{
					"indexed": false,
					"internalType": "uint256",
					"name": "amount",
					"type": "uint256"
				}
			],
			"name": "EmergencyWithdraw",
			"type": "event"
		},
		{
			"anonymous": false,
			"inputs": [
				{
					"indexed": true,
					"internalType": "address",
					"name": "inviter",
					"type": "address"
				},
				{
					"indexed": true,
					"internalType": "address",
					"name": "invitee",
					"type": "address"
				}
			],
			"name": "InviteShip",
			"type": "event"
		},
		{
			"anonymous": false,
			"inputs": [
				{
					"indexed": true,
					"internalType": "address",
					"name": "user",
					"type": "address"
				},
				{
					"indexed": false,
					"internalType": "uint256",
					"name": "amount",
					"type": "uint256"
				}
			],
			"name": "InviterReward",
			"type": "event"
		},
		{
			"anonymous": false,
			"inputs": [
				{
					"indexed": true,
					"internalType": "address",
					"name": "previousOwner",
					"type": "address"
				},
				{
					"indexed": true,
					"internalType": "address",
					"name": "newOwner",
					"type": "address"
				}
			],
			"name": "OwnershipTransferred",
			"type": "event"
		},
		{
			"anonymous": false,
			"inputs": [
				{
					"indexed": true,
					"internalType": "address",
					"name": "user",
					"type": "address"
				},
				{
					"indexed": false,
					"internalType": "uint256",
					"name": "amount",
					"type": "uint256"
				}
			],
			"name": "Withdraw",
			"type": "event"
		},
		{
			"anonymous": false,
			"inputs": [
				{
					"indexed": true,
					"internalType": "address",
					"name": "user",
					"type": "address"
				},
				{
					"indexed": false,
					"internalType": "uint256",
					"name": "amount",
					"type": "uint256"
				}
			],
			"name": "WithdrawProfit",
			"type": "event"
		},
		{
			"inputs": [],
			"name": "AITDPerBlock",
			"outputs": [
				{
					"internalType": "uint256",
					"name": "",
					"type": "uint256"
				}
			],
			"stateMutability": "view",
			"type": "function"
		},
		{
			"inputs": [],
			"name": "PROFIT_BASE",
			"outputs": [
				{
					"internalType": "uint256",
					"name": "",
					"type": "uint256"
				}
			],
			"stateMutability": "view",
			"type": "function"
		},
		{
			"inputs": [],
			"name": "accPerShare",
			"outputs": [
				{
					"internalType": "uint256",
					"name": "",
					"type": "uint256"
				}
			],
			"stateMutability": "view",
			"type": "function"
		},
		{
			"inputs": [
				{
					"internalType": "address",
					"name": "inviter",
					"type": "address"
				}
			],
			"name": "addInviter",
			"outputs": [],
			"stateMutability": "nonpayable",
			"type": "function"
		},
		{
			"inputs": [
				{
					"internalType": "address[]",
					"name": "batch",
					"type": "address[]"
				},
				{
					"internalType": "uint256",
					"name": "amount",
					"type": "uint256"
				}
			],
			"name": "airdrop",
			"outputs": [],
			"stateMutability": "nonpayable",
			"type": "function"
		},
		{
			"inputs": [],
			"name": "airdropOwner",
			"outputs": [
				{
					"internalType": "address",
					"name": "",
					"type": "address"
				}
			],
			"stateMutability": "view",
			"type": "function"
		},
		{
			"inputs": [
				{
					"internalType": "address",
					"name": "inviter",
					"type": "address"
				},
				{
					"internalType": "uint256",
					"name": "index",
					"type": "uint256"
				}
			],
			"name": "at",
			"outputs": [
				{
					"internalType": "address",
					"name": "",
					"type": "address"
				}
			],
			"stateMutability": "view",
			"type": "function"
		},
		{
			"inputs": [],
			"name": "deposit",
			"outputs": [],
			"stateMutability": "payable",
			"type": "function"
		},
		{
			"inputs": [
				{
					"internalType": "address",
					"name": "addr",
					"type": "address"
				}
			],
			"name": "emergencyWithdraw",
			"outputs": [],
			"stateMutability": "nonpayable",
			"type": "function"
		},
		{
			"inputs": [],
			"name": "emergencyWithdrawAddress",
			"outputs": [
				{
					"internalType": "address",
					"name": "",
					"type": "address"
				}
			],
			"stateMutability": "view",
			"type": "function"
		},
		{
			"inputs": [],
			"name": "expire",
			"outputs": [
				{
					"internalType": "uint256",
					"name": "",
					"type": "uint256"
				}
			],
			"stateMutability": "view",
			"type": "function"
		},
		{
			"inputs": [
				{
					"internalType": "uint256",
					"name": "beginIndex",
					"type": "uint256"
				},
				{
					"internalType": "uint256",
					"name": "endIndex",
					"type": "uint256"
				},
				{
					"internalType": "address",
					"name": "inviter",
					"type": "address"
				}
			],
			"name": "getInviteeList",
			"outputs": [
				{
					"internalType": "address[]",
					"name": "",
					"type": "address[]"
				}
			],
			"stateMutability": "view",
			"type": "function"
		},
		{
			"inputs": [
				{
					"internalType": "address",
					"name": "inviter",
					"type": "address"
				}
			],
			"name": "getInviteeListLength",
			"outputs": [
				{
					"internalType": "uint256",
					"name": "",
					"type": "uint256"
				}
			],
			"stateMutability": "view",
			"type": "function"
		},
		{
			"inputs": [
				{
					"internalType": "uint256",
					"name": "beginIndex",
					"type": "uint256"
				},
				{
					"internalType": "uint256",
					"name": "endIndex",
					"type": "uint256"
				},
				{
					"internalType": "address",
					"name": "inviter",
					"type": "address"
				}
			],
			"name": "getInviteeListV2",
			"outputs": [
				{
					"internalType": "address[]",
					"name": "",
					"type": "address[]"
				}
			],
			"stateMutability": "view",
			"type": "function"
		},
		{
			"inputs": [
				{
					"internalType": "address",
					"name": "invitee",
					"type": "address"
				}
			],
			"name": "getInviter",
			"outputs": [
				{
					"internalType": "bool",
					"name": "",
					"type": "bool"
				},
				{
					"internalType": "address",
					"name": "",
					"type": "address"
				}
			],
			"stateMutability": "view",
			"type": "function"
		},
		{
			"inputs": [
				{
					"internalType": "uint256",
					"name": "idx",
					"type": "uint256"
				}
			],
			"name": "getInviterByIndex",
			"outputs": [
				{
					"internalType": "address",
					"name": "",
					"type": "address"
				},
				{
					"internalType": "address",
					"name": "",
					"type": "address"
				}
			],
			"stateMutability": "view",
			"type": "function"
		},
		{
			"inputs": [
				{
					"internalType": "address",
					"name": "addr",
					"type": "address"
				}
			],
			"name": "getProfit",
			"outputs": [
				{
					"internalType": "uint256",
					"name": "",
					"type": "uint256"
				}
			],
			"stateMutability": "view",
			"type": "function"
		},
		{
			"inputs": [
				{
					"internalType": "address",
					"name": "addr",
					"type": "address"
				}
			],
			"name": "getRemainderExpire",
			"outputs": [
				{
					"internalType": "bool",
					"name": "",
					"type": "bool"
				},
				{
					"internalType": "uint256",
					"name": "",
					"type": "uint256"
				}
			],
			"stateMutability": "view",
			"type": "function"
		},
		{
			"inputs": [
				{
					"internalType": "address",
					"name": "addr",
					"type": "address"
				}
			],
			"name": "getStakedInvitation",
			"outputs": [
				{
					"internalType": "uint256",
					"name": "",
					"type": "uint256"
				},
				{
					"internalType": "uint256",
					"name": "",
					"type": "uint256"
				}
			],
			"stateMutability": "view",
			"type": "function"
		},
		{
			"inputs": [
				{
					"internalType": "address",
					"name": "addr",
					"type": "address"
				}
			],
			"name": "getUserInfo",
			"outputs": [
				{
					"internalType": "bool",
					"name": "",
					"type": "bool"
				},
				{
					"internalType": "bool",
					"name": "",
					"type": "bool"
				},
				{
					"internalType": "uint256",
					"name": "",
					"type": "uint256"
				},
				{
					"internalType": "uint256",
					"name": "",
					"type": "uint256"
				},
				{
					"internalType": "uint256",
					"name": "",
					"type": "uint256"
				},
				{
					"internalType": "uint256",
					"name": "",
					"type": "uint256"
				},
				{
					"internalType": "uint256",
					"name": "",
					"type": "uint256"
				}
			],
			"stateMutability": "view",
			"type": "function"
		},
		{
			"inputs": [],
			"name": "invitationRewardAccumulate",
			"outputs": [
				{
					"internalType": "uint256",
					"name": "",
					"type": "uint256"
				}
			],
			"stateMutability": "view",
			"type": "function"
		},
		{
			"inputs": [],
			"name": "invitationRewardTotalAmount",
			"outputs": [
				{
					"internalType": "uint256",
					"name": "",
					"type": "uint256"
				}
			],
			"stateMutability": "view",
			"type": "function"
		},
		{
			"inputs": [],
			"name": "inviteeLength",
			"outputs": [
				{
					"internalType": "uint256",
					"name": "",
					"type": "uint256"
				}
			],
			"stateMutability": "view",
			"type": "function"
		},
		{
			"inputs": [
				{
					"internalType": "address",
					"name": "",
					"type": "address"
				}
			],
			"name": "inviterToInviteeReward",
			"outputs": [
				{
					"internalType": "uint256",
					"name": "",
					"type": "uint256"
				}
			],
			"stateMutability": "view",
			"type": "function"
		},
		{
			"inputs": [
				{
					"internalType": "address",
					"name": "addr",
					"type": "address"
				}
			],
			"name": "isDeposit",
			"outputs": [
				{
					"internalType": "bool",
					"name": "",
					"type": "bool"
				}
			],
			"stateMutability": "view",
			"type": "function"
		},
		{
			"inputs": [
				{
					"internalType": "address",
					"name": "addr",
					"type": "address"
				}
			],
			"name": "isExpire",
			"outputs": [
				{
					"internalType": "bool",
					"name": "",
					"type": "bool"
				}
			],
			"stateMutability": "view",
			"type": "function"
		},
		{
			"inputs": [],
			"name": "lastRewardBlock",
			"outputs": [
				{
					"internalType": "uint256",
					"name": "",
					"type": "uint256"
				}
			],
			"stateMutability": "view",
			"type": "function"
		},
		{
			"inputs": [],
			"name": "onlyOwnerBalance",
			"outputs": [
				{
					"internalType": "uint256",
					"name": "",
					"type": "uint256"
				}
			],
			"stateMutability": "view",
			"type": "function"
		},
		{
			"inputs": [
				{
					"internalType": "uint256",
					"name": "_amount",
					"type": "uint256"
				}
			],
			"name": "onlyOwnerWithdraw",
			"outputs": [],
			"stateMutability": "nonpayable",
			"type": "function"
		},
		{
			"inputs": [],
			"name": "owner",
			"outputs": [
				{
					"internalType": "address",
					"name": "",
					"type": "address"
				}
			],
			"stateMutability": "view",
			"type": "function"
		},
		{
			"inputs": [],
			"name": "paused",
			"outputs": [
				{
					"internalType": "bool",
					"name": "",
					"type": "bool"
				}
			],
			"stateMutability": "view",
			"type": "function"
		},
		{
			"inputs": [],
			"name": "profitAccumulate",
			"outputs": [
				{
					"internalType": "uint256",
					"name": "",
					"type": "uint256"
				}
			],
			"stateMutability": "view",
			"type": "function"
		},
		{
			"inputs": [],
			"name": "profitTotalAmount",
			"outputs": [
				{
					"internalType": "uint256",
					"name": "",
					"type": "uint256"
				}
			],
			"stateMutability": "view",
			"type": "function"
		},
		{
			"inputs": [],
			"name": "renounceOwnership",
			"outputs": [],
			"stateMutability": "nonpayable",
			"type": "function"
		},
		{
			"inputs": [
				{
					"internalType": "uint256",
					"name": "amount",
					"type": "uint256"
				}
			],
			"name": "setAITDPerBlock",
			"outputs": [],
			"stateMutability": "nonpayable",
			"type": "function"
		},
		{
			"inputs": [
				{
					"internalType": "address",
					"name": "_airdropOwner",
					"type": "address"
				}
			],
			"name": "setAirdropOwner",
			"outputs": [],
			"stateMutability": "nonpayable",
			"type": "function"
		},
		{
			"inputs": [
				{
					"internalType": "address",
					"name": "addr",
					"type": "address"
				}
			],
			"name": "setEmergencyWithdrawAddress",
			"outputs": [],
			"stateMutability": "nonpayable",
			"type": "function"
		},
		{
			"inputs": [
				{
					"internalType": "uint256",
					"name": "exp",
					"type": "uint256"
				}
			],
			"name": "setExpire",
			"outputs": [],
			"stateMutability": "nonpayable",
			"type": "function"
		},
		{
			"inputs": [
				{
					"internalType": "uint256",
					"name": "amount",
					"type": "uint256"
				}
			],
			"name": "setInvitationRewardTotalAmount",
			"outputs": [],
			"stateMutability": "nonpayable",
			"type": "function"
		},
		{
			"inputs": [],
			"name": "setPause",
			"outputs": [],
			"stateMutability": "nonpayable",
			"type": "function"
		},
		{
			"inputs": [
				{
					"internalType": "uint256",
					"name": "amount",
					"type": "uint256"
				}
			],
			"name": "setProfitTotalAmount",
			"outputs": [],
			"stateMutability": "nonpayable",
			"type": "function"
		},
		{
			"inputs": [
				{
					"internalType": "uint256",
					"name": "lowerLimit",
					"type": "uint256"
				},
				{
					"internalType": "uint256",
					"name": "upLimit",
					"type": "uint256"
				}
			],
			"name": "setStakeLimit",
			"outputs": [],
			"stateMutability": "nonpayable",
			"type": "function"
		},
		{
			"inputs": [],
			"name": "stakeLowerLimit",
			"outputs": [
				{
					"internalType": "uint256",
					"name": "",
					"type": "uint256"
				}
			],
			"stateMutability": "view",
			"type": "function"
		},
		{
			"inputs": [],
			"name": "stakeUpLimit",
			"outputs": [
				{
					"internalType": "uint256",
					"name": "",
					"type": "uint256"
				}
			],
			"stateMutability": "view",
			"type": "function"
		},
		{
			"inputs": [],
			"name": "totalAmount",
			"outputs": [
				{
					"internalType": "uint256",
					"name": "",
					"type": "uint256"
				}
			],
			"stateMutability": "view",
			"type": "function"
		},
		{
			"inputs": [
				{
					"internalType": "address",
					"name": "newOwner",
					"type": "address"
				}
			],
			"name": "transferOwnership",
			"outputs": [],
			"stateMutability": "nonpayable",
			"type": "function"
		},
		{
			"inputs": [
				{
					"internalType": "uint256",
					"name": "",
					"type": "uint256"
				}
			],
			"name": "userInfoSet",
			"outputs": [
				{
					"internalType": "bool",
					"name": "isInvidteeReward",
					"type": "bool"
				},
				{
					"internalType": "uint256",
					"name": "stakedAmount",
					"type": "uint256"
				},
				{
					"internalType": "uint256",
					"name": "invitationReward",
					"type": "uint256"
				},
				{
					"internalType": "uint256",
					"name": "firstStakeAmount",
					"type": "uint256"
				},
				{
					"internalType": "uint256",
					"name": "lastBlock",
					"type": "uint256"
				},
				{
					"internalType": "uint256",
					"name": "profitDebt",
					"type": "uint256"
				}
			],
			"stateMutability": "view",
			"type": "function"
		},
		{
			"inputs": [],
			"name": "userLength",
			"outputs": [
				{
					"internalType": "uint256",
					"name": "",
					"type": "uint256"
				}
			],
			"stateMutability": "view",
			"type": "function"
		},
		{
			"inputs": [
				{
					"internalType": "address",
					"name": "",
					"type": "address"
				}
			],
			"name": "userOfPid",
			"outputs": [
				{
					"internalType": "uint256",
					"name": "",
					"type": "uint256"
				}
			],
			"stateMutability": "view",
			"type": "function"
		},
		{
			"inputs": [
				{
					"internalType": "uint256",
					"name": "_amount",
					"type": "uint256"
				}
			],
			"name": "withdraw",
			"outputs": [],
			"stateMutability": "nonpayable",
			"type": "function"
		},
		{
			"stateMutability": "payable",
			"type": "receive"
		}
	]
}